:020000041400E6
:1000000000800020D101001491010014930100141C
:1000100095010014970100149901001400000000DC
:100020000000000000000000000000009B01001420
:100030009D010014000000009F010014A1010014A4
:10004000A3010014A3010014A30100140000000088
:10005000A3010014A3010014A3010014A3010014C0
:1000600079870010A3010014A3010014A301001458
:10007000A3010014A3010014A3010014A3010014A0
:10008000A3010014A301001431180010A3010014EF
:10009000A3010014A3010014A301001429230010DC
:1000A00089240010A3010014A3010014A30100146B
:1000B000A3010014A3010014A3010014A301001460
:1000C000A3010014A3010014A3010014A301001450
:1000D000A3010014A3010014A3010014A301001440
:1000E000A3010014A3010014A3010014A301001430
:1000F00000000000A3010014A3010014A3010014D8
:1001000000000000A3010014A3010014A3010014C7
:10011000A3010014609B0114007701100C0900007A
:100120009079011400000020000000009079011473
:1001300000000810000000009079011400800020E9
:10014000D0210000609B011400C0002000000000CE
:100150009002001400000010607401000000001400
:10016000000000101401000000880110440B000082
:100170000000002000000000000008100000000047
:10018000D0A100200000000000C0002000000000FE
:10019000FEE7FEE7FEE7FEE7FEE7FEE7FEE7FEE737
:1001A000FEE7FEE710B50B46401A5C1AA24203D9DF
:1001B000C45843F8044BF8E710BD10B503460022BD
:1001C0001C1AA14202D943F8042BF9E710BDFFFF26
:1001D00038B572B61B4B1C4A1A601C4A5A601C4A3E
:1001E0004FF0FF33136053609360D360136153612A
:1001F0009361D36162B6174C174DAC4201D3174DD2
:1002000007E094E803000C3454F8042CFFF7CAFF0D
:10021000F3E7AC4206D254F8080B54F8041CFFF77D
:10022000CCFFF6E7DFF84000016841F4700101609F
:100230000B4B1A680AB10B4A136000F021F800F06A
:1002400017F8FEE7003105400010DF10FFF7DF016F
:1002500080E200E014010014680100149001001411
:100260000000001008ED00E088ED00E0FFFFFFFF58
:1002700001B40248844601BC604700BF6519001004
:1002800001B40248844601BC604700BF55C000105D
:10029000000000000000000000000000000000005E
:1002A000000000000000000000000000000000004E
:1002B000000000000000000000000000000000003E
:1002C000000000000000000000000000000000002E
:1002D000000000000000000000000000000000001E
:1002E000000000000000000000000000000000000E
:1002F00000000000000000000000000000000000FE
:1003000000000000000000000000000000000000ED
:1003100000000000000000000000000000000000DD
:1003200000000000000000000000000000000000CD
:1003300000000000000000000000000000000000BD
:1003400000000000000000000000000000000000AD
:10035000000000000000000000000000000000009D
:10036000000000000000000000000000000000008D
:10037000000000000000000000000000000000007D
:10038000000000000000000000000000000000006D
:10039000000000000000000000000000000000005D
:1003A00000000000002070470020704708B5F022D0
:1003B00002230321012005F0B7FF064B04229A62B5
:1003C0004FF48062C3F81822A3F5003308225A6064
:1003D000002008BD0010104010B5054B00245C60E3
:1003E000F02205230321012005F09EFF204610BDC9
:1003F00000100E401E4B70B50021054618681D4EBA
:1004000002F03BFB044648B32A7902235AB14188E3
:100410008088401A90FBF3F3194409044FF4A07349
:10042000B1FBF3F30BE0C2880089801A90FBF3F173
:100430000A44C2F1C8021204C823B2FBF3F34FF618
:10044000C0721A400C4B1A606B7913B9642006F025
:100450009FF94FF48063C6F8143203E0064BC6F8E8
:1004600014021860003418BF01246C71002070BDA4
:10047000048801100010104000100E4001717047F8
:1004800008B5082000F0BCFF044B03600123037192
:1004900000234371024B186008BD00BFF035011006
:1004A0000088011000B52DED028B884208EE103A4D
:1004B000034628BF0B4687B0934228BF13460291DC
:1004C000C91A03904943C01A019200FB0010D21AC6
:1004D00002FB020007EE900AF8EE677A17EE900A28
:1004E0000BF04CFA11F0F2F90BF0AEFC1E2804D818
:1004F000092803D80023059310E01E20DFED1D7AA4
:10050000B8EE488A28EE278A07EE900AF8EEE77AD6
:1005100028EE278ABCEEC88A8DED058A059BB3F5C7
:100520007A6F88BF4FF47A6305A888BF059305F0FA
:1005300067FD019A0299039803F00CFA03F022FA7E
:1005400001AB02AA03A903F013FA039B8DF8113043
:1005500006AA029B8DF81230019B02F8053D0DF1B1
:1005600012010DF1110005F021FD07B0BDEC028B69
:100570005DF804FB8FC2753C10B592B010230024C7
:1005800040200793069400F03DFF031D00F1440254
:1005900023F8024C23F8044C04339342F8D1174B50
:1005A000089018681649A023ADF824306423ADF8EC
:1005B000263009AA06AB05F065FB03230093114B17
:1005C00004221B68114606A800F03AFE06AA0C4950
:1005D00009A804F0FEFE05A909A804F073FF04AB06
:1005E00003AA02A903F0C4F902A80FC8FFF75AFF33
:1005F000089808B100F00AFF12B010BD048801107D
:10060000A0880110EC88011013B501A80C4606F073
:1006100007F9019806F00AF9A042FAD306F06AFD3C
:1006200002B010BD13B5044602A8002340F8043DF3
:1006300005F0D0FC4EF660212046FFF7E5FF60781C
:10064000034B03EB800005F0C5FC02B010BD00BFFA
:100650004C3F011037B5002405464470047202A8CF
:1006600040F8044D05F0B6FC2C7003B030BD10B559
:100670000446FFF7EFFF204610BD00002DE9F341CF
:1006800000240F4E054688462746444514DA01A843
:10069000019705F09FFC4EF660212846FFF7B4FF56
:1006A000687806EB800005F095FC4EF66021284640
:1006B000FFF7AAFF0134E8E702B0BDE8F08100BF10
:1006C0004C3F011030B585B0A023ADF8083004AB25
:1006D0000022642123F8061D0392411C0092044667
:1006E00002AA03A800F014FEC82205464FF4A07128
:1006F000074806F06BFD002D08DB064B012118684A
:1007000001F038F904212046FFF7B8FF05B030BDED
:1007100004360110EC8801104378072B01D8FFF74D
:1007200081BF704701292DE9F04704460F464FDD90
:10073000DFF8A480DFF8A490061D06F033F8054624
:1007400006F0D8FC94F800A0BAF1010F0AD003D348
:10075000BAF1020F18D037E0304606F061F80123F5
:1007600023702DE055B1304606F05AF884F801A008
:100770002046FFF757FF02232370DEE7606806F08C
:1007800055F84045D9D901E055B96578042120468E
:10079000FFF774FF2046FFF75DFF2846BDE8F087AE
:1007A000606806F043F84845C7D9304606F038F887
:1007B00063780133DBB27A1C934208BF0123637074
:1007C0002046FFF7A9FFB8E72046FFF743FFB4E74D
:1007D0000020BDE8F08700BF60E3160040420F0034
:1007E0002DE9F0470446ADF53C7D05F0DBFF277AA7
:1007F000064607B321238DF8293000230293ADF874
:100800002A30ADF82C30834B4FF4A0721B68ADF842
:100810003020C8210DAA8DE80C00ADF834100CABC7
:100820000BAA0DF12A010DF1290003F03FFB204630
:10083000FFF7A2FE53E02378002B50D020238DF841
:100840002C304FF47A430893B123079372497148CF
:100850000997022305930393412201238DE80E009B
:100860004FF0C80A4FF4A079CDF818A0CDF8109039
:1008700064234FF49032694900688DF82D7004F0BC
:10088000A2F800F1805505F500253B46C0F59031F2
:1008900080468DE880062122284603F095FA6048BC
:1008A000604F06F093FC474405F10409A8460A226C
:1008B0000CA918F8010B0BF055FD0BA90DA80CF0B5
:1008C00071F90CA90DA80CF06DF9C145EFD10DA976
:1008D000554805F5A07506F079FCBD42E4D12378B2
:1008E000052B00F28B80DFE803F003172F57658894
:1008F000002E00F08680201D05F092FF4B4B0DA8C6
:100900001B880D9305F07CFB012323700DA80023A9
:100910000D9305F05FFB74E00EB9267071E060681E
:1009200005F084FF424B98426BD903F075F810B183
:100930000123637000E06070201D05F071FF204608
:10094000FFF7EAFE02232CE096B903212046FFF7C9
:1009500095FE201D05F064FF627801232AB90DA8D9
:100960008DF8343003F09AF900E02372032318E085
:10097000606805F05BFF2F4B984242D9201D05F0BF
:100980004FFF63780133DBB2082B08BF002363708D
:100990002046FFF7C1FE34E02EB1201D05F040FFD8
:1009A000042323702DE0606805F040FF224B98423D
:1009B00027D923E07EB963784BB90DA88DF8346050
:1009C00003F06CF904212046FFF758FE16E020469C
:1009D000FFF778FE12E0606805F028FF144B98429C
:1009E0000FD9637823B90DA88DF8343003F056F988
:1009F0002046FFF72FFE0523D3E716B92046FFF761
:100A000029FE2078003018BF01200DF53C7DBDE89F
:100A1000F08700BFEC880110424138310000081017
:100A20000A36011080020810FD4001100C880110E8
:100A3000D012130040420F000087930330B50468C2
:100A4000013A234608681D1BA84204D912F8010F79
:100A500003F8010BF6E730BD07B5002201A90548F0
:100A600006F01CF9044B0199186805F00AF803B068
:100A70005DF804FBC03601100488011013B5074C63
:100A800007480022214606F009F902A8238840F809
:100A9000043D05F0B5FA02B010BD00BF0C8801108E
:100AA000DA36011008B50378532B08D1837A0A6827
:100AB000303BD9B20B4B186804F0DBFF06E04D2B3E
:100AC00004D1084B0968186804F0DEFF00F038FF15
:100AD00038B1044B186804F0A8FEBDE8084000F0E7
:100AE00039BF08BD0488011030B5114D8BB0012409
:100AF0002246104902A80CF02FF8002301AA6946EB
:100B000002A806F0CBF8002810DBE1B2019A2868B1
:100B1000013404F060FE082CEAD1054B186804F09B
:100B200084FE054B186806F0F5FD00200BB030BDC3
:100B300004880110E936011008880110F0B597B05B
:100B4000074618881C9B1288ADF80C200C461988A3
:100B50001D9BADF80E001B88ADF812302378ADF860
:100B600010105A1E062A37D81D4E32682AB91D4861
:100B700006F02CFB6FF0010030E01B4D03AA31465C
:100B8000286804F0FBFD2178286804F019FE3B6812
:100B9000C361054603AA31460DA804F001FC0021FB
:100BA0000DA804F08FFCA86122781049002405A844
:100BB0000BF0D2FF2B4620228121009405A806F0DD
:100BC00051F8FFF791FF0A4806F000FB1E9801213B
:100BD00000F0D0FE204601E04FF0FF3017B0F0BD2E
:100BE000A0880110F536011004880110E9360110C3
:100BF0000E37011070B5037892B0013B0024062B2C
:100C000005460E4611940F940E940D940C940B947B
:100C10000A941BD8214620220AA80BF039FF2A7813
:100C20000C4902A80BF098FF0AAB20228121009406
:100C300002A806F017F80446FFF756FFFFF754FF27
:100C40003046012100F096FE204601E04FF0FF30D3
:100C500012B070BDE9360110F0B593B012AE0024A9
:100C600046F8204D074620222146304611940F9425
:100C70000E940D940C940B940BF00AFF01252A4658
:100C80000C4902A80BF068FF009433462022812112
:100C900002A805F0E7FF002809DB0135082DEED199
:100CA000FFF722FF3846012100F064FE002013B058
:100CB000F0BD00BFE93601102DE97043B6B0002346
:100CC000DFF8589214931293119310930F930E938D
:100CD0000D9301254FF000082A467749774E15A855
:100CE0000BF03AFF2A4676491DA80BF035FF0DABF5
:100CF00000240193202300931DAA81230121029443
:100D000015A805F0F3FF2A466E4915A80BF024FF3D
:100D10002A466D491DA80BF01FFF14231DAA4FF48E
:100D200080710294CDE9008915A805F0DFFF224605
:100D300007A915A805F0B2FFE9B2079A306804F0D8
:100D400098FE0135614915A806F03AF8082DC3D17F
:100D500055A3D3E900230294CDE900234FF4807119
:100D600014235B4A5B4805F0C1FF5849594806F017
:100D700027F84FA3D3E900232146CDE900230294AD
:100D80001423554A554805F0B1FF0123009321462D
:100D90000194534A534805F0A9FF4FF4FA630093B6
:100DA000514A019404234FF48071504805F09EFF8E
:100DB0004F494E4806F004F840F2EE2300934D4AA6
:100DC000019402234FF480714B4805F08FFF4FF4DC
:100DD0007A754A49484805F0F3FF00952146019489
:100DE0000223474A474805F081FF009521460194B8
:100DF0000223454A4548464D05F078FF14230093E9
:100E0000214604230194434A434805F06FFF2246DC
:100E100006A93C4805F042FF22460DF11A013B4865
:100E200005F03CFF224608A93B4805F037FF224663
:100E30000DF117012B4805F031FF22460AA925487C
:100E400005F02CFF22460BA9244805F027FF224677
:100E500009A9264805F022FF22462946264805F022
:100E60001DFF9DF81730BDF81A20BDF8181000932B
:100E70003068089B01F006FD0A99306804F004FE12
:100E80000B99306804F012FE0999306804F0F9FDFE
:100E900036A82B8840F8A83D05F0B2F8FFF724FEED
:100EA00036B0BDE8708300BF000000A09999B93F3B
:100EB000000000C0CCCCFC3FE936011004880110D2
:100EC00034370110473701105A3701101508001048
:100ED000B1370110103801101F3801107B38011094
:100EE00091380110F438011004390110C036011096
:100EF000C90700108E390110DA360110ED07001015
:100F0000303A0110773A0110823A0110E13A0110AB
:100F10000C880110FA3A01106D3B011000000440EA
:100F200070B50546042000F06BFA124C064606F038
:100F300087FB4FF42470266000F062FA0E4A2168A5
:100F4000064601F061FC0D4B0D491E60284603F07A
:100F50008DFA0C4B0C491868002204F02BF80B4B4F
:100F60000028188003DBFFF7A7FE002070BD4FF0BC
:100F7000FF3070BD088801100010091004880110AE
:100F800018360110F0880110053C0110007701109F
:100F9000F0B58BB006460AA801254FF0FF3300F8E4
:100FA000055D0F461446099302F0BAFE00281EDBC9
:100FB000104B1148B3F9002074B109AB0021049320
:100FC000042306910591039102970193009600680E
:100FD00003F0E3FF09980AE00423049403940297C2
:100FE000019300962946006803F0D7FF20460BB016
:100FF000F0BD00BF00770110F08801102DE9F04F1F
:101000008DB08046DFF8CC902C480B91002406F080
:10101000DDF802274FF0B10B4123494601934FF40D
:101020008032642309940894CDF81CB00694059787
:101030000494039702940094404603F0C4FC204DAE
:101040008246286806F066FB01221E491E48FFF70B
:101050009FFFCAF58036F6080AF1805132460A90A1
:1010600001F50021286806F01AFB184B05460121FE
:10107000186804F05FF8C82306934FF4A073049334
:10108000134A0B9B0293ED0041238DE80C00494667
:101090006423324609940895CDF81CB00597039750
:1010A000404603F090FC0AEB05024946404603F037
:1010B0004AF90A980DB0BDE8F08F00BF7C3B0110E3
:1010C000088801100010091000000910F0880110B4
:1010D00043435132000008100121FFF78FBF000089
:1010E0002DE9F0418EB0054617480F461646984642
:1010F00006F06CF8149ACDF82C800C2353435B084F
:101100000A930A2303FB06F2C823059342230493A0
:10111000029352089DF854300792002482200193D4
:101120004FF4A072412309900690039200930D940E
:101130000C940897054B64222146284603F0E7FAF1
:1011400020460EB0BDE8F081E73B01104343423238
:1011500008B5000244F62063B0FBF3F0C0B107EE1F
:10116000900AF8EEE77A17EE900A0AF007FC10F002
:101170002FFB0022074B0AF055FC0AF065FEFF2802
:1011800003D8002808BF012000E0FF20C0B208BD3E
:10119000012008BD0000494030B5284C85B0002131
:1011A000206801F06AFC002841D00388072B9FBF0C
:1011B000216803F1FF32142303FB0213428898BF16
:1011C000D3F8F0508388A3EB02030289C088A2EB16
:1011D000000000FB03F088BF6FF07F45FFF7B8FF0A
:1011E00001A9044603AB02AA284602F0C1FB0399F9
:1011F00011B16143090A0131029B039113B16343A9
:101200001B0A01330198029310B16043000A0130B8
:1012100004AA01908DF8010002F80D1D0DF10100E6
:101220000DF102018DF8023004F0C0FE03E00390DE
:1012300003A804F0CFFE05B030BD00BF0488011044
:101240002DE9F04F91B01D4606469DF868302D48B7
:101250000F938A46934605F0B9FF002D4FD0022424
:1012600000234FF0B2094FF041080D930C930A93FD
:1012700008930693049302938DE80801CDF82C900F
:10128000642309940794059403944FF490321E4903
:10129000284603F098FB3268B168074600F1805099
:1012A000A24000F500200BF059FB3368CDF82C90DC
:1012B000A3405B080C93C82306934FF4A0730493D8
:1012C0000F9B0293114B0093CDF828B00994CDF8F1
:1012D00020A0079405940394CDF8048064234FF470
:1012E00090320949284603F06EFB3268064907EB45
:1012F0008202284611B0BDE8F04F03F024B811B0C7
:10130000BDE8F08FF43B011000000810424C54314E
:101310002DE9F04796B0002480469A4640201023DD
:101320000E4603939146029400F06CF82546011D89
:1013300000F1440321F8025C21F8045C0431994275
:101340004FF00004F6D1337804905A1E062A45D88F
:10135000274F3A682AB9274805F038FF6FF0010493
:101360003EE0254DBAF80020B9F800100093ADF822
:10137000341002ABADF8362039460DAA286804F0C7
:1013800053FD3178286804F01BFAD8F80030C361A7
:10139000054602AA39460DA804F01BF821460DA8FF
:1013A00004F090F804220323A8611146009302A8D8
:1013B0001E9BFFF745FF3278104905A80BF0CCFBC8
:1013C0002B4620228121009405A805F04BFCFFF755
:1013D0008BFB01211E9800F0CDFA01E04FF0FF34A5
:1013E000049808B100F012F8204616B0BDE8F08766
:1013F000A0880110F536011004880110E9360110AB
:101400000AF0B2BF0AF0B0BF0AF0B6BF0AF0B4BF2C
:1014100000207047FEE70000012884B046D880B95C
:10142000234B24481A680092009AD2011AD5009AD8
:10143000D24342F080720192019A02601A680092CF
:10144000F2E71D4B1D481A680092009AD2041BD582
:10145000009AD24342F480520192019A02601A68C3
:101460000092F2E7164A11601A6812490292029A33
:10147000D0011BD4029AD24322F080720392039AC5
:101480000A601A680292F2E70E4A11601A680B4964
:101490000292029AD20409D4029AD24322F48052D0
:1014A0000392039A0A601A680292F2E704B0704746
:1014B00054310540043105405031054000310540AC
:1014C0000434044008330440014B00201870704776
:1014D00040880110034A01231370034A002013704F
:1014E000704700BF408801101488011037B50024F0
:1014F0000C4D01942146009401230B4A0B4805F042
:10150000F5FB2146019400940123094A284605F081
:10151000EDFB08492246284603B0BDE8304005F0FF
:10152000BDBB00BFEF4001104C400110A2400110B4
:10153000B24001101588011013B5037833B1082BA0
:101540002AD8013B164A52F823302BB3154B002200
:101550001A600478B4B922460DF10701124805F06B
:101560009DFB9DF807104A1ED3B2072B06D80C49E5
:1015700051F822204AB10D4A137006E00B4804705E
:1015800019B1F4E7094B013C1C70094A012313709F
:10159000084A0020137001E04FF0FF3002B010BD88
:1015A0002088011010880110A24001101D88011030
:1015B000408801101488011010B50C46FFF7BCFFDD
:1015C0000028A1BF024B22681A60002010BD00BF96
:1015D0001088011038B5074D002455F8240038B1A3
:1015E000013490E80C002146034805F0EFFDF4E7D4
:1015F00038BD00BF20880110F540011010B50B4A1E
:1016000086B0044610689288049004ABADF81420AC
:1016100044B10021009302910191062382222046C9
:1016200003F075F8002006B010BD00BF6C3F01103C
:1016300030B50388112B85B00C4612DC002599B11A
:101640000B49039501EBC302029552680192A12256
:1016500051F8333000922946204603F058F82846C6
:1016600003E04FF0FF3000E0084605B030BD00BF9A
:101670006C490110044B187828B9044B1B78002BD7
:1016800014BF022000207047148801101C8801102C
:1016900038B504460C20FFF7B3FE0546FEF7E7FF1A
:1016A0000F4B10491D6020460F4C02F0DFFE002258
:1016B0000E49206803F07EFC0D4B0E491880002275
:1016C000206803F077FC0C4B0C491880002220683E
:1016D00003F070FC0A4B1880FFF708FF002038BDAC
:1016E00018880110743F0110F088011001410110A9
:1016F0000677011005410110027701100D4101101C
:1017000004770110064B09B1D86107E053F8212096
:101710000AB10131FAE7024B43F82100002070477B
:101720002088011010B50B4B88B0B3F90020009051
:101730000021044607AB08480293049103910191EC
:101740000123006803F029FC044B07981C7008B0C3
:1017500010BD00BF06770110F08801100E8801103F
:101760007FB5084B0848B3F9002005A90023009174
:10177000029301931946006803F00FFC059807B027
:101780005DF804FB04770110F08801107FB5094B68
:101790000948B3F9002005A90023009102930193A1
:1017A0001946006803F0F9FB9DF8140007B05DF8D6
:1017B00004FB00BF02770110F088011007B50A484A
:1017C0000023D9B2013350F82120002AF9D1074B68
:1017D0001868FEF7A7FF02AB03F8010D1846FFF7E4
:1017E000ABFE03B05DF804FB2088011018880110DF
:1017F00008B5FFF761FA00F0A5FC02F0ADFB06F0BA
:1018000061F800F027FBBDE80840FFF76FBE00005D
:1018100008B505F06FFC074B1868FEF7E1FF064BB3
:10182000187005F0C5FA18B1BDE80840FFF7E0BF31
:1018300008BD00BF188801101C8801102DE9F7436E
:10184000FFF7BCFF0027DFF8F080354EDFF8EC90A3
:101850003C46D8F8000002F0FFFC0546FFF7D8FF31
:10186000042C06D8DFE804F0081C2E343C00337842
:10187000F3B903242F46ECE72A4B1B7823B902A8BF
:1018800040F8043D04F0A6FB274B1A78274B53F889
:1018900022309B6898470028B4BF03240124E9E75D
:1018A000234B1B78002BE2D0FFF75AFF0224E1E71D
:1018B0001D4B1A781D4B53F82230DB6898470028DF
:1018C00020DAD6E71A4B1B78002B08BF0024D1E79B
:1018D000184A0023337013700424FFF741FFC9E74F
:1018E00033781BB1FFF7F6FD0024C3E71DB199F86B
:1018F0000030002BBED102A8002400F8044DFFF7F1
:101900001BFEB7E7002FB5D0002DB3D104F09CFF2C
:1019100002A82C4600F8045DFFF70EFEAAE700BF00
:1019200040880110498801101D880110208801108D
:101930001C88011014880110EC880110D08A011055
:1019400010B5FFF723FF044608B1FFF709FF204653
:1019500010BD000008B5054B186805F0DBFE044B10
:101960001878BDE80840FFF7DDBE00BF0888011009
:101970000E8801101FB548B1002302930423019182
:1019800000936422034B182102F0C1FE05B05DF8FC
:1019900004FB00BF45565431034B4FF48022C3F87B
:1019A00080200020704700BF00E100E0C269006AAB
:1019B000101A7047F0B5002403462546944217D00C
:1019C000D8691E6A801B00280EDD58691E69471CF5
:1019D0005F61305C0855186A5E6901301862D8682A
:1019E000864203D15D6101E0224601E00134E5E772
:1019F0001046F0BD826838B5536803F0F803982BA1
:101A0000044651D00BD8802B18D003D8602B4BD074
:101A1000702B11E0882B47D0902B0FD048E0B82BCB
:101A200024D004D8A02B3FD0A82B1FD040E0C82B37
:101A30003AD0F82B38D0C02B3AD135E09368216AE0
:101A4000E269511AE268521A002ADBB226DDA26965
:101A50002169501CA0618B54E369A2690133E361E1
:101A6000E3689A421AD10023A36117E0237913B1E6
:101A70000023936022E0256B35B9636B616AA06A2D
:101A800098472063B8B1E562E36AA26A591CE16233
:101A9000D25C236B013B2363A3689A60A368042292
:101AA0001A6008229A6138BD04231360082300E0FD
:101AB0002C23936138BDA368986001232371EDE75F
:101AC000014B1868FFF796BF4488011083683822DD
:101AD0009A6144221A60704710B500230446F02230
:101AE0000321012004F020FC0423F0220121022024
:101AF00004F01AFC0423F0220121022004F014FC5B
:101B00000023F0220421012004F00EFC0423F02223
:101B10000021022004F008FC064B0021C3F8181233
:101B2000054B21714FF4802220461A60FFF7CEFF4B
:101B3000084610BD0010104000E100E008B58368C1
:101B40001B685B0701D4FFF7C1FF002008BD13B578
:101B50008DF8051002A9002401F8044D80688DF865
:101B6000074004F0B5FB204602B010BD2DE9F84354
:101B700020269946134B03600446C66030460F4644
:101B80009046FFF73FFC002520616561A561E56196
:101B9000256266623046FFF735FCE562A062256388
:101BA0003846C4F83490A760074904F04FFB41461B
:101BB0002046FFF7CCFF054B83F817532046BDE8BE
:101BC000F88300BF044A0110A086010000E100E094
:101BD00038B505463820FFF713FC2B46542203493D
:101BE0000446FFF7C3FF024B1C6038BD00100A40DB
:101BF0004488011010B50E4C05F08AFA2068FFF7F2
:101C00008FF900F0F3FA2068FFF742FD0021094840
:101C1000FFF778FD00F01EF900210748FFF772FD7D
:101C200001210648FFF76EFDFFF708FE002010BDFA
:101C3000EC8801100877011018770110287701103F
:101C400013B502AC012304F8013D204602F068F808
:101C50000B4B186803F0E9FD0A4B186805F05AFDB4
:101C60000020FFF75FFD00F0D5FA036801229B68B2
:101C7000214698470028F6D1034B187002B010BDDA
:101C80000488011008880110488801102DE9F043EC
:101C90008DB04FF47A430893B123204EDFF884903F
:101CA00007931F49D9F8000002230024C8274FF4E6
:101CB000A07805930393412201238DE80E00099437
:101CC00031460697CDF8108064234FF4903202F02D
:101CD0007AFE0546C0F5903100F180502346029708
:101CE0008DE81001212200F5002002F06DF80CA90A
:101CF000334621F8027D2A460BA80094ADF82C80CB
:101D000002F07AFA05F57A423146D9F8000002F07D
:101D10001AFB20460DB0BDE8F08300BF000008109C
:101D200042413831EC880110094B4FF4FA725A6085
:101D30004FF448729A604FF000421A60054B4FF41E
:101D40002F7159604FF4617199601A60704700BF3C
:101D50004C880110588801104368B3F1004F37B523
:101D600004460D461BD0CA1AC1680369694303FBC8
:101D7000021302684FF47A7193FBF1F313448B4220
:101D800001DD016003E0002BB8BF002303602046A3
:101D900002A950F8083B21F8023D05F0D7FC656028
:101DA00003B030BD30B51F4D87B0286801F000FD8D
:101DB0000021286800F061FEC0B1C3880489428810
:101DC000E41A022194FBF1F41C44838816489B1A00
:101DD00093FBF1F11144A4B289B2C1F1A001643CBA
:101DE000FFF7BAFF21461148FFF7B6FF05AB04AA7B
:101DF00002A90093286803AB00F091FE0C4805F09F
:101E0000E5F9012301930B48059B0093049A039B7A
:101E100002990068FFF764F9FFF7BEF9002007B0E8
:101E200030BD00BF0488011064880110788801105B
:101E30003A4A0110EC88011007B502A94FF4FA7371
:101E400040F8083B21F8023D05F080FC03B05DF846
:101E500004FB00002DE9FF41DFF8C080264F274A30
:101E6000274E284D00244FF4AF738DE818008021D1
:101E70000423404604F03AFF4FF416730093019494
:101E80000423214A8021384604F030FF4FF4FA73CE
:101E90000093019404231D4A8021304604F026FF5C
:101EA0004FF42F73009301940423194A802128468C
:101EB00004F01CFF224602A9404604F0EFFE224631
:101EC00003A9384604F0EAFE124B029ADA60039A3C
:101ED0001A6102A92246304604F0E0FE224603A918
:101EE000284604F0DBFE0C4B029ADA60039A1A6172
:101EF00004B0BDE8F08100BFBE4A0110414A0110A4
:101F0000044B0110494B0110864A0110C94A0110C7
:101F1000104B011064880110788801107B4A011071
:101F200007B502A8012300F8013D01F0F9FEFFF713
:101F300091FF0B48FFF780FF0A48FFF77DFF0A4B30
:101F40001B680BB1FEF7D0FD084B186805F0E2FBEB
:101F50000020FFF7E7FB002003B05DF804FB00BFA3
:101F60006488011078880110A08801100888011089
:101F70000C4B002119724FF448714FF4FA72196139
:101F80004FF000411A60DA605960074B1A60012275
:101F90001A724FF42F72DA604FF461721A6159604D
:101FA000704700BF648801107888011000207047D6
:101FB0002DE9F0438DB04FF47A430893B123214DBE
:101FC000DFF888900793204A029002234FF0000820
:101FD000C8264FF4A0770593039341238DE80C00A6
:101FE0002946CDF824800696049764234FF4903256
:101FF000D9F8000002F0E7FC0446C0F5903100F18A
:102000008050434602960197CDF80080212200F5CA
:10201000002001F0D9FE0CA9012321F8026D22460F
:1020200000930BA82B46ADF82C7002F0E5F804F5F0
:102030007A422946D9F8000002F085F90DB0BDE8D2
:10204000F08300BF0000081042413831EC880110D5
:102050007FB5134B1B68E3B9ADF81030ADF8123003
:102060004FF4A073ADF81430C823ADF816300D4B03
:102070001B68019321220DF116038DF80F200093A8
:102080000DF1120205AB04A90DF10F0001F058FF8C
:1020900002E00120FFF78CFF002007B05DF804FB91
:1020A00010880110EC88011008B5034B0A46014660
:1020B000186800F083FC08BD04880110052838B5B5
:1020C000054630D8194C206810B103685B68984702
:1020D000174B1D70013D042D19D8DFE805F00308EA
:1020E0000A0D1000134B18682060002113E0124BFA
:1020F00000E0124B1B6808E0114D012101E0104D7A
:1021000000212868FEF7BAF92B68236005E0094B27
:1021100018682060012100F04FF9206803681B68EF
:102120009847002038BD4FF0FF3038BD8C88011033
:10213000908801109488011044880110988801103B
:1021400000880110F0B5214F214E224A224D85B062
:1021500000242146019400940123384604F0C6FD72
:1021600054230093019401231C4A1021304604F0AB
:10217000BDFD4FF496430093214604230194184A71
:10218000284604F0B3FD22460DF10A01384604F05A
:1021900085FD9DF80A00FFF791FF22460DF10B0126
:1021A000304604F07BFD0F4B9DF80B101868FFF7CD
:1021B000CEFC224603A9284604F070FD0A4B039981
:1021C000186800F005FB05B0F0BD00BF434C0110DE
:1021D000A64C0110A44B01100B4D0110514C0110E5
:1021E000B24C0110448801109888011010B5084CB9
:1021F0002046FFF7EDFC204600F040F9204600F0B5
:10220000F1FAFEF73DF9FFF79DFF002010BD00BF7A
:10221000191E0010014B1868704700BF8C88011010
:1022200042698069101A7047044B0020C3F81802F5
:10223000034B4FF40002C3F8802070470010104099
:1022400000E100E0F0B500240346A646944217D012
:102250009D695869401B00280DDDDE689F680135C7
:10226000701C37F816609D615D68D860A84204D183
:10227000C3F80CE001E0224602E00E550134E5E728
:102280001046F0BD0D4B0E484FF48042C3F81422A7
:102290009622016811F0040F09490BD1013AF8D1D7
:1022A000C3F8142210220868400703D4013AFAD177
:1022B000012070470020C3F814027047001010403E
:1022C00014610F4073B5054690F83D00D0B100226F
:1022D00004210D480D4E04F088F801A804F0A0FA7E
:1022E0002846FFF7CFFF044628B9019804F09EFA6C
:1022F000B042F5D900E0012403480122042104F092
:1023000074F8204602B070BD00500C4020A10700B8
:1023100038B50F4B042405469C63F02205230321A6
:10232000012004F001F821460523F022012003F0EA
:10233000FBFF012313211846F02203F0F5FF054BA4
:102340004FF400021A602846FFF7BCFF002038BD9A
:102350000010104000E100E038B590F83D30044630
:1023600023B3426B836B9A4216D090F830507DB9FC
:1023700090F83C300133DBB2052B80F83C3013D1B0
:10238000FFF7A0FF0A4804F021FF84F83C500BE05F
:10239000002380F83C3007E0064B4FF48042C3F83E
:1023A00014220022C3F81422636BA363002038BDFB
:1023B000384D01100010104080F83D10044B21B141
:1023C0004FF48042C3F818227047C3F818127047C0
:1023D00000101040F0B5244B03601026044689B06D
:1023E000466020200F46FFF70DF80025A060E5604D
:1023F00025616561A561E6612020FFF703F81B4BAD
:1024000007930F2320626562A5620293E7620423AB
:1024100002A91748039504950695059303F08EFFCE
:10242000134A082593680193013DFBD1012110480F
:1024300003F0D2FF04210E4803F0E1FF0122042142
:102440000B4803F0D2FF0B4B83F817530A4B84F869
:10245000305020466563A56384F83C5084F83D50B5
:10246000C3F8185209B0F0BD244D011000CB280C60
:1024700000500C4000E100E00010104038B5054667
:102480004020FEF7BDFF29460446FFF7A3FF014B9E
:102490001C6038BD9488011070B5C56804460E46AE
:1024A00045B9016803694068490098474008E06001
:1024B00058B1A560A3686268591C32F81330A16056
:1024C0003380E368013BE360012070BD026943692A
:1024D00070B50468D31AE31A002B0CDDC568466892
:1024E0006B1C0132A342C36026F81510026104D1AF
:1024F0000023C36001E0002070BD012070BD00001A
:10250000F7B590F83D202A4B054682B3294A4FF48F
:102510008041C2F814120021C2F8141204229E68ED
:102520001A621C4600F11C07E36813F002030BD08B
:102530000DF106013846FFF7AFFF08B9ADF8060008
:10254000BDF80630A360EFE706F47F42B2F5B44F62
:1025500006D0B2F5B64F04D1B1B2281DFFF7B6FFD1
:10256000012385F830306B6B01336B631EE004226E
:102570009E681A621C4600F11C07E3689B0709D598
:102580000DF106013846FFF787FF18B1BDF8063098
:10259000A360F2E706F47F43B3F5B64F06D1B1B2BC
:1025A000281DFFF793FF012385F8303003B0F0BDFD
:1025B00000500C4000101040014B1868FFF7A0BFFE
:1025C000948801108269C069101A704790F83430FD
:1025D00013B942681360136000207047F0B50024FF
:1025E00003462546944217D09869DE69801B00286F
:1025F0000EDD1869DE68471C1F61305C0855D8691C
:102600001E690130D8619868864203D11D6101E0DE
:10261000224601E00134E5E71046F0BD08B5F0229E
:1026200001230021022003F07FFE01231946F0223E
:10263000022003F079FE0023F0220321012003F0A1
:1026400073FE0023F0220421012003F06DFE034BF2
:102650004FF080721A60002008BD00BF00E100E06A
:1026600008B5F02204230021022003F05DFE0423BC
:10267000F0220121022003F057FE034B4FF080723D
:10268000C3F88020002008BD00E100E0F7B5044653
:102690000020626884F83400936803F00E03042B72
:1026A00016D11368E169A269511AA268521A8242CE
:1026B000DBB22FDD6269E168551C65618B54A3694B
:1026C00062690133A361A3689A4223D1606121E06A
:1026D0000C2B02D1136801931CE0022B1AD1102598
:1026E0000127E66A36B9236B216A606A9847E0627F
:1026F00060B1A662A36A626A591CA162D25CE36AF5
:1027000084F83470013BE36263681A60013D15F0A0
:10271000FF05E6D103B0F0BD014B1868FFF7B6BF67
:10272000988801102DE9FF412026264B03600446BE
:102730008660304690460F46FEF764FE0025E06056
:10274000266225616561A561E5613046FEF75AFEA6
:102750004FF496430193032360628DF8093001A979
:10276000194BA5623846E562C4F83080676084F88A
:102770003450039301268DF808508DF80A5003F069
:10278000FDFE694660688DF802508DF803508DF8A3
:1027900000608DF8016003F0C3FF3146606803F00C
:1027A000DDFF32462946606803F09CFF60683246D0
:1027B000314603F097FF054B204683F8185304B0C9
:1027C000BDE8F081484D011000CB280C00E100E08D
:1027D00008B5034A406803F033FE002008BD00BF7F
:1027E00000CB280C38B505463820FEF709FE2A46EE
:1027F00003490446FFF796FF024B1C6038BD00BF3B
:1028000000100840988801102DE9F04188461146D3
:10281000044603F079F804F5D27604F51A773546C4
:1028200030461C3606F0D2FBBE42F9D11423C4F860
:102830008032A4F87A32052300266422A4F8843278
:10284000062384F87662A4F87822C4F88C62C4F86F
:10285000A081A4F8863284F888624FF47A70FEF77B
:10286000D1FDA4F86C62C4F86802A4F87C62A4F8F4
:102870007E6228461C3506F033FCAF42F9D1204673
:10288000BDE8F0816429C0F8803288BF64219DF8DA
:102890000030A0F87812A0F87A2280F88832002060
:1028A000704713B59DF8004061F302048DF80040B5
:1028B000BDF8004062F3CB04BDF80220ADF8004043
:1028C00063F30902ADF80220BDF810201344BDF8EF
:1028D0000420013963F309021C2303FB010000F506
:1028E000D2706946ADF8042006F04CFC02B010BD71
:1028F000112A2DE9F0415BD990F87632002B57D19F
:10290000B0F87E42B0F87422944254D2D0F87C32AF
:102910002BB94AF6552321F8023B092400E008248C
:102920004AF656230B80B0F87E32D0F870724FF022
:102930000C0E0EFB03F337F803C0A1F804C0B0F887
:102940007E520EFB0575AB886A889A1A92B24A814C
:10295000B0F87E520EFB05752B89ED885B1B9BB290
:102960008B81B0F87E520EFB05756E8806EB520621
:10297000B6B2CE80B0F87E520EFB05751A44ED88D3
:1029800005EB5305ADB20D81B0F87E820EFB0877E2
:1029900062447F89CF813A44B31815FA83F34B80A0
:1029A000B0F87E320133A0F87E326000BDE8F081DD
:1029B0000020BDE8F0811846BDE8F0810F2A2DE91E
:1029C000F04105460C4655D9B0F87C32B0F86C623F
:1029D000B34206D390F888721FB1BDE8F041FFF70B
:1029E00087BF95F87602002844D1B34243D22BB971
:1029F0004AF6552224F8022B082000E00720D5F8DB
:102A000068624AF6552203EB8303228036F813806E
:102A1000A4F8048002335900A1F1020C36F81330F7
:102A200036F80C70DF1B01F1020EBFB23144678132
:102A30008B8836F80E10591A89B2A1817A1808EBE2
:102A4000020336F80C2002EB5707BFB2E78017FAF3
:102A500083F236F80E3003EB51039BB2238113FA55
:102A600082F36380B5F87C320133A5F87C324000F4
:102A7000BDE8F0810020BDE8F081F0B502460029F4
:102A800039D1D0F88C02002848D1B2F86C720346D4
:102A900005464FF00A0EBD4211DAD2F868120EFB5D
:102AA0000511013588884E880C89861BC888201A34
:102AB000704383423CBFC2F88C120346EBE7B2F886
:102AC000747200254FF00C0EBD4211DAD2F870126C
:102AD0000EFB0511013588884E880C89861BC88835
:102AE000201A704383423CBFC2F88C120346EBE7C6
:102AF000D2F88C02F0BDB0F86C620A270020B04218
:102B000009DA07FB00F4D2F868522B192C5B8C42CF
:102B100003D00130F3E70020F0BD1846F0BD10B53A
:102B2000D0F868420C60B0F86C121160D0F87022D6
:102B30001A60029BB0F874221A6010BD002070B5B4
:102B40000346044604EB84069442B6B218D001EB67
:102B5000460531F816602EB90130002B08BF2B4610
:102B600080B20AE04BB11E806E885E80AE889E8087
:102B7000EE88DE802D891D810A330134A4B2E1E79D
:102B800070BD2DE9F04F02EB820285B093B20020B8
:102B9000019302468146019B934242D031F81230A4
:102BA00001EB4204002B36D0A3886688B4F806E017
:102BB000B4F808C00293531D019D9BB29D422AD0D8
:102BC00031F813704FEA430B01EB0B050FB36F881D
:102BD000B5F804A0B5F806802D890395BE420CD83F
:102BE000029D55451AD3C64505D8039DAC4502D371
:102BF00021F80B900BE0BE420BD3029D554508D83F
:102C0000C64506D3039DAC4503D8A4F80090013017
:102C100080B20533D0E7053292B2BCE7BE42F8D3AA
:102C2000EEE705B0BDE8F08F2DE9F04F89B002EB7B
:102C30008202029093B2002003930090039B009ABB
:102C4000934200F08F8031F812405300002C7ED068
:102C50009C1C0D1931F804E004951C1D0D1931F868
:102C600004C005959C1D0D19083306950C5B31F8C1
:102C70000380CD180795134605339BB20193019D40
:102C8000039BAB4263D02B464FEA450931F8133022
:102C900001EB0905002B58D06E88AF88EB882D8991
:102CA000B64511D3029AB2F884B2C7EB0E0ADA45E0
:102CB0000ADC9C4201D8984503D2AC4204D8A8450E
:102CC00002D3049B1E803AE0BC4511D8029AB2F8A8
:102CD00084B2CCEB060ADA450ADC9C423CD8984523
:102CE00003D2AC4204D8A84539D3059B1F8026E007
:102CF0009C4211D3029AB2F884B2C5EB040ADA45B9
:102D00000ADCB64501D8B44503D2BE4504D8BC455B
:102D100002D3069A138012E0A84516D8029AB2F898
:102D200084A2C8EB030353450FDCB64501D8B44574
:102D300003D2BE4509D8BC4507D3079B1D804FF081
:102D40000003013021F8093080B2019B94E7009A1A
:102D5000053293B2009371E7AC42CBD8C3E79C42F3
:102D6000DCD3C7E709B0BDE8F08F2DE9F04FB2F82A
:102D700004A088884B88B2F80280B1F806900989CF
:102D800085B09DB200901FFA8AF00290D088019120
:102D900003901FFA88F10FFA85FB0FFA81FCBDF84A
:102DA0000C401089BDF80060BDF80470E3451FFABF
:102DB00089FE82B20FFA8EFC0FFA84FB1BDBDC4526
:102DC00003DC0FFA87FCDC450BDA0FFA8EFC0FFAF6
:102DD00082FBDC4508DC3FB25F4502DA24B2A44541
:102DE00052DBCAEB03004DE02BB20FFA81FA5345D8
:102DF00023B252DC5BE0DC454BDC3FB223B29F42A6
:102E000008DA0FFA8EFC12B2944507DC974201DA19
:102E10009C4521DB009BC3EB080033E09C451BDB9A
:102E20002BB20AB2934203DC33B20AB293420ADAFB
:102E3000BDF908202BB2934208DC36B2964202DA82
:102E400009B28B422CDBC0EB09001BE00FFA8EFEAF
:102E500024B2A64534DC30E02BB20AB2934203DC44
:102E600033B20AB293420ADABDF908302DB29D425C
:102E700026DC36B29E4202DA09B28D4220DB039B89
:102E8000019A981A80B21DE02BB20AB29342EBDC91
:102E900010E012B29445C7DCBCE79C45E4DBC7E711
:102EA0000FFA8EFE24B2A6450ADC8E42E6E79C4568
:102EB000A3DDB9E7A742D3DBACE70AB29342CFDD8B
:102EC00047F6FF7000B205B0BDE8F08F70B50E4652
:102ED00009880446154639B313882BB3994223D089
:102EE00090F88832022B04D194F88832022B07D153
:102EF0000EE001F0070102F0DCFD012814D1F3E738
:102F00002978204601F0070102F0D3FD01280BD1FA
:102F10002A4631462046FFF728FFB4F88632984209
:102F2000CCBF0020012070BD002070BD2BB188886F
:102F30004B88C1189088538804E00889CB88C11851
:102F40001089D3880344022093FBF0F3C3EB6100A4
:102F500080B2030444BF404280B200B27047000018
:102F6000F7B5538890880F4618448B8849880B44DE
:102F70005B10C3EB600007EE900AF8EEE77A1646A6
:102F800017EE900A08F0FAFCFB88044638890D46D3
:102F90001844F18833890B445B10C3EB600007EEE3
:102FA000900AF8EEE77A17EE900A08F0E7FC22465E
:102FB0002B460EF08DFB00220B4B08F033FD08A3CF
:102FC000D3E9002308F058FE08F05EFF07EE900AF0
:102FD000FDEEE77ACDED017ABDF9040003B0F0BD56
:102FE000000000C0CA210940008066402DE9F0477A
:102FF00086B080469DF838A00D46164699460024B6
:10300000B44201AF0CD00A2C0AD055F82420534604
:1030100049464046FFF78AFF27F814000134EFE7DE
:10302000012039462B460246B24214D20A2A12D057
:10303000B1F800E031F8024FA64508D9586821F8E8
:10304000024C1C68A1F800E083E811000020013266
:1030500092B20433E8E70028E2D006B0BDE8F0877A
:103060002DE9F04F0025B2F900A08DB0A8462E46FC
:103070004FF0640B56453FDA51F8260043888488A8
:10308000E41A0389C0881B1A63430BFB03F04FF457
:10309000FA74B0FBF4F000904FF4C8705843B0FBE2
:1030A000FBF01844019000200746BE4217D051F8AB
:1030B00027E0BEF80240BEF80490C4EB0909BEF850
:1030C0000840BEF806E0CEEB040404FB09FE009CB9
:1030D000744504D8019C744524BF013080B2013787
:1030E000BA45E2DC854226BF634628464FF0010818
:1030F00001369C460546BDE7B8F1000F01D1A2F8A4
:1031000000800023B2F900E01D4664274FF4FA78EE
:103110004FF4C879754501DB002022E0092BFBD86C
:1031200051F82540A0886688B4F806A0861B20893F
:10313000CAEB0000704307FB00F6B6FBF8F6B44597
:103140000DD309FB00F6B6FBF7F63044844506D8EC
:103150000CAE581C06EB830343F8284C83B20135B0
:10316000D8E7984206DA02AC54F8204041F82040F3
:103170000130F6E713800DB0BDE8F08FF0B5002305
:10318000B2F900608BB01D461846B0429CB217DA07
:103190000A2B14D051F820704DF823700130B04242
:1031A00001DB0133F1E751F82040B4F800E03C883E
:1031B0008EEA04046407F4D101300125EFE71C46D0
:1031C0004DB10023A34205DA5DF8230041F8230046
:1031D0000133F7E714800BB0F0BDF0B5D0F86842CA
:1031E000B0F86C620A270020B0420CDA07FB00F549
:1031F0000130635B23F0070E964502BF03F007031F
:103200000B436353F0E7F0BD2DE9F04FB0F86C329B
:10321000D0F868820A2699B0044606FB0386002788
:10322000B04538D208F10A0908F11405A5F10A02DF
:10323000B24201D3C846F3E741462046FFF746FEB7
:1032400038B339F80A3C35F80A2C072B0ED8072A70
:1032500014D80137BFB2FA0092B2134329F80A3CDE
:1032600035F80A3C1A4325F80A2C12E0072A05D83B
:1032700023F00703134325F80A3C0AE035F80A2C2B
:10328000072A06D9072B9EBF22F00702134329F80D
:103290000A3C0A35CAE7D4F868A2B24522D2D3461E
:1032A0003BF80A5B072D1BD925F00705ADB2D946BF
:1032B000B14515D2B9F80080B8F1070F0DD928F043
:1032C00007081FFA88F8454507D04A465146204668
:1032D000FFF7FCFD002840F06E8109F10A09E7E7DD
:1032E000DA46DAE7D4F86832D4F8705203F5777327
:1032F0000B930023A4F8743201220A9313B2BB4249
:10330000D4F8683200F339810B998D4280F0358111
:1033100092B24FEAC20E06920021BDF82820ADF805
:1033200036201FFA8EFE0A46B34212D210B2092886
:103330000FDCB3F800C02CF0070CF44507D118A936
:1033400001EB8000013240F8283C92B201210A339F
:10335000EAE709B1ADF836200DF136020EA9204694
:10336000FFF77EFEBDF836300793BDF91CE0BEF1D5
:10337000010F40F3FE8000230493039302939A46C7
:1033800019461846CDF814E00DF1380B0FFA80FEFF
:103390005BF82390B9F80220089218AA02EB8E0E6F
:1033A000089A5EF828ECB9F804C0BEF802E01FFAEB
:1033B00083F8964588BF4046B9F8062009920FFA6F
:1033C0008AFE18AA02EB8E0E099A5EF828ECBEF867
:1033D00006E0964588BFC24618AA0FFA81FE02EBA6
:1033E0008E0E01335EF828ECBEF804E0E64538BFE7
:1033F0004146B9F808E0BDF9089002EB8909029A44
:1034000059F8289CB9F80890F14538BF4246029215
:10341000089AC2EB0C0C039A62440392099AC2EB1D
:103420000E0E049A72440492059A0FFA83FE7245B6
:10343000AADC18AA09B20FFA8AFE02EB810102EB9C
:103440008E0EBDF908205EF828EC51F8281CBEF855
:1034500006C0898818AB0DF1600800B203EB80004C
:1034600008EB820250F8283C52F8282C5888128920
:10347000A980A5F806C04FF06408091ACCEB020C2D
:1034800068802A8108FB01F1039A059892FBF0F00D
:1034900008FB0CFC91FBF0F1049A059892FBF0F804
:1034A0009CFBF8FC6145D5BF0023012100930091EE
:1034B000D8BF7346BDF81C2059462046FFF796FD3D
:1034C0000DF1360259462046FFF758FEBDF9363059
:1034D000012BD8464DDD052BC4BF0523ADF8363092
:1034E000BDF8363000218E461AB208B290420ADA90
:1034F00058F82100008800F0070040EACE0E1FFABD
:103500008EFE0131F1E7013B9BB2002118B2002889
:1035100013DB0DF1600C0CEB8000013B50F828CC64
:10352000BCF8000000F0070040EAC101BDF8280027
:10353000ACF8000089B29BB2E8E78E4508D218AB20
:1035400003EB8202A5F800E052F82C2C0E9906E05D
:1035500018AB03EB820329800E9A53F82C1C2046EB
:10356000FFF7FEFCB4F87432688101330C35A4F81F
:103570007432069A013292B2C0E603F10A050027BE
:10358000A5F10A039E421FD994F88832032B04D177
:1035900035F80A3C072B0CD913E035F80A1C07292B
:1035A0000FD8022B0DD0C9B2204602F082FA0128B2
:1035B00007D00A35E4E7424629462046FFF70DFECC
:1035C0008BE625F80A7CF4E719B0BDE8F08F38B532
:1035D00000F5D27400F51A75204605F005FD204669
:1035E0001C3405F046FDAC42F6D138BD2DE9F04F54
:1035F00089B000230746ADF81830ADF81E30ADF89D
:103600001A30ADF81C301C4603934FF0FF3906A961
:10361000D7F8A001059304F01FF8059B0028F6D009
:10362000BDF818504FF6FD72954200F2AF80002BA6
:10363000EDDB5DBB7CB1BDF810100BF10102521A3D
:103640004B1E92B200929BB21FFA89F2E1B2384649
:10365000FFF727F903460399039A052909F10109A0
:1036600002F1010205D0002403924FF6FF76A04636
:10367000CDE705934D4B00241868012101F05AFD58
:103680004FF6FF76A0460394059BC0E705F0070AB6
:1036900014200AF1FF3100FB0171BDF81E20BDF9B5
:1036A0001CE0D1F8E000002A08BF01224FEACE3E1C
:1036B0009EFBF2FE864522DDD1F8E40086451EDA47
:1036C000BDF91AE0D1F8E8004FEACE3E9EFBF2FECB
:1036D000864514DDD1F8EC108E4510DAD7F86C1160
:1036E0008A420CDBED10AAB20592BDF81420ADF8A9
:1036F0001820AA1B052A42D8D04540D113E0002C3F
:1037000085D0BDF810100BF10102521A4B1E92B277
:1037100000929BB21FFA89F2E1B23846FFF7C1F876
:103720000346002473E7B4B1A2452CD00126BDF8AE
:1037300010100BF10102521A4B1E92B200929BB272
:103740001FFA89F2E1B23846FFF7ABF803464EB1F3
:103750002E46D046E5E744460496B8F1000F12D154
:103760002E4654E7059B0222013B00929BB21FFAB2
:1037700089F251463846FFF794F80346E8E7002CF3
:10378000F0D00026D3E7AB462E4640E73846FFF799
:103790001EFFBDF818304FF6FE7083424FF0FF3029
:1037A00018BF002009B0BDE8F08F00BFEC88011001
:1037B0002DE9F74F0446FFF719FF002811DA04F549
:1037C000D27504F51A7628461C3505F089FCB542F9
:1037D000F9D10023A4F86C32A4F874324FF0FF3012
:1037E000B5E00025012684F87662C4F88C52A4F86E
:1037F0006C52A4F8745294F88832022B07D0F1B2BC
:10380000204602F056F9431E5842584100E001207C
:103810001C23B4F86C82D4F8681203FB064308EB4F
:10382000880AD3F8983152464FF0000CE3B3B4F84D
:103830006CE2B4F87872BE4536D2B4F87A72BC4500
:1038400032D2D3F820E018B1BEF1090F28DD03E031
:10385000D4F88072774523DCB3F804E0B3F8129013
:10386000CEF3C80E1FFA8EF7C9EB0707012F17DD3D
:103870009F8A019701EB4207B3F810B021F812605C
:10388000A7F802B0BDF804B0A7F804B0A7F80690F6
:10389000A7F808E0B4F86C720137A4F86C7205322E
:1038A0001B680CF1010CC1E770B901EB4A07B4F8D1
:1038B0006C22C8EB020292B239462046FFF7B4F9F7
:1038C00010B10544ADB2F2E70136082E93D1B4F839
:1038D0006C22D4F868122046FFF753F994F8883226
:1038E000284485B283B3B4F86C22D4F868320A2134
:1038F00001FB0233C4F870322046FFF785FC65B146
:10390000B4F86C22D4F868122046FFF717F9B4F81F
:103910006C32181AA4F86C0203E094F88832002B79
:10392000EED10023A4F87C32A4F87E3284F87632FB
:1039300004F5D27504F51A7428461C3505F0D0FB41
:10394000AC42F9D1002002E0002DEAD0D8E703B064
:10395000BDE8F08FFF2928BFFF21FF2A28BFFF22E3
:10396000FF2842EA012228BFFF2042EA00407047B8
:1039700010B5C4B21C60C0F30723C0F30740136046
:10398000086010BD00B589B007AB06AA05A9FFF70E
:10399000EFFF059B069A934238BF1346079A93425E
:1039A00038BF134607EE903AB8EE677ADFED167A25
:1039B000C7EE876A07EE902AB8EE677A27EE267A76
:1039C000FCEEC77ACDED017ADDED067A9DF8042094
:1039D000B8EE677A27EE267AFCEEC77ACDED027A4A
:1039E000DDED057A9DF80810F8EE677A67EEA67AA5
:1039F000FCEEE77ACDED037A9DF80C0009B05DF896
:103A000004EBFFF7A7BF00BF00007F43014B18780E
:103A1000704700BF3D770110014B1878704700BF19
:103A20003A770110014B1878704700BF3B770110BF
:103A3000014B1878704700BF3C770110014B187894
:103A4000704700BF9C88011038B5094D01212868D6
:103A500004F0C0F802210402286804F0BBF82043F7
:103A600004020521286804F0B5F8204338BD00BFE2
:103A7000B088011038B5094D1621286804F0AAF85D
:103A800010210402286804F0A5F820430402002154
:103A9000286804F09FF8204338BD00BFB0880110AB
:103AA00008B5034B0178186804F094F808BD00BF0E
:103AB000B088011038B50568094CEAB220680521C4
:103AC00004F072F8C5F307222068022104F06CF8B4
:103AD0002068C5F30742012104F066F8002038BDD4
:103AE000B088011038B50568094CEAB22068002199
:103AF00004F05AF8C5F307222068102104F054F8A6
:103B00002068C5F30742162104F04EF8002038BDA6
:103B1000B088011038B50B4D02780446242128687E
:103B200004F042F822782868142A86BF143AD2B2E8
:103B30000022252104F038F8034B22781A70002067
:103B400038BD00BFB08801103C7701102DE9F74364
:103B5000134D0646884610220921286804F024F8EF
:103B60000024A146444510DA3719315D7A78286877
:103B700004F01AF8315D286804F02CF87B78834251
:103B800018BFCDF804900234ECE700220921286820
:103B900004F00AF80348FFF7BDFF03B0BDE8F08367
:103BA000B08801103C7701102DE9F041274C074601
:103BB0001321206804F00EF803210546206804F064
:103BC00009F8234A3B78117899420646904633D04B
:103BD00093B905F0F7021321206803F0E5FF06F022
:103BE0007F020321206803F0DFFF40220E212068BE
:103BF00003F0DAFF032214E0012B14D105F0F702E1
:103C00001321206803F0D0FF66F07F02D2B20321B7
:103C1000206803F0C9FF48220E21206803F0C4FF8A
:103C20003322212105E0022B0CD145F00802D2B24B
:103C30001321206803F0B8FF3B7888F8003000209B
:103C4000BDE8F0814FF0FF30BDE8F081B088011091
:103C50009C88011038B50A4C05469721206803F06E
:103C6000B9FF2B781BB140F00A02D2B201E000F09C
:103C7000F5022068972103F097FF002038BD00BFB0
:103C8000B088011008B5044B0A780178186803F071
:103C90008BFF002008BD00BFB088011070B5104E2A
:103CA00005783378AB4219D00E4C5DB92A463821DD
:103CB000206803F079FFE1229621206803F074FF69
:103CC00035700BE010223821206803F06DFFF122DF
:103CD0009621206803F068FF01233370002070BD37
:103CE0003A770110B088011038B50B4C057823786D
:103CF000AB420FD0094B35B9A0221321186803F04D
:103D000053FF257006E01868A522132103F04CFF2D
:103D100001232370002038BD3B770110B0880110CB
:103D200038B50A4D04782B78A3420AD014B91E2165
:103D3000074803E0012C06D106481E21FFF706FFC5
:103D40002C70002038BD4FF0FF3038BD3D7701109A
:103D50005C4D01107A4D011038B50C4615490546E9
:103D600008F04AFF20B92046BDE83840FFF7D2BE30
:103D70001149284608F040FF50B923781BB9FFF7D6
:103D800079FE0E4B18602046BDE83840FFF7ACBF07
:103D90000B49284608F030FF50B923781BB9FFF7CC
:103DA00053FE084B18602046BDE83840FFF776BF49
:103DB00038BD00BF984D0110AA4D0110AC8801100C
:103DC000C34D0110A88801102DE9F04393B0984627
:103DD000BDF86C50BDF87040BDF8689004FB05F369
:103DE00007468B424FF0FF30164611904FD8131103
:103DF00009D108EB0503B3F5A06F4DDC09EB040313
:103E0000B3F5487F15E0012B09D108EB0503B3F5A5
:103E1000207F41DC09EB0403B3F5C87F09E0022BE6
:103E200038D108EB0503B3F5A07F35DC09EB0403BB
:103E3000C82B31DC12A806F00F0300F8053DFFF790
:103E40006FFF002828DB164B0220B3F900200990F1
:103E500011AB00210C9307900590039004231148A7
:103E600001930E910D910B910A940895CDF818903D
:103E7000CDF81080029700960123006801F08DF8BC
:103E8000119848B9084B1F609D80DC8004E06FF0FA
:103E9000010001E06FF0020013B0BDE8F08300BF45
:103EA00038770110F0880110A08801102DE9F04743
:103EB0008AB01E46129D204F90461A882B88069382
:103EC0008A460021099103FB02F102230593049223
:103ED00003931A4A9DF8503008910293B12141236F
:103EE0008DE80C0081460791642339464FF49032E7
:103EF000139800F068FD2988029131880191B8F883
:103F0000001000910446C0F5903100F18050BAF8DD
:103F1000003099F8002000F50020FFF755FF3388A6
:103F20002A88804602FB03423946139800F00BFAB8
:103F300040460AB0BDE8F087000008104241383121
:103F40001FB501240294079C0194069C0094FFF77E
:103F5000ADFF04B010BD000030B5502387B0002481
:103F60008DE81800484A494801234FF48071012523
:103F700002F0BCFE4649454802F022FF2B46454A66
:103F8000019440F202210095434802F0AFFE4049FF
:103F9000414802F015FF0194009404233F4A404831
:103FA000294602F0A3FE2B463E4A0194009440F2BB
:103FB00002213D4802F09AFE35493B4802F000FFDD
:103FC0002B463A4A019440F202210095384802F00B
:103FD0008DFE2F49364802F0F3FE0423019400942D
:103FE0002E4A3448294602F081FE224603A927487A
:103FF00002F054FE22460DF10D01274802F04EFE5C
:1040000022460DF10E01284802F048FE22460DF12D
:104010000F01274802F042FE03A8FFF77BFD0DF1D8
:104020000D00FFF761FE9DF80D4084B9224D2A680E
:1040300032B1234604211A4802F014FE2C6006E037
:1040400004A9174802F02AFE04A8FFF74BFD0DF162
:104050000E00FFF723FE9DF80E309BB99DF80F4030
:1040600084B9164D2A6832B123460421114802F062
:10407000F9FD2C6006E005A90E4802F00FFE05A828
:10408000FFF718FD07B030BDD64D0110984D011057
:10409000C93A0010474E0110AA4D0110B45D01103D
:1040A0008E4E0110984E0110C34D0110094F0110A2
:1040B0008B4F0110AA4F0110AC880110A888011085
:1040C00013B50420FDF79CF96021044603F026FD9A
:1040D000134BA02120461C6003F07CFD28211148D1
:1040E000FFF734FD02A8002400F8014DFFF718FE89
:1040F0000D4B0E49186800F0B9F90D4B0D491868C1
:10410000224600F057FF0C4BA042188003DBFFF75C
:1041100023FF204601E04FF0FF3002B010BD00BF8A
:10412000B088011084590110EC880110BC570110AF
:10413000F0880110845501103877011070B58AB0ED
:104140004BB11C4B01930293039304930593069385
:10415000079308930AE0184C184B194D01930294E9
:104160000393049405950694079308940244DFEDA5
:10417000157A09931646002301A8C5181446002095
:1041800014F801EBF5EC016A07EE10EA0130B8EE25
:10419000477A0328E6EE877AF2D10C33242B0A44BF
:1041A000EAD1FCEEE77A314417EE903A4B700AB050
:1041B00070BD00BFAE47E13DCDCC4C3ECDCCCCBDBB
:1041C00000004040000000002DE9F84305460E467F
:1041D000174698460024A0F10209AC420ADA4C4581
:1041E00006DA3A19434692B229463046FFF7A6FF4F
:1041F0000134F2E7BDE8F8832DE9F0419DF818702D
:1042000005460E46002403EB02083388A2B29A4208
:104210000CD2023B9A4207DA288812FB00F23B4696
:1042200092B24146FFF7D0FF0134EEE7BDE8F081DE
:10423000024B00221A60DA809A807047A088011031
:1042400070470020704710B50023934203DACC5C1E
:10425000C4540133F9E710BD90F83B007047836800
:1042600013B14360002383607047F0B5002351F819
:10427000232004689E008F19002A32D0092B30DCDD
:10428000251D12F8012C0560256815B96FF0020094
:10429000F0BD12F0800F12D102F00F02012A03D1FB
:1042A0008A5912782A701AE0022A03D18A59128890
:1042B0002A8014E0042AE9D18A59126802E0A12A6E
:1042C0008A5901D12A600AE012682A6004F10802C2
:1042D000026062680133002AD8D07C681460013320
:1042E000C5E7231D036020680028CFD1F0BDF8B5D5
:1042F00090F83B3005460E4617460BB98A061FD587
:10430000EC6824B9330606D54FF0FF300EE04FF0CD
:10431000FF3000240AE00020F8BD2B683A46DB6835
:104320003146284698470028F5D0013495F83930B1
:10433000A342F2DC002805DA002385F83B30F8BD03
:104340006FF00500F8BD10B504468068636810B9C9
:10435000A360616001E08B420FD1236AD21AE26050
:1043600094F83A2062B918212046FFF7C0FF0246B0
:104370002046FFF774FF104610BD6FF0040010BD1B
:10438000002010BDF8B5858E0E4940352F0104463A
:1043900038460CF0A5F9064688B13A46002108F0E7
:1043A00077FBA28E216B1201304608F0D7FA206B02
:1043B00008B1FDF72BF82663A5860020F8BD6FF045
:1043C0000400F8BDF8710110F8B506460F46002547
:1043D000ACB2B28E23B2934208DA1B01326BD058D2
:1043E00038B1394608F008FC18B904E04FF6FF74FC
:1043F00001E00135ECE720B2F8BDF8B504460D4602
:104400001646FDB129462046FFF7DEFF002812DAE6
:10441000B4F834E00027B8B203B2734505DA1A01E4
:10442000216B8A580137002AF5D1734503D1204604
:10443000FFF7A8FFE5E7226B03B21B01D118D550A7
:104440004E6001E04FF6FF7000B2F8BD38B505468A
:104450001C46FFF7D2FF0028A1BF2A6B02EB001019
:10446000C4600020B8BF4FF0FF3038BD38B50546F6
:1044700001F1080454F8081C39B1234654F8042CFF
:104480002846FFF7E3FF1834F4E7084638BD4185B6
:10449000704738B504461546FFF796FF236B2A8808
:1044A00003EB00131A8138BD437E70B5054613B186
:1044B0006FF0040070BD11B94469803401E001F16E
:1044C0008004094920460CF00BF906460028EFD07D
:1044D0006A69696808F042FA686808B1FCF796FFF3
:1044E0006E606C61002070BDF87101102DE9F04F15
:1044F000884685B01F46054640B190F83A30006ABC
:1045000013B100F1040902E0814600E08146012375
:10451000C9EB020A01933B6893F800B01A1D3A6098
:10452000BBF1000F00F0DE800BF0BF02012A09F1A1
:10453000010408EB090608F809B008D13A68111D12
:104540001268396009F1020608F80420B0E0022A76
:1045500012D13A68E60748BF24F0010402F10401D1
:1045600048BF0234396008EB0401128801F801BC2D
:10457000A61C28F804209BE0042A02D0BBF1640F9B
:1045800011D13A68A00718BF24F0030402F1040116
:1045900018BF0434396008EB0401126801F801BC4B
:1045A00048F8042016E0142A16D13A68073222F09F
:1045B000070202F108013960D2E9000107F064FC4A
:1045C000A1071CBF24F00304043408EB040202F822
:1045D00001BC1060261D6BE0A12A23D13A68111D91
:1045E000396013680293184608F0D2FC421CA618E2
:1045F000AAF108018E420FD915B96FF0040075E0D9
:10460000314628460392FFF74FFF00286EDBD5F8AE
:104610000480D5F814A0039A029908EB040008F06E
:104620009DF945E012065FD53968081D38600868B5
:104630000BF0300130290BF00F0201BF00230BF00B
:104640008F0B86F800B00193A3071CBF24F003046E
:10465000043408EB0401261D01F801BC511E31424F
:1046600018BF5142019B48F804001CBF0E40B61809
:10467000F3B100FB02F3F418AAF1080294420DD939
:104680000293002DB9D021462846FFF70DFF0028E0
:104690002CDBD5F80480D5F814A0029B39680A1DDC
:1046A0003A6008EB06001A46096808F057F92646F2
:1046B0002DB1AA7E1AB91BF0400F18BF4E46AAF1C1
:1046C00008039E4201D8B14625E7002D95D031461A
:1046D0002846FFF7E9FE002808DBD5F80480D5F866
:1046E00014A0F0E7484601E06FF0020005B0BDE815
:1046F000F08F0B4610B5426941680446FFF7F6FE9D
:104700000028A1BF236AC01AE060002010BD0EB4CB
:10471000F3B59DF81C5090F83A60C768182D08BF93
:10472000002302A908BF80F83A3008AB41F8043DE5
:104730000446FFF7DEFF182D03D094F83A3033B962
:1047400028B9002218212046FFF7D1FDE76084F840
:104750003A6002B0BDE8F04003B070472DE9F34184
:104760000D880368003518BF01250E46044629460A
:104770001B6890469847338884F83B50E38698F846
:104780000030003318BF012300210746A3760191B2
:10479000E37E009101222046FFF7B9FF384602B0C0
:1047A000BDE8F08170B5B1F90020838E066B88B04A
:1047B00000249A4205468DF81F4012DA1301F118C1
:1047C000F35873B1C96861B105940494CA6803923F
:1047D000A1220191029200922146FFF798FF204604
:1047E00010E000210DF11F001301A12203900190A0
:1047F0000591049102920092F3582846FFF787FF33
:104800004FF0FF3008B070BD2DE9F0431C46042383
:10481000C36001F0200389B005468846914603F045
:10482000FF06BBB10123A02980F83A3004D194E8F7
:104830000600FFF72EFEA2E0A12904D194E80600AD
:10484000FFF78CFF9BE0A22940F097802168FFF7DB
:10485000A9FF94E0182905D1036821469B68984771
:104860003046ADE0838E9A4280F2A680002AC0F2E4
:10487000A380036B03EB02135F68002F00F09C80A2
:104880003046C3B2013054F82320002AF9D1012266
:1048900085F83A2013B92846B84770E0012B03D1B8
:1048A00029462068B8476AE0022B04D12A4694E8DA
:1048B0000300B84763E0032B04D12B4694E80700BC
:1048C000B8475CE0042B04D1009594E80F00B8478A
:1048D00055E0052B06D123690093019594E80F005C
:1048E000B8474CE0062B08D1636901932369009314
:1048F000029594E80F00B84741E0072B0AD1A3695D
:1049000002936369019323690093039594E80F0070
:10491000B84734E0082B0CD1E3690393A3690293F1
:104920006369019323690093049594E80F00B847E5
:1049300025E0092B0ED1236A0493E3690393A3694D
:1049400002936369019323690093059594E80F002E
:10495000B84714E00A2B10D1636A0593236A0493C5
:10496000E3690393A3690293636901932369009345
:10497000069594E80F00B84701E04FF0FF305FFA6A
:1049800088F8002318F0800F85F83A3017D06A684D
:104990002B6AD0502B6B03EB091308F03F01B3F9DE
:1049A000082041F040012846FFF7A1FC02462846B6
:1049B000FFF755FC104603E04FF0FF3000E0002009
:1049C00009B0BDE8F0830CB413B504AC02AB54F8E5
:1049D000042B43F8044DFFF789FD02B0BDE81040F9
:1049E00002B070472DE9F84307468846154602F1A4
:1049F0000A0916460024731B4445DBB22CD24E45EF
:104A00002ED03A5D06F8012B110604F1010002F0E8
:104A10000F0307D45A1E02421EBF5A421040C0184C
:104A20001C18E8E702F0BF02A12A05D1384408F0BB
:104A3000AFFA02340444DEE782071CBF20F0030013
:104A400004305A1E3C58043002421EBF5A421040E5
:104A5000C01804FB0304CEE70020E854BDE8F88347
:104A60004FF0FF30BDE8F8832DE9F0414FF000082A
:104A700004460E4615464746B04542D20A2F46D058
:104A800014F8082012F0800F08F1010002F00F0165
:104A90000FFA87FE0BD14B1E03421EBF4A42104045
:104AA0004018231845F82E3001EB000826E002F0EC
:104AB000BF02A12A08D1204445F82E0008F068FA68
:104AC00008F10208804419E083071CBF20F00300AE
:104AD000043004EB000C225845F82EC004307B1C37
:104AE0004F1E07421CBF4F423840DBB218BF401870
:104AF000271845F8237002FB01081F467B1CDFB214
:104B0000BAE73BB2002045F82300BDE8F0814FF042
:104B1000FF30BDE8F08110B58CB0144601AAFFF754
:104B2000A3FF002803DB01A92046FFF79EFB0CB082
:104B300010BD10B500234418A04204D010F8012B7A
:104B400013449BB2F8E7581880B210BD38B54368DB
:104B500004461971104818606168E06AE3688B6068
:104B60000368CA801D68638D4022A847002812DBB5
:104B7000E268236A1A44402A0CD9637E53B9E06A7A
:104B800061680368403A1D68638D4031A84700EAB8
:104B9000E07038BD002038BD5555AAAA13B50346AC
:104BA00009B1592200E09522D86A8DF807200268E1
:104BB0005B8D14680DF107010122A0470028B4BFE6
:104BC0006FF06500002002B010BD00002DE9F74332
:104BD0000446C06A904602680F46556803B1A38C2C
:104BE00001220DF10501A847051E63DB02D14FF03C
:104BF000FF355FE0DFF8C49000269DF80530E06ADD
:104C00001B0643EA16264E45238D026808D05568D8
:104C10000DF105010122A847051E4BDBEDD1E6E7AA
:104C200056686168226AB047002841DB236A9D42CA
:104C3000DDDB63681B783B706768256A7B887E686C
:104C4000A8F800302946E6603846FFF772FFC5F144
:104C500040058046E06AAE4228BF2E46036806F152
:104C600002095D68238D4A463946A847051E21DBA7
:104C70004D45BCDB6168022231440DF10600FFF7AF
:104C8000E2FA31466068FFF754FFBDF80630404451
:104C9000834206D1266101212046FFF77FFF0025D0
:104CA00008E000212046FFF779FF6FF0010501E0E1
:104CB0006FF06405284603B0BDE8F0835555AAAAF5
:104CC0002DE9F843DFF88C900446884617461E46C7
:104CD000E06A616803685D680EB1A38C00E033464A
:104CE0004022A847051E19DB032DF1DD63681A6811
:104CF0004A45EDD11B7988F800306368DA889968F5
:104D0000236A3A80E16019446369994209D92046CF
:104D1000FFF7CAFB002804DABDE8F8832846BDE89F
:104D2000F883E668236A1E44B54201D2637E2BB144
:104D30000020BDE8F8830544AE42F9D9E06A616815
:104D40000368721B5F68238D2944B8470028F2DA94
:104D5000BDE8F8835555AAAA2DE9F347036AC1684F
:104D60001944436903319942044605D9FFF79CFB76
:104D7000061E01DA304659E00027B8462169E56889
:104D8000A94249D2E38ED4F82CE060686D1A9D42A6
:104D900028BF1D46DEF800300144D3F80490E38CB0
:104DA000EA1C7046C847002838DBAB1CB34238DA2F
:104DB000236961682B44022211F803A001331944CE
:104DC0000DF10600FFF73FFAD4F810906068691CF7
:104DD0004844FFF7AEFEBDF8063083420FD1D04500
:104DE00002BF4D4408F1010825614FF00101204642
:104DF00008BF5FFA88F80027FFF7D0FEBEE7002162
:104E00002046FFF7CBFE7B1C94F83820DBB29A4299
:104E10000AD90237FFB2B1E7002007E06FF0640063
:104E200004E04FF0FF3001E06FF0030002B0BDE896
:104E3000F0872DE9F84304460F4690461D469DF83D
:104E40002090FFF70CFA067E26B14B46FFF738FF9D
:104E500016E001364B46424639462046FFF7B6FE7D
:104E6000831C07D194F838309E42F2D36FF00300D0
:104E7000BDE8F88308B1BDE8F8832046FFF76CFF72
:104E8000D8B93B78206A13F0400F0ED063681844FD
:104E9000042200F8042C6168236A0B4403F8012CF7
:104EA000E368206A13440438E3606368E1682A46D3
:104EB0001844BDE8F843FFF7D7BDBDE8F8832DE9F6
:104EC000F0414FB290B0002F04460D469046049337
:104ED00003DB90F83B30002B5AD000262046E660DA
:104EE000FFF7BDF904A92046FFF703FC002851DBBA
:104EF000002FAABF80238DF80D508DF80D3042464B
:104F00009DF80D102046B8BF3546FFF7F0F9002890
:104F100040D1E9073AD4E06A03689B68984705AE38
:104F2000012300930DF10E0233460DF10D012046D1
:104F3000FFF77FFF70BB9DF80D104A0610D4236861
:104F4000BDF90E205F6820463346B847E06A036823
:104F5000DB689847A38C9842E2D96FF0640019E0AF
:104F6000AB070DD5049B1A1D04921A68002AF9D0CC
:104F7000002356F8231042F8231039B10133F8E723
:104F8000314604A8FFF771F9002803DB002001E097
:104F90006FF0050010B0BDE8F0810CB407B504ABAC
:104FA00033F9042B0193FFF78AFF03B05DF804EB9C
:104FB00002B0704730B5044689B00D4612B1FFF714
:104FC0001CFA01E04FF6FF7007AB0022049300B219
:104FD000022302900193059203920095A123A02140
:104FE0002046FFF7DAFF0028ACBFBDF81C004FF6E3
:104FF000FF7000B209B030BD30B500228BB004465E
:105000000D4609B1C38E00E00B4606920DF1230157
:105010000392E27E0591029209A901220491019274
:10502000009300220223A1212046FFF7B6FF0028AB
:1050300008DB9DF82330099884F83B50003318BFF3
:105040000123A3760BB030BD10B504460B68E162B6
:1050500008461B6900219847C0F340002076E06AAB
:10506000036800211B69984700F001006076E06A40
:1050700003685B699847237EE0860BB10C2300E050
:1050800008232362637E63B1E06A036801211B6920
:1050900098476060E06A036802211B699847606175
:1050A00005E08020606106490BF01AFB6060207FFC
:1050B00028B120460121BDE81040FFF79DBF10BD7B
:1050C000F871011070B51E46184B036004460323A7
:1050D00080F8383080F8393000254FF47A738384B3
:1050E000C56205764576456085604FF4FA70638544
:1050F0004023E0842085E17622770D4984F83A50F8
:1051000084F83B50A576A3864FF480600BF0E8FA54
:10511000A28E20631201294607F0BAFC1EB1314667
:105120002046FFF791FF204670BD00BFB459011023
:10513000F8710110F0B505468FB00E46002400232B
:1051400000930DF10A0203AB0DF109012846FFF7A8
:1051500070FE58B92B68BDF90A205F689DF80910E8
:1051600003AB2846B8470EB10134E8E720460FB03C
:10517000F0BD37B5C06A03680C465D680DF10701E4
:1051800013460122A84700280ADB0CD09DF80730FF
:10519000592B4FF0000006BF01232370207004E05C
:1051A0006FF0640001E04FF0FF3003B030BDF7B5A1
:1051B00002AE002306F8043D04462169E568A942D1
:1051C0004AD2E38ED4F82CE060686D1A9D4228BF65
:1051D0001D46DEF8003001441F68638D2A46704684
:1051E000B847002802DA6FF0650036E0E06A03682D
:1051F00001221F68638D3146B8470028F3DB23691D
:10520000606829461844FFF794FC012107463046A0
:10521000FFF78FFC3844ADF80600E06A036802220D
:105220001F68638D0DF10601B8470028DBDBE28CB7
:105230000DF105012046FFF79CFF00280DDB9DF8CE
:105240000530002BB9D023691D449DF80430256139
:1052500001338DF80430B0E7002003B0F0BD00004A
:10526000F7B504460E46C06A2A4B02A9154641F816
:10527000043D036804221F68638DB847002846DB9D
:1052800063681E706168E06AE3684B6003684D8084
:10529000226A1D68638DA847002838DB6668216A8A
:1052A0003046FFF746FCE568ADF80200E06A402DA5
:1052B000036828BF40251F68638D2A463146B847DA
:1052C000002802DA6FF0650021E029466068FFF7E8
:1052D00030FCBDF8023002A9184421F8060DE06A3E
:1052E000036802221E68638DB0470028EADBA28CA7
:1052F0000DF101012046FFF73CFF002807DB9DF878
:10530000013013B12561002001E06FF0010003B00E
:10531000F0BD00BF5555AAAA037E70B504460D46E0
:1053200016461BB1BDE87040FFF710BC3246294657
:105330002046FFF795FF821CF8D020B92046BDE833
:105340007040FFF734BF70BD09B100230362C2692A
:1053500082B1036A11688B4220DA926802EB830102
:1053600032F823204988028101330422418182815D
:10537000C28103620023436103614389B0F90410D1
:1053800043F001039AB2038943F001039BB201FB8E
:105390000233026813448361012070470020704784
:1053A00038B500230360C3808380C38183810446B2
:1053B0004381038103C984E803001068516804F144
:1053C000080503C5E36101212046FFF7BDFF204624
:1053D00038BD002310B50360C38083800446C381B9
:1053E00083814381038103C9E26184E803000121D1
:1053F0002046FFF7A9FF204610BD2DE9F0414FF0F0
:105400000008838904699C420AD34369B0F90440C7
:10541000C0F8108002334361836903EB4403836166
:10542000C38944699C4234D286690369F518F45CE7
:1054300015F801CCB0F904505D1B16F805E03544B1
:1054400015F8013C2AB10CEB0E056D101470557067
:1054500093700569C1B104EB0C071F44252F02DCD2
:1054600002350561CDE704EB0E061E44252EF7DD5F
:10547000CCEB0404CEEB0303E403DB0394FBF7F46F
:1054800093FBF6F30C604B60023505610120BDE82B
:10549000F0810020BDE8F081C36970B504460D4677
:1054A000164653B1FFF7A9FF58B901462046FFF74A
:1054B0004BFF30B1324629462046BDE87040FFF729
:1054C0009CBF70BD2DE9F3470DF108090024884603
:1054D000012182468DF806408DF8054009F8044DFB
:1054E000FFF732FF2646254627464A46002150460A
:1054F000FFF7D2FF50B19DF804301F449DF80530EE
:105500001D449DF8063001341E44EEE7B7FBF4F766
:10551000B5FBF4F5B6FBF4F0B8F1000F01D0C8F814
:1055200000402D0245EA0745284302B0BDE8F08758
:105530002DE9F04F8BB00AAF0691002401210698A7
:1055400009941546994647F8084DFFF7FDFE0021DE
:105550000022CDE90212CDE9001223460594A046AF
:1055600026460022394606980793FFF795FF079BCA
:10557000824628B308992A68E86891426A68C8BFD9
:1055800008F101089142BEBF059A01320592099ABD
:10559000DDE900AB82422869C8BF01338242B8BF4F
:1055A00001341AEB010A4BEBE17BDDE902018018C3
:1055B00041EBE271CDE900ABCDE902010136D0E764
:1055C00007EE906AB8EE677A07EE908AF8EE677A8F
:1055D0003246C7EE876ADDED057AC9ED006AF8EE5E
:1055E000677AC7EE876A07EE903AF8EE677AC9EDF8
:1055F000016AC7EE876A0346DDE9000107EE904ABB
:10560000F8EE677AC9ED026AC7EE876AC9ED036AE8
:1056100006F08AFC3246A8605346DDE9020106F036
:1056200083FC68610BB0BDE8F08F2DE9FF410023DA
:105630000746884614461361D360536013601F26E3
:105640004FF080456B46224641463846FFF770FFD3
:10565000D7ED5E7A9DED007A2368B4EEE77AF1EE3D
:1056600010FA9DED017ACCBF5B195B1BF4EEC77A93
:10567000236063689DED027AF1EE10FA4CBF5B1B6C
:105680005B19F4EEC77A6360E3689DED037AF1EE8F
:1056900010FA4CBF5B195B1BE360F4EEC77A236919
:1056A000F1EE10FA4CBF5B1B5B19013E23614FEA20
:1056B0006505C7D104B0BDE8F0810139C9B206293A
:1056C00070B55AD84B01C2180344D2699D68012AAB
:1056D00001F1600200EB8202D2ED017A08BF90ED89
:1056E000607A4FEA41124FF0140404FB0104815820
:1056F00008BF67EE877A491B07EE105A06EE901A2C
:10570000B8EEC77AF8EEE66AB0EE476AA7EEA66A88
:105710008618D9685869FDEEC66A091AC4ED386A58
:105720007268521B06EE902AF8EEE66A1A69A7EE36
:10573000A67A121A06EE901ABDEEC77AF8EEE66A5D
:1057400084ED397A07EE100AB8EEC77A9869B0EEA0
:10575000476AA7EEA66AFDEEC66AC4ED3A6A06EE8F
:10576000902AF8EEE66AA7EEA67ABDEEC77A84ED37
:105770003B7AFEF707F9C4F8F00070BD70B55C1E07
:105780001E46E3B2062B8AB0054615D801A8FFF7DE
:1057900007FE06F10062013A05EB421201A9284614
:1057A000FFF743FF05EB441200242846D46131463D
:1057B000FFF783FF204601E04FF0FF300AB070BDD5
:1057C0004B1E062B9DBF01F1006101F1FF3100EB83
:1057D000411000207047F8B54C1EE3B2062B064678
:1057E0000F460ED8154600EB44140FCD0FC495E8B4
:1057F0000F0084E80F0030463946FFF75EFF0020B7
:10580000F8BD4FF0FF30F8BD002330B51C46D0F88E
:10581000702109B9D15403E0D55C8D4208BFD4543E
:105820000133B3F5805FF2D130BD2DE9F74F002190
:105830000446FFF7E9FF0125E9B220460135FFF7ED
:105840003CFF082DF8D100200023C3EB00094FEAEC
:10585000C932C9F3C50900924FEA891201920025A5
:1058600003EB000BD4F86C210BEB05018A4204DD3D
:105870000435B5F5807FF5D139E0C3EB0508009A12
:1058800092FBF1FC4FEAC83292FBF1F1019AC8F3A6
:10589000C50802EB080AA64622460126DEF800707B
:1058A00017B9DEF80470D7B1D2F8E070674516DAA0
:1058B000D2F8E470674512DDD2F8E8708F420EDA54
:1058C000D2F8EC708F420ADDD4F8701111F80A702A
:1058D0000FB1B74201DD01F80A604146CC460136FE
:1058E000082E0EF1200E02F11402D7D1C0E70433C6
:1058F000B3F5807FA9D10430B0F5807FA4D100201A
:1059000003B0BDE8F08F000010B500F1200304469D
:10591000002200F5807043F8042C43F80C2C43F867
:10592000102C43F8142C43F8182C43F81C2C43F883
:10593000202C20338342EED1C4F87011E0220021E4
:10594000204607F0A5F88C22002104F1E00007F0C2
:105950009FF800212046FFF757FF4C23C4F86C3115
:105960004FF07A53C4F87C314FF4FA63C4F87431C1
:10597000084BC4F8783108494FF07F53C4F88031A0
:1059800004F5D07204F5C27343F8041B9342FBD1B3
:10599000204610BD6666663F0000204043B90A8875
:1059A000032A2ED9043A0A808A8804328A8024E0A5
:1059B000012B08D14A88032A1FD9CB88043A043323
:1059C0004A80CB801BE0022B0AD188880B88B2F971
:1059D000042003440333934213DA043088800EE03A
:1059E000032B0CD1C8884B88B2F90620034403333B
:1059F000934206DA0430C88001E018467047002060
:105A00007047012070472DE9F04710468CB0002404
:105A10000A46014603A89A4602940194FFF7C0FC87
:105A200000260027B046B946002201A903A8FFF7C7
:105A300033FD054650B1019B18EB030849EBE379B0
:105A4000029BF61847EBE3770134EDE72246034665
:105A50004946404606F068FA2246CAF800002B463E
:105A60003046394606F060FACAF804000CB0BDE8CA
:105A7000F0874B1E062B9CBF00EB8100C0F88021F5
:105A80007047C0F874117047DFED077A07EE101AFF
:105A900067EE277AFCEEE77A17EE903A03B9012316
:105AA000C0F86C31704700BF00403F44C0F880111F
:105AB00070470139CBB2062B9ABF00EB4110C06989
:105AC000002070472DE9F041436805689D42044677
:105AD0000F4632D105F11008B8F1FE5F94BF4FEACE
