:020000041400E6
:1000000000800020D101001491010014930100141C
:1000100095010014970100149901001400000000DC
:100020000000000000000000000000009B01001420
:100030009D010014000000009F010014A1010014A4
:10004000A3010014A3010014A30100140000000088
:10005000A3010014A3010014A3010014A3010014C0
:1000600069860010A3010014A3010014A301001469
:10007000A3010014A3010014A3010014A3010014A0
:10008000A3010014A3010014E9180010A301001437
:10009000A3010014A3010014A30100148D23001078
:1000A000ED240010A3010014A3010014A301001407
:1000B000A3010014A3010014A3010014A301001460
:1000C000A3010014A3010014A3010014A301001450
:1000D000A3010014A3010014A3010014A301001440
:1000E000A3010014A3010014A3010014A301001430
:1000F00000000000A3010014A3010014A3010014D8
:1001000000000000A3010014A3010014A3010014C7
:10011000A30100146899011408750110FC0800007F
:100120009877011400000020000000009877011467
:1001300000000810000000009877011400800020E3
:10014000D02100006899011400C0002000000000C8
:1001500090020014000000106872010000000014FA
:10016000000000101401000000800110440B00008A
:100170000000002000000000000008100000000047
:10018000D0A100200000000000C0002000000000FE
:10019000FEE7FEE7FEE7FEE7FEE7FEE7FEE7FEE737
:1001A000FEE7FEE710B50B46401A5C1AA24203D9DF
:1001B000C45843F8044BF8E710BD10B503460022BD
:1001C0001C1AA14202D943F8042BF9E710BDFFFF26
:1001D00038B572B61B4B1C4A1A601C4A5A601C4A3E
:1001E0004FF0FF33136053609360D360136153612A
:1001F0009361D36162B6174C174DAC4201D3174DD2
:1002000007E094E803000C3454F8042CFFF7CAFF0D
:10021000F3E7AC4206D254F8080B54F8041CFFF77D
:10022000CCFFF6E7DFF84000016841F4700101609F
:100230000B4B1A680AB10B4A136000F021F800F06A
:1002400017F8FEE7003105400010DF10FFF7DF016F
:1002500080E200E014010014680100149001001411
:100260000000001008ED00E088ED00E0FFFFFFFF58
:1002700001B40248844601BC604700BF1D1A00104B
:1002800001B40248844601BC604700BF45BF00106E
:10029000000000000000000000000000000000005E
:1002A000000000000000000000000000000000004E
:1002B000000000000000000000000000000000003E
:1002C000000000000000000000000000000000002E
:1002D000000000000000000000000000000000001E
:1002E000000000000000000000000000000000000E
:1002F00000000000000000000000000000000000FE
:1003000000000000000000000000000000000000ED
:1003100000000000000000000000000000000000DD
:1003200000000000000000000000000000000000CD
:1003300000000000000000000000000000000000BD
:1003400000000000000000000000000000000000AD
:10035000000000000000000000000000000000009D
:10036000000000000000000000000000000000008D
:10037000000000000000000000000000000000007D
:10038000000000000000000000000000000000006D
:10039000000000000000000000000000000000005D
:1003A00000000000002070470020704708B5F022D0
:1003B00002230321012005F029FF064B04229A6243
:1003C0004FF48062C3F81822A3F5003308225A6064
:1003D000002008BD0010104010B5054B00245C60E3
:1003E000F02205230321012005F010FF204610BD57
:1003F00000100E401E4B70B50021054618681D4EBA
:1004000002F06DFB044648B32A7902235AB14188B1
:100410008088401A90FBF3F3194409044FF4A07349
:10042000B1FBF3F30BE0C2880089801A90FBF3F173
:100430000A44C2F1C8021204C823B2FBF3F34FF618
:10044000C0721A400C4B1A606B7913B9642006F025
:1004500011F94FF48063C6F8143203E0064BC6F876
:1004600014021860003418BF01246C71002070BDA4
:10047000048001100010104000100E400171704700
:1004800008B5082001F010F8044B03600123037144
:1004900000234371024B186008BD00BFF033011008
:1004A0000080011000B52DED028B884208EE103A55
:1004B000034628BF0B4687B0934228BF13460291DC
:1004C000C91A03904943C01A019200FB0010D21AC6
:1004D00002FB020007EE900AF8EE677A17EE900A28
:1004E0000BF0C4F911F0F2F80BF026FC1E2804D82A
:1004F000092803D80023059310E01E20DFED287A99
:10050000B8EE488A28EE278A07EE900AF8EEE77AD6
:1005100028EE278ABCEEC88A8DED058A059BB3F5C7
:100520007A6F88BF4FF47A6305A888BF059305F0FA
:10053000D9FC019A0299039803F040FA03F056FAA5
:1005400001AB02AA03A903F047FA0399029A019B9F
:10055000914203D9994201D912480AE0914203D24B
:100560009A4201D9104804E0994204D29A4202D238
:100570000E4806F03FFD039B8DF8113006AA029B42
:100580008DF81230019B02F8053D0DF112010DF1BD
:10059000110005F07DFC07B0BDEC028B5DF804FB9B
:1005A0008FC2753C7A600110043401100A340110C6
:1005B00013B501A80C4606F0A5F8019806F0A8F8B6
:1005C000A042FAD306F008FD02B010BD13B50446F0
:1005D00002A8002340F8043D05F06EFC4EF66021B1
:1005E0002046FFF7E5FF6078034B03EB800005F042
:1005F00063FC02B010BD00BF283D011037B50024D8
:1006000005464470047202A840F8044D05F054FCFD
:100610002C70024806F0EEFC03B030BD0F34011020
:1006200010B50446FFF7EAFF024806F0E3FC204657
:1006300010BD00BF153401102DE9F34100240F4E09
:10064000054688462746444514DA01A8019705F077
:1006500033FC4EF660212846FFF7AAFF687806EBC8
:10066000800005F029FC4EF660212846FFF7A0FF28
:100670000134E8E702B0BDE8F08100BF283D011079
:100680001FB504460F4806F0B5FCA023ADF80830AE
:1006900004AB0022642123F8061D03920092611C22
:1006A00002AA03A800F088FE002808DB064B0121FF
:1006B000186801F0BBF904212046FFF7BDFF04B024
:1006C00010BD00BF1C340110EC8001104378072BD3
:1006D00001D8FFF77BBF70472DE9F0470F4604466E
:1006E0002B4806F087FC012F4FDDDFF8A880DFF8EC
:1006F000A890261D05F0C8FF054606F06DFC94F88D
:1007000000A0BAF1010F0AD003D3BAF1020F18D03A
:1007100037E0304605F0F6FF012323702DE055B198
:10072000304605F0EFFF84F801A02046FFF74EFFAA
:1007300002232370DEE7606805F0EAFF4045D9D95F
:1007400001E055B9657804212046FFF775FF204682
:10075000FFF754FF2846BDE8F087606805F0D8FF32
:100760004845C7D9304605F0CDFF63780133DBB289
:100770007A1C934208BF012363702046FFF7A6FF4F
:10078000B8E72046FFF73AFFB4E70020BDE8F0875E
:100790002934011060E3160040420F002DE9F041BA
:1007A000436805689D4204460F4632D105F11008A2
:1007B000B8F1FE5F94BF4FEA88004FF0FF301A494E
:1007C000A6680FF08DFE60B10F3503460022013D93
:1007D000A91C03F1040304D023F8022C23F8042CF1
:1007E000F5E7A06008B1002304E0A6604FF0FF30F9
:1007F000BDE8F08122689A4205DD56F8232040F8D2
:1008000023200133F6E7C4F8048016B1304600F027
:1008100051FE2368A268591C2160396842F82310F0
:100820000020BDE8F08100BF007001102DE9F0410B
:1008300092B01023002440200793069400F036FE67
:10084000031D00F1440223F8024C23F8044C043346
:1008500093424FF00007F6D1334D08902968B5F95F
:100860000630B5F904200978304806F0C3FB0420AF
:1008700000F01AFE014604460780478006A8FFF7ED
:100880008DFF204600F014FE042000F00DFE04242D
:10089000014606460480448006A8FFF77FFF3046E5
:1008A00000F006FE204600F0FFFD4FF0C4080146B0
:1008B0000646A0F80080A0F8028006A8FFF76EFFA9
:1008C000304600F0F5FD204600F0EEFD01460646FC
:1008D000A0F80080478006A8FFF760FF304600F0D0
:1008E000E7FD03230093124B22461B68214606A80E
:1008F00000F0FEFC06AA294609A804F024FD05A97B
:1009000009A804F099FD04AB03AA02A903F064F856
:1009100002A80FC8FFF7C6FD089808B100F0CAFD8D
:1009200012B0BDE8F08100BFA08001103734011083
:10093000EC80011030B5044689B005F0A5FE237A9D
:1009400005460BB321238DF8153000230293ADF833
:100950001630ADF81830694B4FF4A0721B68ADF833
:100960001A200193C82207ABADF81C20009306AAF9
:100970000DF11A030DF116010DF1150003F0CAFA7D
:100980002046FFF753FF1FE02278EAB1ADF816309A
:10099000ADF818304FF4A073ADF81A30C823ADF895
:1009A0001C3001230293554B1B680193212207AB96
:1009B0008DF81520009306AA0DF11A030DF116010A
:1009C0000DF1150003F0A6FA2378052B00F28D80B7
:1009D000DFE803F003193159678A002D00F08880A1
:1009E000201D05F08FFE464B08AD1B8845F8043DE1
:1009F000284605F077FA0123237028460023079341
:100A000005F05AFA74E00DB9257071E0606805F0E0
:100A10007FFE3C4B98426BD903F032F810B10123B2
:100A2000637000E06070201D05F06CFE2046FFF74B
:100A30004DFE02232CE095B903212046FFF7FCFD73
:100A4000201D05F05FFE627801232AB908A800F88E
:100A5000043D03F057F900E02372032318E06068B7
:100A600005F056FE284B984242D9201D05F04AFE5B
:100A700063780133DBB2082B08BF00236370204684
:100A8000FFF724FE34E02DB1201D05F03BFE0423CA
:100A900023702DE0606805F03BFE1C4B984227D97F
:100AA00023E07DB963784BB908A800F8045D03F032
:100AB00029F904212046FFF7BFFD16E02046FFF785
:100AC000DFFD12E0606805F023FE0E4B98420FD95F
:100AD000637823B908A800F8043D03F013F9204611
:100AE000FFF78CFD0523D3E715B92046FFF786FDF8
:100AF0002078003018BF012009B030BDEC80011013
:100B00000C800110D012130040420F0000879303A5
:100B100030B50468013A234608681D1BA84204D971
:100B200012F8010F03F8010BF6E730BD07B50022FC
:100B300001A9054806F024F8044B0199186804F04F
:100B40005AFF03B05DF804FB283501100480011042
:100B500013B5074C07480022214606F011F802A8F9
:100B6000238840F8043D05F0BDF902B010BD00BF78
:100B70000C8001104235011008B50378532B08D1C1
:100B8000837A0A68303BD9B20B4B186804F02BFF0C
:100B900006E04D2B04D1084B0968186804F02EFFBD
:100BA00000F02AFF38B1044B186804F0F8FDBDE8E6
:100BB000084000F02BBF08BD0480011030B5114D76
:100BC0008BB001242246104902A80BF023FF00231A
:100BD00001AA694602A805F0D3FF002810DBE1B2A4
:100BE000019A2868013404F0B0FD082CEAD1054BC5
:100BF000186804F0D4FD054B186806F003FD0020CA
:100C00000BB030BD04800110513501100880011077
:100C1000F0B597B0074618881C9B1288ADF80C20D9
:100C20000C4619881D9BADF80E001B88ADF81230DC
:100C30002378ADF810105A1E062A37D81D4E326898
:100C40002AB91D4806F0D6F96FF0010030E01B4DBF
:100C500003AA3146286804F04BFD2178286804F087
:100C600069FD3B68C361054603AA31460DA804F03F
:100C700051FB00210DA804F0DFFBA8612278104988
:100C8000002405A80BF0C6FE2B46202281210094EB
:100C900005A805F059FFFFF791FF0A4806F0AAF9E9
:100CA0001E98012100F0C2FE204601E04FF0FF3007
:100CB00017B0F0BDA08001105D3501100480011057
:100CC000513501107635011070B5037892B0013BB3
:100CD0000024062B05460E4611940F940E940D9495
:100CE0000C940B940A941BD8214620220AA80BF0DE
:100CF0002DFE2A780C4902A80BF08CFE0AAB2022AC
:100D00008121009402A805F01FFF0446FFF756FF5B
:100D1000FFF754FF3046012100F088FE204601E035
:100D20004FF0FF3012B070BD51350110F0B593B0E7
:100D300012AE002446F8204D0746202221463046B8
:100D400011940F940E940D940C940B940BF0FEFDE3
:100D500001252A460C4902A80BF05CFE009433469C
:100D60002022812102A805F0EFFE002809DB0135D1
:100D7000082DEED1FFF722FF3846012100F056FE84
:100D8000002013B0F0BD00BF51350110000000007D
:100D90002DE97043B6B00023DFF8589214931293F4
:100DA000119310930F930E930D9301254FF00008AC
:100DB0002A467749774E15A80BF02CFE2A4676492D
:100DC0001DA80BF027FE0DAB0024019320230093F8
:100DD0001DAA81230121029415A805F0F9FE2A46D7
:100DE0006E4915A80BF016FE2A466D491DA80BF09A
:100DF00011FE14231DAA4FF480710294CDE90089DD
:100E000015A805F0E5FE224607A915A805F0B8FECD
:100E1000E9B2079A306804F0E6FD0135614915A88A
:100E200005F040FF082DC3D155A3D3E90023029458
:100E3000CDE900234FF4807114235B4A5B4805F031
:100E4000C7FE5849594805F02DFF4FA3D3E90023A9
:100E50002146CDE9002302941423554A554805F054
:100E6000B7FE0123009321460194534A534805F0ED
:100E7000AFFE4FF4FA630093514A019404234FF4F8
:100E80008071504805F0A4FE4F494E4805F00AFF16
:100E900040F2EE2300934D4A019402234FF48071F7
:100EA0004B4805F095FE4FF47A754A49484805F0DD
:100EB000F9FE0095214601940223474A474805F070
:100EC00087FE0095214601940223454A4548464D38
:100ED00005F07EFE14230093214604230194434A27
:100EE000434805F075FE224606A93C4805F048FE39
:100EF00022460DF11A013B4805F042FE224608A9A0
:100F00003B4805F03DFE22460DF117012B4805F048
:100F100037FE22460AA9254805F032FE22460BA9D3
:100F2000244805F02DFE224609A9264805F028FE92
:100F300022462946264805F023FE9DF81730BDF8C5
:100F40001A20BDF8181000933068089B01F0CCFC03
:100F50000A99306804F052FD0B99306804F060FD86
:100F60000999306804F047FD36A82B8840F8A83D61
:100F700004F0B8FFFFF722FE36B0BDE8708300BF73
:100F8000000000A09999B93F000000C0CCCCFC3F04
:100F9000513501100480011099350110AC35011054
:100FA000BF350110E9080010163601107536011022
:100FB00084360110E0360110F63601105937011061
:100FC00069370110283501109D080010F337011012
:100FD00042350110C108001095380110DC380110AD
:100FE000E7380110463901100C8001105F390110FB
:100FF000D23901100000044070B50546042000F00D
:1010000053FA124C064606F093FA4FF42470266009
:1010100000F04AFA0E4A2168064601F027FC0D4B03
:101020000D491E60284603F0DBF90C4B0C4918688B
:10103000002203F079FF0B4B0028188003DBFFF739
:10104000A7FE002070BD4FF0FF3070BD088001107A
:10105000001009100480011080340110F08001108C
:10106000E439011008750110F0B58BB006460AA8E6
:1010700001254FF0FF3300F8055D0F461446099334
:1010800002F082FE00281EDB104B1148B3F900204D
:1010900074B109AB002104930423069105910391D7
:1010A000029701930096006803F031FF09980AE067
:1010B0000423049403940297019300962946006840
:1010C00003F025FF20460BB0F0BD00BF08750110EE
:1010D000F08001102DE9F04FDFF8C4802B4D8DB06A
:1010E000002402274FF0B10B41230B91019341469D
:1010F00064234FF4803209940894CDF81CB0069410
:1011000005970494039702940094824603F015FC1B
:101110008146286806F076FA01221D491D48FFF72E
:10112000A3FFC9F58036F60809F1805132460A90CE
:1011300001F50021286806F02AFA174B054601211F
:10114000186803F0B1FFC82306934FF4A07304930B
:10115000124A0B9B0293ED0041238DE80C0041469F
:101160006423324609940895CDF81CB0059703977F
:10117000504603F0E2FB09EB05024146504603F0FE
:101180009CF80A980DB0BDE8F08F00BF08800110F0
:101190000010091000000910F08001104343513283
:1011A000000008100121FFF795BF000030B58FB097
:1011B0000024129D0B930C236B435B080A930A23B4
:1011C0005A43C823059342230493029352089DF87F
:1011D0004C300792822501934FF4A072412308916D
:1011E000039200930D940C9409950695034B642289
:1011F000214603F046FA20460FB030BD4343423249
:1012000008B5000244F62063B0FBF3F0C0B107EE6E
:10121000900AF8EEE77A17EE900A0AF027FB10F032
:10122000D7F90022074B0AF075FB0AF085FDFF286D
:1012300003D8002808BF012000E0FF20C0B208BD8D
:10124000012008BD0000494030B5284C85B0002180
:10125000206801F044FC002841D00388072B9FBF81
:10126000216803F1FF32142303FB0213428898BF65
:10127000D3F8F0508388A3EB02030289C088A2EB65
:10128000000000FB03F088BF6FF07F45FFF7B8FF59
:1012900001A9044603AB02AA284602F09DFB03996C
:1012A00011B16143090A0131029B039113B16343F8
:1012B0001B0A01330198029310B16043000A013008
:1012C00004AA01908DF8010002F80D1D0DF1010036
:1012D0000DF102018DF8023004F0DAFD03E0039015
:1012E00003A804F0E9FD05B030BD00BF0480011083
:1012F0002DE9F04F91B093469DF868200F92064675
:101300008A461D46002B4FD0022400234FF0B2091D
:101310004FF041080D930C930A930893069304939E
:1013200002938DE80801CDF82C906423099407946A
:10133000059403944FF490321D49284603F0FDFABA
:101340003268B168074600F18050A24000F50020E5
:101350000BF062FA3368CDF82C90A3405B080C9335
:10136000C82306934FF4A07304930F9B0293114B71
:101370000093CDF828B00994CDF820A007940594E7
:101380000394CDF8048064234FF490320849284632
:1013900003F0D3FA3268064907EB8202284611B0FF
:1013A000BDE8F04F02F089BF11B0BDE8F08F00BF7B
:1013B00000000810424C54312DE9F04796B000244B
:1013C00080469A46402010230E460393914602948D
:1013D00000F06CF82546011D00F1440321F8025C81
:1013E00021F8045C043199424FF00004F6D13378BF
:1013F00004905A1E062A45D8274F3A682AB927482A
:1014000005F0F8FD6FF001043EE0254DBAF800202C
:10141000B9F800100093ADF8341002ABADF83620E7
:1014200039460DAA286804F071FC3178286804F068
:1014300081F9D8F80030C361054602AA39460DA8E3
:1014400003F081FF21460DA803F0F6FF04220323D9
:10145000A8611146009302A81E9BFFF749FF32784E
:10146000104905A80BF0D6FA2B46202281210094C2
:1014700005A805F069FBFFF7A1FB01211E9800F00C
:10148000D5FA01E04FF0FF34049808B100F012F8EB
:10149000204616B0BDE8F087A08001105D35011030
:1014A00004800110513501100AF0BCBE0AF0BABE2A
:1014B0000AF0C0BE0AF0BEBE00207047FEE7000082
:1014C000012884B046D880B9234B24481A6800927A
:1014D000009AD2011AD5009AD24342F0807201924A
:1014E000019A02601A680092F2E71D4B1D481A68C3
:1014F0000092009AD2041BD5009AD24342F4805243
:101500000192019A02601A680092F2E7164A11608D
:101510001A6812490292029AD0011BD4029AD2434D
:1015200022F080720392039A0A601A680292F2E72C
:101530000E4A11601A680B490292029AD20409D429
:10154000029AD24322F480520392039A0A601A68E4
:101550000292F2E704B0704754310540043105406F
:101560005031054000310540043404400833044044
:10157000014B00201870704740800110034A01237E
:101580001370034A00201370704700BF40800110A1
:101590001480011037B500240C4D019421460094AD
:1015A00001230B4A0B4805F013FB214601940094DC
:1015B0000123094A284605F00BFB08492246284624
:1015C00003B0BDE8304005F0DBBA00BFCB3E0110F0
:1015D000283E01107E3E01108E3E01101580011044
:1015E00013B5037833B1082B2AD8013B164A52F8B9
:1015F00023302BB3154B00221A600478B4B922466D
:101600000DF10701124805F0BBFA9DF807104A1EBC
:10161000D3B2072B06D80C4951F822204AB10D4A03
:10162000137006E00B48047019B1F4E7094B013C54
:101630001C70094A01231370084A0020137001E04E
:101640004FF0FF3002B010BD20800110108001105B
:101650007E3E01101D800110408001101480011099
:1016600010B50C46FFF7BCFF0028A1BF024B226853
:101670001A60002010BD00BF1080011038B5074D62
:10168000002455F8240038B1013490E80C002146BC
:10169000034805F0AFFCF4E738BD00BF208001101F
:1016A000D13E011030B50E4B87B0044618689B88B8
:1016B0000490ADF8143000220A230221094804AD39
:1016C00005F098FC44B10021029101910095062398
:1016D0008222204602F0D5FF002007B030BD00BFB7
:1016E000483D0110DD3E011030B50388112B85B057
:1016F0000C4612DC002599B10B49039501EBC3029E
:10170000029552680192A12251F833300092294685
:10171000204602F0B6FF284603E04FF0FF3000E01D
:10172000084605B030BD00BF70470110044B187863
:1017300028B9044B1B78002B14BF022000207047EF
:10174000148001101C80011038B504460C20FFF7EE
:10175000ABFE0546FEF764FF0F4B10491D602046A7
:101760000F4C02F03DFE00220E49206803F0DCFB26
:101770000D4B0E4918800022206803F0D5FB0C4B5E
:101780000C4918800022206803F0CEFB0A4B188019
:10179000FFF700FF002038BD18800110503D0110F8
:1017A000F0800110FD3E01100E750110013F011087
:1017B0000A750110093F01100C750110064B09B1A3
:1017C000D86107E053F821200AB10131FAE7024B52
:1017D00043F82100002070472080011010B50B4B0A
:1017E00088B0B3F9002000900021044607AB0848F8
:1017F00002930491039101910123006803F087FB98
:10180000044B07981C7008B010BD00BF0E75011086
:10181000F08001100E8001107FB5084B0848B3F925
:10182000002005A900230091029301931946006846
:1018300003F06DFB059807B05DF804FB0C75011013
:10184000F08001107FB5094B0948B3F9002005A9C4
:1018500000230091029301931946006803F057FB9F
:101860009DF8140007B05DF804FB00BF0A75011075
:10187000F080011007B50A480023D9B2013350F8AF
:101880002120002AF9D1074B1868FEF725FF02AB8B
:1018900003F8010D1846FFF7A3FE03B05DF804FB43
:1018A000208001101880011008B5FFF771FA00F0D0
:1018B00081FC02F085FB05F07DFF00F0AFFABDE88A
:1018C0000840FFF767BE000008B505F085FB074B31
:1018D0001868FFF72FF8064B187005F0DBF918B100
:1018E000BDE80840FFF7E0BF08BD00BF1880011049
:1018F0001C8001102DE9F743FFF7BCFF0027DFF83C
:10190000F080354EDFF8EC903C46D8F8000002F04D
:101910005DFC0546FFF7D8FF042C06D8DFE804F08D
:10192000081C2E343C003378F3B903242F46ECE72F
:101930002A4B1B7823B902A840F8043D04F0BCFAF6
:10194000274B1A78274B53F822309B68984700287A
:10195000B4BF03240124E9E7234B1B78002BE2D01A
:10196000FFF75AFF0224E1E71D4B1A781D4B53F88D
:101970002230DB689847002820DAD6E71A4B1B781C
:10198000002B08BF0024D1E7184A002333701370DE
:101990000424FFF741FFC9E733781BB1FFF7EEFDE1
:1019A0000024C3E71DB199F80030002BBED102A876
:1019B000002400F8044DFFF713FEB7E7002FB5D061
:1019C000002DB3D104F0B2FE02A82C4600F8045D4D
:1019D000FFF706FEAAE700BF408001104880011013
:1019E0001D800110208001101C8001101480011046
:1019F000EC800110D082011010B5FFF723FF0446E0
:101A000008B1FFF709FF204610BD000008B5054BDF
:101A1000186805F0F7FD044B1878BDE80840FFF79B
:101A2000DDBE00BF088001100E8001101FB548B157
:101A3000002302930423019100936422034B182195
:101A400002F01FFE05B05DF804FB00BF455654319F
:101A5000034B4FF48022C3F880200020704700BF62
:101A600000E100E0C269006A101A7047F0B5002476
:101A700003462546944217D0D8691E6A801B002869
:101A80000EDD58691E69471C5F61305C0855186A95
:101A90005E6901301862D868864203D15D6101E059
:101AA000224601E00134E5E71046F0BD826838B512
:101AB000536803F0F803982B044651D00BD8802BC1
:101AC00018D003D8602B4BD0702B11E0882B47D057
:101AD000902B0FD048E0B82B24D004D8A02B3FD0B7
:101AE000A82B1FD040E0C82B3AD0F82B38D0C02B01
:101AF0003AD135E09368216AE269511AE268521AD4
:101B0000002ADBB226DDA2692169501CA0618B543A
:101B1000E369A2690133E361E3689A421AD10023C1
:101B2000A36117E0237913B10023936022E0256BB2
:101B300035B9636B616AA06A98472063B8B1E56202
:101B4000E36AA26A591CE162D25C236B013B236306
:101B5000A3689A60A36804221A6008229A6138BDBB
:101B600004231360082300E02C23936138BDA3688D
:101B7000986001232371EDE7014B1868FFF796BFCA
:101B800044800110836838229A6144221A607047A9
:101B900010B500230446F0220321012004F036FB97
:101BA0000423F0220121022004F030FB0423F02260
:101BB0000121022004F02AFB0023F022042101204D
:101BC00004F024FB0423F0220021022004F01EFB79
:101BD000064B0021C3F81812054B21714FF48022E7
:101BE00020461A60FFF7CEFF084610BD00101040D7
:101BF00000E100E008B583681B685B0701D4FFF7CC
:101C0000C1FF002008BD13B58DF8051002A90024FE
:101C100001F8044D80688DF8074004F0CBFA2046A7
:101C200002B010BD2DE9F84320269946134B0360FE
:101C30000446C66030460F469046FFF737FC002545
:101C400020616561A561E561256266623046FFF746
:101C50002DFCE562A06225633846C4F83490A76085
:101C6000074904F065FA41462046FFF7CCFF054BD3
:101C700083F817532046BDE8F88300BF08480110D9
:101C8000A086010000E100E038B505463820FFF7E6
:101C90000BFC2B46542203490446FFF7C3FF024BBB
:101CA0001C6038BD00100A404480011010B50E4C75
:101CB00005F0BAF90D4805F09DF92068FFF79CF989
:101CC00000F0CCFA2068FFF73FFD00210848FFF73D
:101CD00075FD01210748FFF771FD074805F08AF9F6
:101CE000FFF708FE002010BDEC8001103448011001
:101CF00010750110207501103E480110094B4FF47A
:101D0000FA725A604FF448729A604FF000421A60BB
:101D1000054B4FF42F7159604FF4617199601A604F
:101D2000704700BF4C800110588001104368B3F128
:101D3000004F37B504460D461BD0CA1AC168036967
:101D4000694303FB021302684FF47A7193FBF1F3CA
:101D500013448B4201DD016003E0002BB8BF002378
:101D60000360204602A950F8083B21F8023D05F027
:101D700065FC656003B030BD30B51D4D87B0286887
:101D800001F04AFD0021286800F0A9FEC0B1C38817
:101D900004894288E41A022194FBF1F41C448388EC
:101DA00014489B1A93FBF1F11144A4B289B2C1F11A
:101DB000A001643CFFF7BAFF21460F48FFF7B6FFCA
:101DC00005AB009304AA03AB02A9286800F0D9FE72
:101DD000012301930948059B0093049A039B0299F0
:101DE0000068FFF7E3F9FFF72FFA002007B030BDD6
:101DF000048001106480011078800110EC800110D3
:101E000007B502A94FF4FA7340F8083B21F8023DE8
:101E100005F014FC03B05DF804FB00002DE9FF4160
:101E2000DFF8C080264F274A274E284D00244FF464
:101E3000AF738DE8180080210423404604F0C8FEEB
:101E40004FF41673009301940423214A80213846ED
:101E500004F0BEFE4FF4FA730093019404231D4A6C
:101E60008021304604F0B4FE4FF42F7300930194A8
:101E70000423194A8021284604F0AAFE224602A91A
:101E8000404604F07DFE224603A9384604F078FE61
:101E9000124B029ADA60039A1A6102A9224630466E
:101EA00004F06EFE224603A9284604F069FE0C4B9E
:101EB000029ADA60039A1A6104B0BDE8F08100BFAB
:101EC000D348011056480110194901105E4901100C
:101ED0009B480110DE480110254901106480011063
:101EE000788001109048011007B502A8012300F87E
:101EF000013D01F049FFFFF791FF0B48FFF780FF1D
:101F00000A48FFF77DFF0A4B1B680BB1FEF756FE30
:101F1000084B186805F076FB0020FFF75FFC0020F7
:101F200003B05DF804FB00BF6480011078800110ED
:101F3000A0800110088001100C4B002119724FF491
:101F400048714FF4FA7219614FF000411A60DA607B
:101F50005960074B1A6001221A724FF42F72DA602F
:101F60004FF461721A615960704700BF64800110BC
:101F700078800110002070472DE9F0414C4B4D4C0A
:101F8000196801298EB02CD14FF47A430893B123FC
:101F90000793494A0290022300264FF0C808059390
:101FA0004FF4A077039341238DE80C004349099631
:101FB00064234FF49032CDF818800497206802F023
:101FC000BCFC0546C0F5903100F1805021228DE81F
:101FD000C001334600F5002001F02AFF05F57A42E2
:101FE00043E0A1F16403632B4FF0000542D84FF4A6
:101FF0007A430893B1230793022305930393412364
:102000004FF00A0C01936423029091FBF3F291FBD1
:10201000FCF003FB12120CFB101130310906B2FB6D
:10202000FCF202F1300E41F4B04242F0450242EAC5
:102030000E42C8274FF4A0760092204909954FF42C
:10204000903206970496206802F077FC8046C0F52F
:10205000903100F1805021228DE8E0002B4600F500
:10206000002001F0E5FE08F57A421449206802F0EC
:1020700024F91AE021238DF82F304FF4A073ADF826
:102080003430C823ADF83630236801930DF13603A0
:1020900000930DF132020DAB0CA90DF12F00ADF83C
:1020A0003050ADF8325001F07FFF0EB0BDE8F08146
:1020B00010800110EC800110434D563200000810D2
:1020C0007FB5134B1B68E3B9ADF81030ADF8123093
:1020D0004FF4A073ADF81430C823ADF816300D4B93
:1020E0001B68019321220DF116038DF80F20009338
:1020F0000DF1120205AB04A90DF10F0001F054FF20
:1021000002E00120FFF738FF002007B05DF804FB74
:1021100010800110EC80011008B5034B0A460146FF
:10212000186800F07DFC08BD04800110052838B552
:10213000054630D8194C206810B103685B68984791
:10214000174B1D70013D042D19D8DFE805F0030879
:102150000A0D1000134B18682060002113E0124B89
:1021600000E0124B1B6808E0114D012101E0104D09
:1021700000212868FEF782F92B68236005E0094BEF
:1021800018682060012100F049F9206803681B6885
:102190009847002038BD4FF0FF3038BD8C800110CB
:1021A00090800110948001104480011098800110EB
:1021B00000800110F0B5214F214E224A224D85B0FA
:1021C00000242146019400940123384604F000FDC8
:1021D00054230093019401231C4A1021304604F03B
:1021E000F7FC4FF496430093214604230194184AC8
:1021F000284604F0EDFC22460DF10A01384604F0B1
:10220000BFFC9DF80A00FFF791FF22460DF10B017C
:10221000304604F0B5FC0F4B9DF80B101868FFF723
:10222000F2FC224603A9284604F0AAFC0A4B0399B3
:10223000186800F0FFFA05B0F0BD00BF584A011061
:10224000BB4A0110B9490110204B0110664A011028
:10225000C74A0110448001109880011010B5084C45
:102260002046FFF711FD204600F03AF9204600F025
:10227000EBFAFEF705F9FFF79DFF002010BD00BF48
:10228000891E001042698069101A7047044B0020B3
:10229000C3F81802034B4FF40002C3F880207047C4
:1022A0000010104000E100E0F0B500240346A6460F
:1022B000944217D09D695869401B00280DDDDE68E7
:1022C0009F680135701C37F816609D615D68D860A5
:1022D000A84204D1C3F80CE001E0224602E00E550A
:1022E0000134E5E71046F0BD0D4B0E484FF4804237
:1022F000C3F814229622016811F0040F09490BD18A
:10230000013AF8D1C3F8142210220868400703D418
:10231000013AFAD1012070470020C3F81402704737
:102320000010104014610F4073B5054690F83D0051
:10233000D0B1002204210D480D4E03F0C8FF01A8C2
:1023400004F0E0F92846FFF7CFFF044628B90198CA
:1023500004F0DEF9B042F5D900E00124034801227F
:10236000042103F0B4FF204602B070BD00500C40C1
:1023700020A1070038B50F4B042405469C63F022CA
:1023800005230321012003F041FF21460523F0220C
:10239000012003F03BFF012313211846F02203F034
:1023A00035FF054B4FF400021A602846FFF7BCFFCB
:1023B000002038BD0010104000E100E038B590F872
:1023C0003D30044623B3426B836B9A4216D090F89B
:1023D00030507DB990F83C300133DBB2052B80F8EA
:1023E0003C3013D1FFF7A0FF0A4804F003FE84F845
:1023F0003C500BE0002380F83C3007E0064B4FF4E4
:102400008042C3F814220022C3F81422636BA36332
:10241000002038BD4C4B01100010104080F83D10DA
:10242000044B21B14FF48042C3F818227047C3F81F
:102430001812704700101040F0B5244B03601026AE
:10244000044689B0466020200F46FFF72FF800258C
:10245000A060E56025616561A561E6612020FFF768
:1024600025F81B4B07930F2320626562A562029338
:10247000E762042302A9174803950495069505937E
:1024800003F0CEFE134A082593680193013DFBD16A
:102490000121104803F012FF04210E4803F021FF30
:1024A000012204210B4803F012FF0B4B83F8175352
:1024B0000A4B84F8305020466563A56384F83C508D
:1024C00084F83D50C3F8185209B0F0BD384B0110E4
:1024D00000CB280C00500C4000E100E00010104040
:1024E00038B505464020FEF7DFFF29460446FFF7D2
:1024F000A3FF014B1C6038BD9480011070B5C56806
:1025000004460E4645B9016803694068490098478A
:102510004008E06058B1A560A3686268591C32F8B1
:102520001330A1603380E368013BE360012070BD9C
:102530000269436970B50468D31AE31A002B0CDDF5
:10254000C56846686B1C0132A342C36026F81510AB
:10255000026104D10023C36001E0002070BD0120AE
:1025600070BD0000F7B590F83D202A4B054682B3B8
:10257000294A4FF48041C2F814120021C2F8141203
:1025800004229E681A621C4600F11C07E36813F0DF
:1025900002030BD00DF106013846FFF7AFFF08B973
:1025A000ADF80600BDF80630A360EFE706F47F4201
:1025B000B2F5B44F06D0B2F5B64F04D1B1B2281D72
:1025C000FFF7B6FF012385F830306B6B01336B6387
:1025D0001EE004229E681A621C4600F11C07E36894
:1025E0009B0709D50DF106013846FFF787FF18B1A3
:1025F000BDF80630A360F2E706F47F43B3F5B64FAB
:1026000006D1B1B2281DFFF793FF012385F83030C2
:1026100003B0F0BD00500C4000101040014B186892
:10262000FFF7A0BF948001108269C069101A70473B
:1026300090F8343013B9426813601360002070477B
:10264000F0B5002403462546944217D09869DE6908
:10265000801B00280EDD1869DE68471C1F61305C96
:102660000855D8691E690130D8619868864203D13F
:102670001D6101E0224601E00134E5E71046F0BDAE
:1026800008B5F02201230021022003F0BFFD012341
:102690001946F022022003F0B9FD0023F0220321A5
:1026A000012003F0B3FD0023F0220421012003F0F8
:1026B000ADFD034B4FF080721A60002008BD00BFD3
:1026C00000E100E008B5F02204230021022003F01D
:1026D0009DFD0423F0220121022003F097FD034B0E
:1026E0004FF08072C3F88020002008BD00E100E0B8
:1026F000F7B504460020626884F83400936803F05C
:102700000E03042B16D11368E169A269511AA2685D
:10271000521A8242DBB22FDD6269E168551C6561A5
:102720008B54A36962690133A361A3689A4223D1E0
:10273000606121E00C2B02D1136801931CE0022B95
:102740001AD110250127E66A36B9236B216A606A1F
:102750009847E06260B1A662A36A626A591CA162EE
:10276000D25CE36A84F83470013BE36263681A6008
:10277000013D15F0FF05E6D103B0F0BD014B18682F
:10278000FFF7B6BF988001102DE9FF412026264BA8
:10279000036004468660304690460F46FEF786FE8C
:1027A0000025E060266225616561A561E56130462E
:1027B000FEF77CFE4FF496430193032360628DF88D
:1027C000093001A9194BA5623846E562C4F830808A
:1027D000676084F83450039301268DF808508DF813
:1027E0000A5003F03DFE694660688DF802508DF88E
:1027F00003508DF800608DF8016003F003FF31464F
:10280000606803F01DFF32462946606803F0DCFE75
:1028100060683246314603F0D7FE054B204683F808
:10282000185304B0BDE8F0815C4B011000CB280CBC
:1028300000E100E008B5034A406803F073FD0020A2
:1028400008BD00BF00CB280C38B505463820FEF780
:102850002BFE2A4603490446FFF796FF024B1C60F5
:1028600038BD00BF00100840988001102DE9F041EC
:1028700088461146044603F001F804F5D27604F5C3
:102880001A77354630461C3606F018FBBE42F9D1A1
:102890001423C4F88032A4F87A3205230026642277
:1028A000A4F88432062384F87662A4F87822C4F867
:1028B0008C62C4F8A081A4F8863284F888624FF450
:1028C0007A70FEF7F3FDA4F86C62C4F86802A4F80D
:1028D0007C62A4F87E6228461C3506F079FBAF4284
:1028E000F9D12046BDE8F0816429C0F8803288BF64
:1028F00064219DF80030A0F87812A0F87A2280F8C0
:1029000088320020704713B59DF8004061F302043F
:102910008DF80040BDF8004062F3CB04BDF8022002
:10292000ADF8004063F30902ADF80220BDF81020B5
:102930001344BDF80420013963F309021C2303FB8F
:10294000010000F5D2706946ADF8042006F092FB54
:1029500002B010BD112A2DE9F0415BD990F8763212
:10296000002B57D1B0F87E42B0F87422944254D272
:10297000D0F87C322BB94AF6552321F8023B0924C2
:1029800000E008244AF656230B80B0F87E32D0F8D7
:1029900070724FF00C0E0EFB03F337F803C0A1F872
:1029A00004C0B0F87E520EFB0575AB886A889A1A8F
:1029B00092B24A81B0F87E520EFB05752B89ED88E4
:1029C0005B1B9BB28B81B0F87E520EFB05756E8847
:1029D00006EB5206B6B2CE80B0F87E520EFB0575FD
:1029E0001A44ED8805EB5305ADB20D81B0F87E8237
:1029F0000EFB087762447F89CF813A44B31815FAF9
:102A000083F34B80B0F87E320133A0F87E32600051
:102A1000BDE8F0810020BDE8F0811846BDE8F081F6
:102A20000F2A2DE9F04105460C4655D9B0F87C3205
:102A3000B0F86C62B34206D390F888721FB1BDE85B
:102A4000F041FFF787BF95F87602002844D1B342E2
:102A500043D22BB94AF6552224F8022B082000E075
:102A60000720D5F868624AF6552203EB83032280DB
:102A700036F81380A4F8048002335900A1F1020C47
:102A800036F8133036F80C70DF1B01F1020EBFB2BE
:102A9000314467818B8836F80E10591A89B2A181AA
:102AA0007A1808EB020336F80C2002EB5707BFB286
:102AB000E78017FA83F236F80E3003EB51039BB22E
:102AC000238113FA82F36380B5F87C320133A5F8D1
:102AD0007C324000BDE8F0810020BDE8F081F0B517
:102AE0000246002939D1D0F88C02002848D1B2F82A
:102AF0006C72034605464FF00A0EBD4211DAD2F859
:102B000068120EFB0511013588884E880C89861BDA
:102B1000C888201A704383423CBFC2F88C12034617
:102B2000EBE7B2F8747200254FF00C0EBD4211DADB
:102B3000D2F870120EFB0511013588884E880C8979
:102B4000861BC888201A704383423CBFC2F88C128F
:102B50000346EBE7D2F88C02F0BDB0F86C620A27AE
:102B60000020B04209DA07FB00F4D2F868522B19B2
:102B70002C5B8C4203D00130F3E70020F0BD1846F7
:102B8000F0BD10B5D0F868420C60B0F86C1211605E
:102B9000D0F870221A60029BB0F874221A6010BD3F
:102BA000002070B50346044604EB84069442B6B296
:102BB00018D001EB460531F816602EB90130002B14
:102BC00008BF2B4680B20AE04BB11E806E885E8043
:102BD000AE889E80EE88DE802D891D810A33013407
:102BE000A4B2E1E770BD2DE9F04F02EB820285B09F
:102BF00093B20020019302468146019B934242D04A
:102C000031F8123001EB4204002B36D0A3886688DD
:102C1000B4F806E0B4F808C00293531D019D9BB2BE
:102C20009D422AD031F813704FEA430B01EB0B059C
:102C30000FB36F88B5F804A0B5F806802D89039509
:102C4000BE420CD8029D55451AD3C64505D8039DF2
:102C5000AC4502D321F80B900BE0BE420BD3029D92
:102C6000554508D8C64506D3039DAC4503D8A4F8FE
:102C70000090013080B20533D0E7053292B2BCE754
:102C8000BE42F8D3EEE705B0BDE8F08F2DE9F04F76
:102C900089B002EB8202029093B20020039300906D
:102CA000039B009A934200F08F8031F8124053004A
:102CB000002C7ED09C1C0D1931F804E004951C1DDD
:102CC0000D1931F804C005959C1D0D1908330695A2
:102CD0000C5B31F80380CD180795134605339BB282
:102CE0000193019D039BAB4263D02B464FEA4509FC
:102CF00031F8133001EB0905002B58D06E88AF88EE
:102D0000EB882D89B64511D3029AB2F884B2C7EB8D
:102D10000E0ADA450ADC9C4201D8984503D2AC423F
:102D200004D8A84502D3049B1E803AE0BC4511D8C4
:102D3000029AB2F884B2CCEB060ADA450ADC9C426D
:102D40003CD8984503D2AC4204D8A84539D3059B5A
:102D50001F8026E09C4211D3029AB2F884B2C5EBE0
:102D6000040ADA450ADCB64501D8B44503D2BE45AB
:102D700004D8BC4502D3069A138012E0A84516D8A1
:102D8000029AB2F884A2C8EB030353450FDCB645A0
:102D900001D8B44503D2BE4509D8BC4507D3079B2B
:102DA0001D804FF00003013021F8093080B2019BF3
:102DB00094E7009A053293B2009371E7AC42CBD806
:102DC000C3E79C42DCD3C7E709B0BDE8F08F2DE92B
:102DD000F04FB2F804A088884B88B2F80280B1F8AE
:102DE0000690098985B09DB200901FFA8AF0029082
:102DF000D088019103901FFA88F10FFA85FB0FFA32
:102E000081FCBDF80C401089BDF80060BDF804706D
:102E1000E3451FFA89FE82B20FFA8EFC0FFA84FB9B
:102E20001BDBDC4503DC0FFA87FCDC450BDA0FFA11
:102E30008EFC0FFA82FBDC4508DC3FB25F4502DA0C
:102E400024B2A44552DBCAEB03004DE02BB20FFACB
:102E500081FA534523B252DC5BE0DC454BDC3FB2E8
:102E600023B29F4208DA0FFA8EFC12B2944507DCB7
:102E7000974201DA9C4521DB009BC3EB080033E05D
:102E80009C451BDB2BB20AB2934203DC33B20AB27D
:102E900093420ADABDF908202BB2934208DC36B21D
:102EA000964202DA09B28B422CDBC0EB09001BE030
:102EB0000FFA8EFE24B2A64534DC30E02BB20AB203
:102EC000934203DC33B20AB293420ADABDF9083006
:102ED0002DB29D4226DC36B29E4202DA09B28D4204
:102EE00020DB039B019A981A80B21DE02BB20AB234
:102EF0009342EBDC10E012B29445C7DCBCE79C4582
:102F0000E4DBC7E70FFA8EFE24B2A6450ADC8E4248
:102F1000E6E79C45A3DDB9E7A742D3DBACE70AB2FD
:102F20009342CFDD47F6FF7000B205B0BDE8F08FE9
:102F300070B50E4609880446154639B313882BB37D
:102F4000994223D090F88832022B04D194F8883229
:102F5000022B07D10EE001F0070102F064FD012809
:102F600014D1F3E72978204601F0070102F05BFD58
:102F700001280BD12A4631462046FFF728FFB4F836
:102F800086329842CCBF0020012070BD002070BD69
:102F90002BB188884B88C1189088538804E0088931
:102FA000CB88C1181089D3880344022093FBF0F327
:102FB000C3EB610080B2030444BF404280B200B260
:102FC0007047000000000000F7B5538890880F4656
:102FD00018448B8849880B445B10C3EB600007EEF4
:102FE000900AF8EEE77A164617EE900A08F03EFCD3
:102FF000FB88044638890D461844F18833890B4410
:103000005B10C3EB600007EE900AF8EEE77A17EE6C
:10301000900A08F02BFC22462B460EF059FA0022AB
:103020000B4B08F077FC08A3D3E9002308F09CFDC4
:1030300008F0A2FE07EE900AFDEEE77ACDED017AE8
:10304000BDF9040003B0F0BD000000C0CA21094072
:10305000008066402DE9F04786B080469DF838A094
:103060000D46164699460024B44201AF0CD00A2CF6
:103070000AD055F82420534649464046FFF788FFBA
:1030800027F814000134EFE7012039462B460246A9
:10309000B24214D20A2A12D0B1F800E031F8024F3D
:1030A000A64508D9586821F8024C1C68A1F800E030
:1030B00083E811000020013292B20433E8E70028CF
:1030C000E2D006B0BDE8F0872DE9F04F0025B2F957
:1030D00000A08DB0A8462E464FF0640B56453FDA4F
:1030E00051F8260043888488E41A0389C0881B1A93
:1030F00063430BFB03F04FF4FA74B0FBF4F0009061
:103100004FF4C8705843B0FBFBF018440190002006
:103110000746BE4217D051F827E0BEF80240BEF87D
:103120000490C4EB0909BEF80840BEF806E0CEEBF7
:10313000040404FB09FE009C744504D8019C7445FA
:1031400024BF013080B20137BA45E2DC854226BF98
:10315000634628464FF0010801369C460546BDE708
:10316000B8F1000F01D1A2F800800023B2F900E00D
:103170001D4664274FF4FA784FF4C879754501DB92
:10318000002022E0092BFBD851F82540A088668852
:10319000B4F806A0861B2089CAEB0000704307FB29
:1031A00000F6B6FBF8F6B4450DD309FB00F6B6FB06
:1031B000F7F63044844506D80CAE581C06EB830362
:1031C00043F8284C83B20135D8E7984206DA02ACBE
:1031D00054F8204041F820400130F6E713800DB04C
:1031E000BDE8F08FF0B50023B2F900608BB01D464A
:1031F0001846B0429CB217DA0A2B14D051F820704E
:103200004DF823700130B04201DB0133F1E751F892
:103210002040B4F800E03C888EEA04046407F4D14E
:1032200001300125EFE71C464DB10023A34205DA2A
:103230005DF8230041F823000133F7E714800BB059
:10324000F0BDF0B5D0F86842B0F86C620A270020F3
:10325000B0420CDA07FB00F50130635B23F0070E88
:10326000964502BF03F007030B436353F0E7F0BD3D
:103270002DE9F04FB0F86C32D0F868820A2699B088
:10328000044606FB03860027B04538D208F10A0938
:1032900008F11405A5F10A02B24201D3C846F3E7CA
:1032A00041462046FFF744FE38B339F80A3C35F86A
:1032B0000A2C072B0ED8072A14D80137BFB2FA0000
:1032C00092B2134329F80A3C35F80A3C1A4325F810
:1032D0000A2C12E0072A05D823F00703134325F828
:1032E0000A3C0AE035F80A2C072A06D9072B9EBFAC
:1032F00022F00702134329F80A3C0A35CAE7D4F83A
:1033000068A2B24522D2D3463BF80A5B072D1BD9EF
:1033100025F00705ADB2D946B14515D2B9F8008000
:10332000B8F1070F0DD928F007081FFA88F84545AE
:1033300007D04A4651462046FFF7FAFD002840F0E4
:103340006E8109F10A09E7E7DA46DAE7D4F868326C
:10335000D4F8705203F577730B930023A4F87432FA
:1033600001220A9313B2BB42D4F8683200F33981C8
:103370000B998D4280F0358192B24FEAC20E0692CF
:103380000021BDF82820ADF836201FFA8EFE0A462F
:10339000B34212D210B209280FDCB3F800C02CF0EF
:1033A000070CF44507D118A901EB8000013240F861
:1033B000283C92B201210A33EAE709B1ADF8362080
:1033C0000DF136020EA92046FFF77EFEBDF836301D
:1033D0000793BDF91CE0BEF1010F40F3FE8000230E
:1033E0000493039302939A4619461846CDF814E0C5
:1033F0000DF1380B0FFA80FE5BF82390B9F802202C
:10340000089218AA02EB8E0E089A5EF828ECB9F81A
:1034100004C0BEF802E01FFA83F8964588BF404614
:10342000B9F8062009920FFA8AFE18AA02EB8E0E4E
:10343000099A5EF828ECBEF806E0964588BFC246B9
:1034400018AA0FFA81FE02EB8E0E01335EF828EC0B
:10345000BEF804E0E64538BF4146B9F808E0BDF9DA
:10346000089002EB8909029A59F8289CB9F808904B
:10347000F14538BF42460292089AC2EB0C0C039AFF
:1034800062440392099AC2EB0E0E049A72440492AB
:10349000059A0FFA83FE7245AADC18AA09B20FFA40
:1034A0008AFE02EB810102EB8E0EBDF908205EF868
:1034B00028EC51F8281CBEF806C0898818AB0DF11D
:1034C000600800B203EB800008EB820250F8283C51
:1034D00052F8282C58881289A980A5F806C04FF008
:1034E0006408091ACCEB020C68802A8108FB01F100
:1034F000039A059892FBF0F008FB0CFC91FBF0F1AD
:10350000049A059892FBF0F89CFBF8FC6145D5BF46
:103510000023012100930091D8BF7346BDF81C2001
:1035200059462046FFF796FD0DF1360259462046D2
:10353000FFF758FEBDF93630012BD8464DDD052B7F
:10354000C4BF0523ADF83630BDF8363000218E46B5
:103550001AB208B290420ADA58F82100008800F046
:10356000070040EACE0E1FFA8EFE0131F1E7013B63
:103570009BB2002118B2002813DB0DF1600C0CEB9C
:103580008000013B50F828CCBCF8000000F0070098
:1035900040EAC101BDF82800ACF8000089B29BB236
:1035A000E8E78E4508D218AB03EB8202A5F800E0ED
:1035B00052F82C2C0E9906E018AB03EB82032980FD
:1035C0000E9A53F82C1C2046FFF7FEFCB4F8743218
:1035D000688101330C35A4F87432069A013292B234
:1035E000C0E603F10A050027A5F10A039E421FD990
:1035F00094F88832032B04D135F80A3C072B0CD9F8
:1036000013E035F80A1C07290FD8022B0DD0C9B2D8
:10361000204602F008FA012807D00A35E4E74246BE
:1036200029462046FFF70DFE8BE625F80A7CF4E7D5
:1036300019B0BDE8F08F38B500F5D27400F51A75F1
:10364000204605F049FC20461C3405F08AFCAC42BB
:10365000F6D138BD2DE9F04F89B000230746ADF80B
:103660001830ADF81E30ADF81A30ADF81C301C46DD
:1036700003934FF0FF3906A9D7F8A001059303F093
:1036800063FF059B0028F6D0BDF818504FF6FD7279
:10369000954200F2AF80002BEDDB5DBB7CB1BDF845
:1036A00010100BF10102521A4B1E92B200929BB203
:1036B0001FFA89F2E1B23846FFF725F9034603996C
:1036C000039A052909F1010902F1010205D000243C
:1036D00003924FF6FF76A046CDE705934D4B0024AD
:1036E0001868012101F0E0FC4FF6FF76A046039434
:1036F000059BC0E705F0070A14200AF1FF3100FB23
:103700000171BDF81E20BDF91CE0D1F8E000002ACF
:1037100008BF01224FEACE3E9EFBF2FE864522DD27
:10372000D1F8E40086451EDABDF91AE0D1F8E800C8
:103730004FEACE3E9EFBF2FE864514DDD1F8EC103A
:103740008E4510DAD7F86C118A420CDBED10AAB264
:103750000592BDF81420ADF81820AA1B052A42D8FE
:10376000D04540D113E0002C85D0BDF810100BF1EE
:103770000102521A4B1E92B200929BB21FFA89F2BA
:10378000E1B23846FFF7BFF80346002473E7B4B14F
:10379000A2452CD00126BDF810100BF10102521ADF
:1037A0004B1E92B200929BB21FFA89F2E1B23846E8
:1037B000FFF7A9F803464EB12E46D046E5E744464A
:1037C0000496B8F1000F12D12E4654E7059B022251
:1037D000013B00929BB21FFA89F251463846FFF72F
:1037E00092F80346E8E7002CF0D00026D3E7AB467A
:1037F0002E4640E73846FFF71EFFBDF818304FF65B
:10380000FE7083424FF0FF3018BF002009B0BDE8C2
:10381000F08F00BFEC8001102DE9F74F0446FFF751
:1038200019FF002811DA04F5D27504F51A76284636
:103830001C3505F0CDFBB542F9D10023A4F86C325C
:10384000A4F874324FF0FF30B5E00025012684F86B
:103850007662C4F88C52A4F86C52A4F8745294F8AE
:103860008832022B07D0F1B2204602F0DCF8431E6A
:103870005842584100E001201C23B4F86C82D4F86F
:10388000681203FB064308EB880AD3F898315246C6
:103890004FF0000CE3B3B4F86CE2B4F87872BE45B4
:1038A00036D2B4F87A72BC4532D2D3F820E018B1DF
:1038B000BEF1090F28DD03E0D4F88072774523DCE0
:1038C000B3F804E0B3F81290CEF3C80E1FFA8EF7E7
:1038D000C9EB0707012F17DD9F8A019701EB42070C
:1038E000B3F810B021F81260A7F802B0BDF804B028
:1038F000A7F804B0A7F80690A7F808E0B4F86C722F
:103900000137A4F86C7205321B680CF1010CC1E799
:1039100070B901EB4A07B4F86C22C8EB020292B20C
:1039200039462046FFF7B2F910B10544ADB2F2E7CF
:103930000136082E93D1B4F86C22D4F868122046D0
:10394000FFF751F994F88832284485B283B3B4F86C
:103950006C22D4F868320A2101FB0233C4F87032B9
:103960002046FFF785FC65B1B4F86C22D4F86812E4
:103970002046FFF715F9B4F86C32181AA4F86C0257
:1039800003E094F88832002BEED10023A4F87C32B7
:10399000A4F87E3284F8763204F5D27504F51A74F0
:1039A00028461C3505F014FBAC42F9D1002002E09A
:1039B000002DEAD0D8E703B0BDE8F08FFF2928BF7B
:1039C000FF21FF2A28BFFF22FF2842EA012228BF49
:1039D000FF2042EA0040704710B5C4B21C60C0F33B
:1039E0000723C0F307401360086010BD00B589B01D
:1039F00007AB06AA05A9FFF7EFFF059B069A9342BE
:103A000038BF1346079A934238BF134607EE903AE1
:103A1000B8EE677ADFED167AC7EE876A07EE902A6E
:103A2000B8EE677A27EE267AFCEEC77ACDED017AFA
:103A3000DDED067A9DF80420B8EE677A27EE267A47
:103A4000FCEEC77ACDED027ADDED057A9DF808101F
:103A5000F8EE677A67EEA67AFCEEE77ACDED037AA8
:103A60009DF80C0009B05DF804EBFFF7A7BF00BF9D
:103A700000007F43014B1878704700BF3575011077
:103A8000014B1878704700BF32750110014B187850
:103A9000704700BF33750110014B1878704700BFA5
:103AA00034750110014B1878704700BF9C800110DD
:103AB00038B5094D0121286804F004F802210402F8
:103AC000286803F0FFFF204304020521286803F063
:103AD000F9FF204338BD00BFB080011038B5094D53
:103AE0001621286803F0EEFF10210402286803F075
:103AF000E9FF204304020021286803F0E3FF20438C
:103B000038BD00BFB080011008B5034B01781868BC
:103B100003F0D8FF08BD00BFB080011038B50568BC
:103B2000094CEAB22068052103F0B6FFC5F307226D
:103B30002068022103F0B0FF2068C5F3074201218D
:103B400003F0AAFF002038BDB080011038B5056829
:103B5000094CEAB22068002103F09EFFC5F307225A
:103B60002068102103F098FF2068C5F30742162152
:103B700003F092FF002038BDB080011038B50B4D26
:103B8000027804462421286803F086FF22782868FA
:103B9000142A86BF143AD2B20022252103F07CFFFA
:103BA000034B22781A70002038BD00BFB08001108E
:103BB000347501102DE9F743134D0646884610224F
:103BC0000921286803F068FF0024A146444510DA63
:103BD0003719315D7A78286803F05EFF315D286817
:103BE00003F070FF7B78834218BFCDF80490023455
:103BF000ECE700220921286803F04EFF0348FFF795
:103C0000BDFF03B0BDE8F083B08001103475011032
:103C10002DE9F041274C07461321206803F052FF9D
:103C200003210546206803F04DFF234A3B781178B5
:103C300099420646904633D093B905F0F702132116
:103C4000206803F029FF06F07F020321206803F0BB
:103C500023FF40220E21206803F01EFF032214E000
:103C6000012B14D105F0F7021321206803F014FF93
:103C700066F07F02D2B20321206803F00DFF4822D4
:103C80000E21206803F008FF3322212105E0022BDA
:103C90000CD145F00802D2B21321206803F0FCFEDB
:103CA0003B7888F800300020BDE8F0814FF0FF300D
:103CB000BDE8F081B08001109C80011038B50A4C3D
:103CC00005469721206803F0FDFE2B781BB140F0DC
:103CD0000A02D2B201E000F0F5022068972103F059
:103CE000DBFE002038BD00BFB080011008B5044BDA
:103CF0000A780178186803F0CFFE002008BD00BFE5
:103D0000B080011070B5104E05783378AB4219D0F1
:103D10000E4C5DB92A463821206803F0BDFEE12231
:103D20009621206803F0B8FE35700BE01022382190
:103D3000206803F0B1FEF1229621206803F0ACFE6A
:103D400001233370002070BD32750110B080011066
:103D500038B50B4C05782378AB420FD0094B35B9F9
:103D6000A0221321186803F097FE257006E018685A
:103D7000A522132103F090FE01232370002038BDFB
:103D800033750110B080011038B50A4D04782B78D6
:103D9000A3420AD014B91E21074803E0012C06D122
:103DA00006481E21FFF706FF2C70002038BD4FF09B
:103DB000FF3038BD35750110704B01108E4B01106E
:103DC00038B50C461549054608F056FE20B9204680
:103DD000BDE83840FFF7D2BE1149284608F04CFE36
:103DE00050B923781BB9FFF779FE0E4B18602046B7
:103DF000BDE83840FFF7ACBF0B49284608F03CFE51
:103E000050B923781BB9FFF753FE084B18602046C2
:103E1000BDE83840FFF776BF38BD00BFAC4B01109E
:103E2000BE4B0110AC800110D74B0110A8800110CF
:103E30002DE9F04393B09846BDF86C50BDF8704042
:103E4000BDF8689004FB05F307468B424FF0FF3046
:103E5000164611904FD8131109D108EB0503B3F59D
:103E6000A06F4DDC09EB0403B3F5487F15E0012B8F
:103E700009D108EB0503B3F5207F41DC09EB04030E
:103E8000B3F5C87F09E0022B38D108EB0503B3F581
:103E9000A07F35DC09EB0403C82B31DC12A806F047
:103EA0000F0300F8053DFFF76FFF002828DB164BD6
:103EB0000220B3F90020099011AB00210C93079068
:103EC000059003900423114801930E910D910B91DD
:103ED0000A940895CDF81890CDF8108002970096B6
:103EE0000123006801F013F8119848B9084B1F60CE
:103EF0009D80DC8004E06FF0010001E06FF00200C3
:103F000013B0BDE8F08300BF30750110F0800110E0
:103F1000A08001102DE9F0478AB01E46129D204F67
:103F200090461A882B8806938A460021099103FB44
:103F300002F102230593049203931A4A9DF850302C
:103F400008910293B12141238DE80C00814607912D
:103F5000642339464FF49032139800F0EEFC298820
:103F6000029131880191B8F8001000910446C0F523
:103F7000903100F18050BAF8003099F8002000F537
:103F80000020FFF755FF33882A88804602FB034252
:103F90003946139800F091F940460AB0BDE8F08721
:103FA00000000810424138311FB501240294079CDB
:103FB0000194069C0094FFF7ADFF04B010BD000013
:103FC00030B5502387B000248DE81800484A49488E
:103FD00001234FF48071012502F0FAFD464945485E
:103FE00002F060FE2B46454A019440F20221009502
:103FF000434802F0EDFD4049414802F053FE019470
:10400000009404233F4A4048294602F0E1FD2B4634
:104010003E4A0194009440F202213D4802F0D8FD4E
:1040200035493B4802F03EFE2B463A4A019440F2A5
:1040300002210095384802F0CBFD2F49364802F0A6
:1040400031FE0423019400942E4A3448294602F09C
:10405000BFFD224603A9274802F092FD22460DF13A
:104060000D01274802F08CFD22460DF10E01284873
:1040700002F086FD22460DF10F01274802F080FD77
:1040800003A8FFF77BFD0DF10D00FFF761FE9DF822
:104090000D4084B9224D2A6832B1234604211A48C2
:1040A00002F052FD2C6006E004A9174802F068FDFA
:1040B00004A8FFF74BFD0DF10E00FFF723FE9DF85E
:1040C0000E309BB99DF80F4084B9164D2A6832B165
:1040D00023460421114802F037FD2C6006E005A9B3
:1040E0000E4802F04DFD05A8FFF718FD07B030BDE2
:1040F000EA4B0110AC4B0110313B00105B4C01103E
:10410000BE4B0110C85B0110A24C0110AC4C011059
:10411000D74B01101D4D01109F4D0110BE4D0110D8
:10412000AC800110A880011013B50420FDF7BCF984
:104130006021044603F06AFC134BA02120461C605A
:1041400003F0C0FC28211148FFF734FD02A8002429
:1041500000F8014DFFF718FE0D4B0E49186800F0EE
:104160003FF90D4B0D491868224600F0DDFE0C4B5F
:10417000A042188003DBFFF723FF204601E04FF049
:10418000FF3002B010BD00BFB08001109857011081
:10419000EC800110D0550110F080011098530110EF
:1041A00030750110024B00221A60DA809A80704745
:1041B000A080011070470020704710B50023934283
:1041C00003DACC5CC4540133F9E710BD90F83B002E
:1041D0007047836813B14360002383607047F0B574
:1041E000002351F8232004689E008F19002A32D042
:1041F000092B30DC251D12F8012C0560256815B946
:104200006FF00200F0BD12F0800F12D102F00F0229
:10421000012A03D18A5912782A701AE0022A03D19E
:104220008A5912882A8014E0042AE9D18A5912682E
:1042300002E0A12A8A5901D12A600AE012682A60A4
:1042400004F10802026062680133002AD8D07C6859
:1042500014600133C5E7231D036020680028CFD117
:10426000F0BDF8B590F83B3005460E4617460BB941
:104270008A061FD5EC6824B9330606D54FF0FF3007
:104280000EE04FF0FF3000240AE00020F8BD2B685C
:104290003A46DB683146284698470028F5D0013475
:1042A00095F83930A342F2DC002805DA002385F8BE
:1042B0003B30F8BD6FF00500F8BD10B504468068CE
:1042C000636810B9A360616001E08B420FD1236A7B
:1042D000D21AE26094F83A2062B918212046FFF71A
:1042E000C0FF02462046FFF774FF104610BD6FF076
:1042F000040010BD002010BDF8B5858E0E49403574
:104300002F01044638460CF0EBF8064688B13A46D1
:10431000002108F01BFBA28E216B1201304608F031
:104320007BFA206B08B1FDF7C5F82663A58600204F
:10433000F8BD6FF00400F8BD00700110F8B5064636
:104340000F460025ACB2B28E23B2934208DA1B01AD
:10435000326BD05838B1394608F08EFB18B904E0FA
:104360004FF6FF7401E00135ECE720B2F8BDF8B577
:1043700004460D461646FDB129462046FFF7DEFFEE
:10438000002812DAB4F834E00027B8B203B273455B
:1043900005DA1A01216B8A580137002AF5D17345D5
:1043A00003D12046FFF7A8FFE5E7226B03B21B010C
:1043B000D118D5504E6001E04FF6FF7000B2F8BD45
:1043C00038B505461C46FFF7D2FF0028A1BF2A6B6F
:1043D00002EB0010C4600020B8BF4FF0FF3038BDC2
:1043E00038B5054601F1080454F8081C39B12346D4
:1043F00054F8042C2846FFF7E3FF1834F4E7084686
:1044000038BD4185704738B504461546FFF796FF1D
:10441000236B2A8803EB00131A8138BD437E70B5E5
:10442000054613B16FF0040070BD11B944698034C2
:1044300001E001F18004094920460CF051F80646DC
:104440000028EFD06A69696808F0E6F9686808B181
:10445000FDF730F86E606C61002070BD00700110D7
:104460002DE9F04F884685B01F46054640B190F8CB
:104470003A30006A13B100F1040902E0814600E01D
:1044800081460123C9EB020A01933B6893F800B00F
:104490001A1D3A60BBF1000F00F0DE800BF0BF0286
:1044A000012A09F1010408EB090608F809B008D14E
:1044B0003A68111D1268396009F1020608F80420F3
:1044C000B0E0022A12D13A68E60748BF24F001049E
:1044D00002F1040148BF0234396008EB040112887C
:1044E00001F801BCA61C28F804209BE0042A02D095
:1044F000BBF1640F11D13A68A00718BF24F0030480
:1045000002F1040118BF0434396008EB0401126899
:1045100001F801BC48F8042016E0142A16D13A68C4
:10452000073222F0070202F108013960D2E90001E6
:1045300007F022FCA1071CBF24F00304043408EB9D
:10454000040202F801BC1060261D6BE0A12A23D1F1
:104550003A68111D396013680293184608F058FC38
:10456000421CA618AAF108018E420FD915B96FF0A6
:10457000040075E0314628460392FFF74FFF0028FC
:104580006EDBD5F80480D5F814A0039A029908EBE5
:10459000040008F041F945E012065FD53968081DAE
:1045A000386008680BF0300130290BF00F0201BFB2
:1045B00000230BF08F0B86F800B00193A3071CBFFC
:1045C00024F00304043408EB0401261D01F801BCA7
:1045D000511E314218BF5142019B48F804001CBFD4
:1045E0000E40B618F3B100FB02F3F418AAF108026A
:1045F00094420DD90293002DB9D021462846FFF7E9
:104600000DFF00282CDBD5F80480D5F814A0029B00
:1046100039680A1D3A6008EB06001A46096808F076
:10462000FBF826462DB1AA7E1AB91BF0400F18BF21
:104630004E46AAF108039E4201D8B14625E7002D57
:1046400095D031462846FFF7E9FE002808DBD5F86B
:104650000480D5F814A0F0E7484601E06FF00200AE
:1046600005B0BDE8F08F0B4610B5426941680446BD
:10467000FFF7F6FE0028A1BF236AC01AE060002001
:1046800010BD0EB4F3B59DF81C5090F83A60C768A1
:10469000182D08BF002302A908BF80F83A3008ABE4
:1046A00041F8043D0446FFF7DEFF182D03D094F8CF
:1046B0003A3033B928B9002218212046FFF7D1FD3E
:1046C000E76084F83A6002B0BDE8F04003B070479C
:1046D0002DE9F3410D880368003518BF01250E460A
:1046E000044629461B6890469847338884F83B5017
:1046F000E38698F80030003318BF012300210746F5
:10470000A3760191E37E009101222046FFF7B9FFD5
:10471000384602B0BDE8F08170B5B1F90020838E53
:10472000066B88B000249A4205468DF81F4012DAC5
:104730001301F118F35873B1C96861B10594049479
:10474000CA680392A1220191029200922146FFF7CA
:1047500098FF204610E000210DF11F001301A12257
:10476000039001900591049102920092F35828461B
:10477000FFF787FF4FF0FF3008B070BD2DE9F04321
:104780001C460423C36001F0200389B00546884617
:10479000914603F0FF06BBB10123A02980F83A300F
:1047A00004D194E80600FFF72EFEA2E0A12904D16F
:1047B00094E80600FFF78CFF9BE0A22940F0978069
:1047C0002168FFF7A9FF94E0182905D10368214665
:1047D0009B6898473046ADE0838E9A4280F2A6806F
:1047E000002AC0F2A380036B03EB02135F68002F63
:1047F00000F09C803046C3B2013054F82320002AD8
:10480000F9D1012285F83A2013B92846B84770E05B
:10481000012B03D129462068B8476AE0022B04D156
:104820002A4694E80300B84763E0032B04D12B46E3
:1048300094E80700B8475CE0042B04D1009594E8A5
:104840000F00B84755E0052B06D123690093019569
:1048500094E80F00B8474CE0062B08D16369019338
:1048600023690093029594E80F00B84741E0072BB5
:104870000AD1A369029363690193236900930395A5
:1048800094E80F00B84734E0082B0CD1E369039398
:10489000A36902936369019323690093049594E8E3
:1048A0000F00B84725E0092B0ED1236A0493E36972
:1048B0000393A369029363690193236900930595A8
:1048C00094E80F00B84714E00A2B10D1636A0593EF
:1048D000236A0493E3690393A369029363690193D1
:1048E00023690093069594E80F00B84701E04FF064
:1048F000FF305FFA88F8002318F0800F85F83A300F
:1049000017D06A682B6AD0502B6B03EB091308F0A1
:104910003F01B3F9082041F040012846FFF7A1FC10
:1049200002462846FFF755FC104603E04FF0FF30E3
:1049300000E0002009B0BDE8F0830CB413B504AC6E
:1049400002AB54F8042B43F8044DFFF789FD02B085
:10495000BDE8104002B070472DE9F843074688468D
:10496000154602F10A0916460024731B4445DBB2C2
:104970002CD24E452ED03A5D06F8012B110604F1DB
:10498000010002F00F0307D45A1E02421EBF5A4212
:104990001040C0181C18E8E702F0BF02A12A05D198
:1049A000384408F035FA02340444DEE782071CBFBD
:1049B00020F0030004305A1E3C58043002421EBF4F
:1049C0005A421040C01804FB0304CEE70020E8540C
:1049D000BDE8F8834FF0FF30BDE8F8832DE9F041E2
:1049E0004FF0000804460E4615464746B04542D2F1
:1049F0000A2F46D014F8082012F0800F08F10100A9
:104A000002F00F010FFA87FE0BD14B1E03421EBFAF
:104A10004A4210404018231845F82E3001EB000898
:104A200026E002F0BF02A12A08D1204445F82E005A
:104A300008F0EEF908F10208804419E083071CBF72
:104A400020F00300043004EB000C225845F82EC07F
:104A500004307B1C4F1E07421CBF4F423840DBB264
:104A600018BF4018271845F8237002FB01081F469D
:104A70007B1CDFB2BAE73BB2002045F82300BDE85B
:104A8000F0814FF0FF30BDE8F08110B58CB01446D6
:104A900001AAFFF7A3FF002803DB01A92046FFF7C7
:104AA0009EFB0CB010BD10B500234418A04204D0EA
:104AB00010F8012B13449BB2F8E7581880B210BDD0
:104AC00038B5436804461971104818606168E06A97
:104AD000E3688B600368CA801D68638D4022A84725
:104AE000002812DBE268236A1A44402A0CD9637E4C
:104AF00053B9E06A61680368403A1D68638D4031CC
:104B0000A84700EAE07038BD002038BD5555AAAA74
:104B100013B5034609B1592200E09522D86A8DF8F1
:104B2000072002685B8D14680DF107010122A04780
:104B30000028B4BF6FF06500002002B010BD000077
:104B40002DE9F7430446C06A904602680F4655684F
:104B500003B1A38C01220DF10501A847051E63DBFB
:104B600002D14FF0FF355FE0DFF8C49000269DF8DA
:104B70000530E06A1B0643EA16264E45238D02687F
:104B800008D055680DF105010122A847051E4BDB31
:104B9000EDD1E6E756686168226AB047002841DB3C
:104BA000236A9D42DDDB63681B783B706768256A7A
:104BB0007B887E68A8F800302946E6603846FFF713
:104BC00072FFC5F140058046E06AAE4228BF2E461E
:104BD000036806F102095D68238D4A463946A847F5
:104BE000051E21DB4D45BCDB6168022231440DF11D
:104BF0000600FFF7E2FA31466068FFF754FFBDF8A0
:104C000006304044834206D1266101212046FFF749
:104C10007FFF002508E000212046FFF779FF6FF0B5
:104C2000010501E06FF06405284603B0BDE8F0839C
:104C30005555AAAA2DE9F843DFF88C90044688461A
:104C400017461E46E06A616803685D680EB1A38C72
:104C500000E033464022A847051E19DB032DF1DD95
:104C600063681A684A45EDD11B7988F8003063689B
:104C7000DA889968236A3A80E16019446369994245
:104C800009D92046FFF7CAFB002804DABDE8F883FB
:104C90002846BDE8F883E668236A1E44B54201D27F
:104CA000637E2BB10020BDE8F8830544AE42F9D9FC
:104CB000E06A61680368721B5F68238D2944B84706
:104CC0000028F2DABDE8F8835555AAAA2DE9F34782
:104CD000036AC1681944436903319942044605D9FE
:104CE000FFF79CFB061E01DA304659E00027B84664
:104CF0002169E568A94249D2E38ED4F82CE06068C6
:104D00006D1A9D4228BF1D46DEF800300144D3F8DD
:104D10000490E38CEA1C7046C847002838DBAB1CC3
:104D2000B34238DA236961682B44022211F803A0E8
:104D3000013319440DF10600FFF73FFAD4F8109043
:104D40006068691C4844FFF7AEFEBDF80630834238
:104D50000FD1D04502BF4D4408F1010825614FF045
:104D60000101204608BF5FFA88F80027FFF7D0FE50
:104D7000BEE700212046FFF7CBFE7B1C94F83820CD
:104D8000DBB29A420AD90237FFB2B1E7002007E04E
:104D90006FF0640004E04FF0FF3001E06FF00300BB
:104DA00002B0BDE8F0872DE9F84304460F4690466F
:104DB0001D469DF82090FFF70CFA067E26B14B4663
:104DC000FFF738FF16E001364B464246394620468B
:104DD000FFF7B6FE831C07D194F838309E42F2D319
:104DE0006FF00300BDE8F88308B1BDE8F883204602
:104DF000FFF76CFFD8B93B78206A13F0400F0ED054
:104E000063681844042200F8042C6168236A0B4488
:104E100003F8012CE368206A13440438E3606368F4
:104E2000E1682A461844BDE8F843FFF7D7BDBDE85E
:104E3000F8832DE9F0414FB290B0002F04460D46A3
:104E40009046049303DB90F83B30002B5AD00026A9
:104E50002046E660FFF7BDF904A92046FFF703FCF2
:104E6000002851DB002FAABF80238DF80D508DF84C
:104E70000D3042469DF80D102046B8BF3546FFF76D
:104E8000F0F9002840D1E9073AD4E06A03689B684A
:104E9000984705AE012300930DF10E0233460DF144
:104EA0000D012046FFF77FFF70BB9DF80D104A06ED
:104EB00010D42368BDF90E205F6820463346B847FA
:104EC000E06A0368DB689847A38C9842E2D96FF0E8
:104ED000640019E0AB070DD5049B1A1D04921A68F3
:104EE000002AF9D0002356F8231042F8231039B1D4
:104EF0000133F8E7314604A8FFF771F9002803DB16
:104F0000002001E06FF0050010B0BDE8F0810CB4A6
:104F100007B504AB33F9042B0193FFF78AFF03B005
:104F20005DF804EB02B0704730B5044689B00D4619
:104F300012B1FFF71CFA01E04FF6FF7007AB002239
:104F4000049300B20223029001930592039200950C
:104F5000A123A0212046FFF7DAFF0028ACBFBDF84F
:104F60001C004FF6FF7000B209B030BD30B5002212
:104F70008BB004460D4609B1C38E00E00B46069285
:104F80000DF123010392E27E0591029209A901220B
:104F900004910192009300220223A1212046FFF7F1
:104FA000B6FF002808DB9DF82330099884F83B50B1
:104FB000003318BF0123A3760BB030BD10B50446F3
:104FC0000B68E16208461B6900219847C0F3400066
:104FD0002076E06A036800211B69984700F0010011
:104FE0006076E06A03685B699847237EE0860BB1D0
:104FF0000C2300E008232362637E63B1E06A036848
:1050000001211B6998476060E06A036802211B69FF
:105010009847606105E08020606106490BF060FA06
:105020006060207F28B120460121BDE81040FFF7D5
:105030009DBF10BD0070011070B51E46184B036077
:105040000446032380F8383080F8393000254FF4C7
:105050007A738384C56205764576456085604FF432
:10506000FA7063854023E0842085E17622770D493C
:1050700084F83A5084F83B50A576A3864FF48060BC
:105080000BF02EFAA28E20631201294607F05EFC77
:105090001EB131462046FFF791FF204670BD00BF8C
:1050A000C857011000700110F0B505468FB00E46CC
:1050B0000024002300930DF10A0203AB0DF1090156
:1050C0002846FFF770FE58B92B68BDF90A205F68C3
:1050D0009DF8091003AB2846B8470EB10134E8E744
:1050E00020460FB0F0BD37B5C06A03680C465D6856
:1050F0000DF1070113460122A84700280ADB0CD056
:105100009DF80730592B4FF0000006BF0123237094
:10511000207004E06FF0640001E04FF0FF3003B056
:1051200030BDF7B502AE002306F8043D0446216900
:10513000E568A9424AD2E38ED4F82CE060686D1A83
:105140009D4228BF1D46DEF8003001441F68638D74
:105150002A467046B847002802DA6FF0650036E04C
:10516000E06A036801221F68638D3146B847002852
:10517000F3DB2369606829461844FFF794FC01219A
:1051800007463046FFF78FFC3844ADF80600E06A6A
:10519000036802221F68638D0DF10601B8470028DD
:1051A000DBDBE28C0DF105012046FFF79CFF0028B8
:1051B0000DDB9DF80530002BB9D023691D449DF807
:1051C0000430256101338DF80430B0E7002003B0CE
:1051D000F0BD0000F7B504460E46C06A2A4B02A98E
:1051E000154641F8043D036804221F68638DB847E3
:1051F000002846DB63681E706168E06AE3684B6004
:1052000003684D80226A1D68638DA847002838DB3B
:105210006668216A3046FFF746FCE568ADF8020093
:10522000E06A402D036828BF40251F68638D2A4629
:105230003146B847002802DA6FF0650021E02946C0
:105240006068FFF730FCBDF8023002A9184421F86D
:10525000060DE06A036802221E68638DB0470028CD
:10526000EADBA28C0DF101012046FFF73CFF00288C
:1052700007DB9DF8013013B12561002001E06FF0DC
:10528000010003B0F0BD00BF5555AAAA037E70B55A
:1052900004460D4616461BB1BDE87040FFF710BC32
:1052A000324629462046FFF795FF821CF8D020B9E8
:1052B0002046BDE87040FFF734BF70BD09B1002340
:1052C0000362C26982B1036A11688B4220DA926874
:1052D00002EB830132F82320498802810133042242
:1052E00041818281C281036200234361036143895A
:1052F000B0F9041043F001039AB2038943F00103AB
:105300009BB201FB023302681344836101207047A2
:105310000020704738B500230360C3808380C381B9
:10532000838104464381038103C984E80300106834
:10533000516804F1080503C5E36101212046FFF728
:10534000BDFF204638BD002310B50360C3808380B5
:105350000446C38183814381038103C9E26184E8F8
:10536000030001212046FFF7A9FF204610BD2DE9CB
:10537000F0414FF00008838904699C420AD34369D5
:10538000B0F90440C0F8108002334361836903EB35
:1053900044038361C38944699C4234D286690369AA
:1053A000F518F45C15F801CCB0F904505D1B16F843
:1053B00005E0354415F8013C2AB10CEB0E056D10E3
:1053C0001470557093700569C1B104EB0C071F444C
:1053D000252F02DC02350561CDE704EB0E061E44E5
:1053E000252EF7DDCCEB0404CEEB0303E403DB0353
:1053F00094FBF7F493FBF6F30C604B600235056108
:105400000120BDE8F0810020BDE8F081C36970B5DE
:1054100004460D46164653B1FFF7A9FF58B9014699
:105420002046FFF74BFF30B1324629462046BDE803
:105430007040FFF79CBF70BD2DE9F3470DF10809DF
:1054400000248846012182468DF806408DF80540EB
:1054500009F8044DFFF732FF2646254627464A46FF
:1054600000215046FFF7D2FF50B19DF804301F4491
:105470009DF805301D449DF8063001341E44EEE7CA
:10548000B7FBF4F7B5FBF4F5B6FBF4F0B8F1000F99
:1054900001D0C8F800402D0245EA0745284302B074
:1054A000BDE8F0872DE9F04F8BB00AAF06910024DC
:1054B0000121069809941546994647F8084DFFF7CB
:1054C000FDFE00210022CDE90212CDE900122346A3
:1054D0000594A04626460022394606980793FFF712
:1054E00095FF079B824628B308992A68E86891428D
:1054F0006A68C8BF08F101089142BEBF059A01322F
:105500000592099ADDE900AB82422869C8BF0133E0
:105510008242B8BF01341AEB010A4BEBE17BDDE9B3
:105520000201801841EBE271CDE900ABCDE9020147
:105530000136D0E707EE906AB8EE677A07EE908AF8
:10554000F8EE677A3246C7EE876ADDED057AC9ED77
:10555000006AF8EE677AC7EE876A07EE903AF8EECF
:10556000677AC9ED016AC7EE876A0346DDE9000183
:1055700007EE904AF8EE677AC9ED026AC7EE876ACD
:10558000C9ED036A06F048FC3246A8605346DDE9DF
:10559000020106F041FC68610BB0BDE8F08F2DE917
:1055A000FF4100230746884614461361D3605360C9
:1055B00013601F264FF080456B4622464146384611
:1055C000FFF770FFD7ED5E7A9DED007A2368B4EEA9
:1055D000E77AF1EE10FA9DED017ACCBF5B195B1B07
:1055E000F4EEC77A236063689DED027AF1EE10FA5B
:1055F0004CBF5B1B5B19F4EEC77A6360E3689DEDFB
:10560000037AF1EE10FA4CBF5B195B1BE360F4EE1A
:10561000C77A2369F1EE10FA4CBF5B1B5B19013EA0
:1056200023614FEA6505C7D104B0BDE8F0810139B7
:10563000C9B2062970B55AD84B01C2180344D269C1
:105640009D68012A01F1600200EB8202D2ED017A2D
:1056500008BF90ED607A4FEA41124FF0140404FB4A
:105660000104815808BF67EE877A491B07EE105A7C
:1056700006EE901AB8EEC77AF8EEE66AB0EE476A20
:10568000A7EEA66A8618D9685869FDEEC66A091A97
:10569000C4ED386A7268521B06EE902AF8EEE66A8C
:1056A0001A69A7EEA67A121A06EE901ABDEEC77A0C
:1056B000F8EEE66A84ED397A07EE100AB8EEC77A9A
:1056C0009869B0EE476AA7EEA66AFDEEC66AC4ED19
:1056D0003A6A06EE902AF8EEE66AA7EEA67ABDEEE2
:1056E000C77A84ED3B7AFEF781F9C4F8F00070BD0B
:1056F00070B55C1E1E46E3B2062B8AB0054615D86F
:1057000001A8FFF707FE06F10062013A05EB42121D
:1057100001A92846FFF743FF05EB44120024284661
:10572000D4613146FFF783FF204601E04FF0FF30A0
:105730000AB070BD4B1E062B9DBF01F1006101F147
:10574000FF3100EB411000207047F8B54C1EE3B26A
:10575000062B06460F460ED8154600EB44140FCD17
:105760000FC495E80F0084E80F0030463946FFF774
:105770005EFF0020F8BD4FF0FF30F8BD002330B5CC
:105780001C46D0F8702109B9D15403E0D55C8D4294
:1057900008BFD4540133B3F5805FF2D130BD2DE999
:1057A000F74F00210446FFF7E9FF0125E9B2204643
:1057B0000135FFF73CFF082DF8D100200023C3EB93
:1057C00000094FEAC932C9F3C50900924FEA8912AC
:1057D0000192002503EB000BD4F86C210BEB0501C3
:1057E0008A4204DD0435B5F5807FF5D139E0C3EB9D
:1057F0000508009A92FBF1FC4FEAC83292FBF1F1E6
:10580000019AC8F3C50802EB080AA64622460126FB
:10581000DEF8007017B9DEF80470D7B1D2F8E07086
:10582000674516DAD2F8E470674512DDD2F8E87001
:105830008F420EDAD2F8EC708F420ADDD4F8701184
:1058400011F80A700FB1B74201DD01F80A60414654
:10585000CC460136082E0EF1200E02F11402D7D1EB
:10586000C0E70433B3F5807FA9D10430B0F5807F61
:10587000A4D1002003B0BDE8F08F000010B500F106
:1058800020030446002200F5807043F8042C43F8FE
:105890000C2C43F8102C43F8142C43F8182C43F824
:1058A0001C2C43F8202C20338342EED1C4F8701115
:1058B000E0220021204607F049F88C22002104F163
:1058C000E00007F043F800212046FFF757FF4C2384
:1058D000C4F86C314FF07A53C4F87C314FF4FA635A
:1058E000C4F87431084BC4F8783108494FF07F533D
:1058F000C4F8803104F5D07204F5C27343F8041B78
:105900009342FBD1204610BD6666663F00002040F2
:1059100043B90A88032A2ED9043A0A808A880432B5
:105920008A8024E0012B08D14A88032A1FD9CB881A
:10593000043A04334A80CB801BE0022B0AD18888CA
:105940000B88B2F9042003440333934213DA043082
:1059500088800EE0032B0CD1C8884B88B2F9062052
:1059600003440333934206DA0430C88001E018464A
:10597000704700207047012070472DE9F04710461E
:105980008CB000240A46014603A89A46029401946A
:10599000FFF7C0FC00260027B046B946002201A947
:1059A00003A8FFF733FD054650B1019B18EB030830
:1059B00049EBE379029BF61847EBE3770134EDE717
:1059C000224603464946404606F026FA2246CAF8D1
:1059D00000002B463046394606F01EFACAF804008D
:1059E0000CB0BDE8F0874B1E062B9CBF00EB81007E
:1059F000C0F880217047C0F874117047DFED077A56
:105A000007EE101A67EE277AFCEEE77A17EE903A67
:105A100003B90123C0F86C31704700BF00403F4418
:105A2000C0F8801170470139CBB2062B9ABF00EB4A
:105A30004110C069002070472DE9F04F2DED028B19
:105A40008BB0B1F804B0B1F806A003921D46042350
:105A5000ADF82430ADF826300B88ADF82030D345B2
:105A60004B88ADF822305B4638BF5346002408EE21
:105A7000103A814607940694264618EE103A9E4244
:105A80005FD206AB039A08A94846FFF776FF2B685A
:105A90000698079A181A6B689B1A5B4300FB003044
:105AA00007EE900AF8EEE77A17EE900A05F0DEFEB0
:105AB0000BF00CFE06F060F907EE900AFCEEE77AB8
:105AC000D9F8743117EE900A98422BD2169B06989B
:105AD000D3F800802F6808F101031946DA17CDE9E1
