:020000041400E6
:1000000000800020D101001491010014930100141C
:1000100095010014970100149901001400000000DC
:100020000000000000000000000000009B01001420
:100030009D010014000000009F010014A1010014A4
:10004000A3010014A3010014A30100140000000088
:10005000A3010014A3010014A3010014A3010014C0
:1000600039870010A3010014A3010014A301001498
:10007000A3010014A3010014A3010014A3010014A0
:10008000A3010014A3010014B1170010A301001470
:10009000A3010014A3010014A3010014A123001064
:1000A00001250010A3010014A3010014A3010014F2
:1000B000A3010014A3010014A3010014A301001460
:1000C000A3010014A3010014A3010014A301001450
:1000D000A3010014A3010014A3010014A301001440
:1000E000A3010014A3010014A3010014A301001430
:1000F00000000000A3010014A3010014A3010014D8
:1001000000000000A3010014A3010014A3010014C7
:10011000A3010014009A0114A07501100C0900003D
:100120003078011400000020000000003078011435
:10013000000008100000000030780114008000204A
:10014000D0210000009A011400C00020000000002F
:100150009002001400000010007301000000001461
:10016000000000101401000000800110440B00008A
:100170000000002000000000000008100000000047
:10018000D0A100200000000000C0002000000000FE
:10019000FEE7FEE7FEE7FEE7FEE7FEE7FEE7FEE737
:1001A000FEE7FEE710B50B46401A5C1AA24203D9DF
:1001B000C45843F8044BF8E710BD10B503460022BD
:1001C0001C1AA14202D943F8042BF9E710BDFFFF26
:1001D00038B572B61B4B1C4A1A601C4A5A601C4A3E
:1001E0004FF0FF33136053609360D360136153612A
:1001F0009361D36162B6174C174DAC4201D3174DD2
:1002000007E094E803000C3454F8042CFFF7CAFF0D
:10021000F3E7AC4206D254F8080B54F8041CFFF77D
:10022000CCFFF6E7DFF84000016841F4700101609F
:100230000B4B1A680AB10B4A136000F021F800F06A
:1002400017F8FEE7003105400010DF10FFF7DF016F
:1002500080E200E014010014680100149001001411
:100260000000001008ED00E088ED00E0FFFFFFFF58
:1002700001B40248844601BC604700BFE518001085
:1002800001B40248844601BC604700BF15C000109D
:10029000000000000000000000000000000000005E
:1002A000000000000000000000000000000000004E
:1002B000000000000000000000000000000000003E
:1002C000000000000000000000000000000000002E
:1002D000000000000000000000000000000000001E
:1002E000000000000000000000000000000000000E
:1002F00000000000000000000000000000000000FE
:1003000000000000000000000000000000000000ED
:1003100000000000000000000000000000000000DD
:1003200000000000000000000000000000000000CD
:1003300000000000000000000000000000000000BD
:1003400000000000000000000000000000000000AD
:10035000000000000000000000000000000000009D
:10036000000000000000000000000000000000008D
:10037000000000000000000000000000000000007D
:10038000000000000000000000000000000000006D
:10039000000000000000000000000000000000005D
:1003A00000000000002070470020704708B5F022D0
:1003B00002230321012005F097FF064B04229A62D5
:1003C0004FF48062C3F81822A3F5003308225A6064
:1003D000002008BD0010104010B5054B00245C60E3
:1003E000F02205230321012005F07EFF204610BDE9
:1003F00000100E401E4B70B50021054618681D4EBA
:1004000002F077FB044648B32A7902235AB14188A7
:100410008088401A90FBF3F3194409044FF4A07349
:10042000B1FBF3F30BE0C2880089801A90FBF3F173
:100430000A44C2F1C8021204C823B2FBF3F34FF618
:10044000C0721A400C4B1A606B7913B9642006F025
:100450007FF94FF48063C6F8143203E0064BC6F808
:1004600014021860003418BF01246C71002070BDA4
:10047000048001100010104000100E400171704700
:1004800008B5082000F07CFF044B036001230371D2
:1004900000234371024B186008BD00BFB034011047
:1004A0000080011000B52DED028B884208EE103A55
:1004B000034628BF0B4687B0934228BF13460291DC
:1004C000C91A03904943C01A019200FB0010D21AC6
:1004D00002FB020007EE900AF8EE677A17EE900A28
:1004E0000BF02CFA11F052F90BF08EFC1E2804D8F8
:1004F000092803D80023059310E01E20DFED1D7AA4
:10050000B8EE488A28EE278A07EE900AF8EEE77AD6
:1005100028EE278ABCEEC88A8DED058A059BB3F5C7
:100520007A6F88BF4FF47A6305A888BF059305F0FA
:1005300047FD019A0299039803F048FA03F05EFA26
:1005400001AB02AA03A903F04FFA039B8DF8113007
:1005500006AA029B8DF81230019B02F8053D0DF1B1
:1005600012010DF1110005F001FD07B0BDEC028B89
:100570005DF804FB8FC2753C10B592B010230024C7
:1005800040200793069400F0FDFE031D00F1440295
:1005900023F8024C23F8044C04339342F8D1174B50
:1005A000089018681649A023ADF824306423ADF8EC
:1005B000263009AA06AB05F045FB03230093114B37
:1005C00004221B68114606A800F0FAFD06AA0C4991
:1005D00009A804F0DEFE05A909A804F053FF04AB46
:1005E00003AA02A903F000FA02A80FC8FFF75AFFF6
:1005F000089808B100F0CAFE12B010BD04800110C6
:10060000A8800110F480011013B501A80C4606F073
:10061000E7F8019806F0EAF8A042FAD306F04AFD9E
:1006200002B010BD13B5044602A8002340F8043DF3
:1006300005F0B0FC4EF660212046FFF7E5FF60783C
:10064000034B03EB800005F0A5FC02B010BD00BF1A
:10065000003E011037B5002405464470047202A81C
:1006600040F8044D05F096FC2C7003B030BD10B579
:100670000446FFF7EFFF204610BD00002DE9F341CF
:1006800000240F4E054688462746444514DA01A843
:10069000019705F07FFC4EF660212846FFF7B4FF76
:1006A000687806EB800005F075FC4EF66021284660
:1006B000FFF7AAFF0134E8E702B0BDE8F08100BF10
:1006C000003E011030B585B0A023ADF8083004AB72
:1006D0000022642123F8061D0392411C0092044667
:1006E00002AA03A800F0D4FDC82205464FF4A07169
:1006F000074806F04BFD002D08DB064B012118686A
:1007000001F0F8F804212046FFF7B8FF05B030BD2E
:10071000C4340110F48001104378072B01D8FFF78F
:1007200081BF704701292DE9F04704460F464FDD90
:10073000DFF8A480DFF8A490061D06F013F8054644
:1007400006F0B8FC94F800A0BAF1010F0AD003D368
:10075000BAF1020F18D037E0304606F041F8012315
:1007600023702DE055B1304606F03AF884F801A028
:100770002046FFF757FF02232370DEE7606806F08C
:1007800035F84045D9D901E055B9657804212046AE
:10079000FFF774FF2046FFF75DFF2846BDE8F087AE
:1007A000606806F023F84845C7D9304606F018F8C7
:1007B00063780133DBB27A1C934208BF0123637074
:1007C0002046FFF7A9FFB8E72046FFF743FFB4E74D
:1007D0000020BDE8F08700BF60E3160040420F0034
:1007E00030B5044689B005F0BDFF237A05460BB34A
:1007F00021238DF8153000230293ADF81630ADF8A3
:100800001830694B4FF4A0721B68ADF81A200193A1
:10081000C82207ABADF81C20009306AA0DF11A03FD
:100820000DF116010DF1150003F086FC2046FFF7CF
:10083000A3FE1FE02278EAB1ADF81630ADF818300B
:100840004FF4A073ADF81A30C823ADF81C30012363
:100850000293554B1B680193212207AB8DF815209D
:10086000009306AA0DF11A030DF116010DF1150002
:1008700003F062FC2378052B00F28D80DFE803F0A3
:1008800003193159678A002D00F08880201D05F07A
:10089000A7FF464B08AD1B8845F8043D284605F0E8
:1008A0008FFB0123237028460023079305F072FB7A
:1008B00074E00DB9257071E0606805F097FF3C4B5E
:1008C00098426BD903F0E4F810B10123637000E0A3
:1008D0006070201D05F084FF2046FFF71DFF0223F6
:1008E0002CE095B903212046FFF7C8FE201D05F036
:1008F00077FF627801232AB908A800F8043D03F0C5
:1009000009FA00E02372032318E0606805F06EFF27
:10091000284B984242D9201D05F062FF63780133CD
:10092000DBB2082B08BF002363702046FFF7F4FEFC
:1009300034E02DB1201D05F053FF042323702DE07A
:10094000606805F053FF1C4B984227D923E07DB91E
:1009500063784BB908A800F8045D03F0DBF90421C3
:100960002046FFF78BFE16E02046FFF7ABFE12E0B5
:10097000606805F03BFF0E4B98420FD9637823B9AE
:1009800008A800F8043D03F0C5F92046FFF762FE11
:100990000523D3E715B92046FFF75CFE2078003029
:1009A00018BF012009B030BDF48001100C80011087
:1009B000D012130040420F000087930330B5046843
:1009C000013A234608681D1BA84204D912F8010FFA
:1009D00003F8010BF6E730BD07B5002201A9054871
:1009E00006F03CF9044B0199186805F02AF803B0A9
:1009F0005DF804FB743501100480011013B5074C39
:100A000007480022214606F029F902A8238840F869
:100A1000043D05F0D5FA02B010BD00BF0C800110F6
:100A20008E35011008B50378532B08D1837A0A68F4
:100A3000303BD9B20B4B186804F0FBFF06E04D2B9E
:100A400004D1084B0968186804F0FEFF00F038FF75
:100A500038B1044B186804F0C8FEBDE8084000F047
:100A600039BF08BD0480011030B5114D8BB0012491
:100A70002246104902A80CF035F8002301AA694665
:100A800002A806F0EBF8002810DBE1B2019A286812
:100A9000013404F080FE082CEAD1054B186804F0FC
:100AA000A4FE054B186806F015FE00200BB030BD03
:100AB000048001109D35011008800110F0B597B039
:100AC000074618881C9B1288ADF80C200C46198824
:100AD0001D9BADF80E001B88ADF812302378ADF8E1
:100AE00010105A1E062A37D81D4E32682AB91D48E2
:100AF00006F04CFB6FF0010030E01B4D03AA3146BD
:100B0000286804F01BFE2178286804F039FE3B6851
:100B1000C361054603AA31460DA804F021FC00215B
:100B20000DA804F0AFFCA86122781049002405A8A4
:100B30000BF0D8FF2B4620228121009405A806F057
:100B400071F8FFF791FF0A4806F020FB1E9801217B
:100B500000F0D0FE204601E04FF0FF3017B0F0BDAE
:100B6000A8800110A9350110048001109D350110E5
:100B7000C235011070B5037892B0013B0024062BFA
:100B800005460E4611940F940E940D940C940B94FC
:100B90000A941BD8214620220AA80BF03FFF2A788E
:100BA0000C4902A80BF09EFF0AAB20228121009481
:100BB00002A806F037F80446FFF756FFFFF754FF88
:100BC0003046012100F096FE204601E04FF0FF3054
:100BD00012B070BD9D350110F0B593B012AE002477
:100BE00046F8204D074620222146304611940F94A6
:100BF0000E940D940C940B940BF010FF01252A46D3
:100C00000C4902A80BF06EFF00943346202281218C
:100C100002A806F007F8002809DB0135082DEED1FF
:100C2000FFF722FF3846012100F064FE002013B0D8
:100C3000F0BD00BF9D3501102DE97043B6B0002313
:100C4000DFF8589214931293119310930F930E930D
:100C50000D9301254FF000082A467749774E15A8D5
:100C60000BF040FF2A4676491DA80BF03BFF0DAB69
:100C700000240193202300931DAA812301210294C3
:100C800015A806F013F82A466E4915A80BF02AFF9E
:100C90002A466D491DA80BF025FF14231DAA4FF409
:100CA00080710294CDE9008915A805F0FFFF224666
:100CB00007A915A805F0D2FFE9B2079A306804F039
:100CC000B8FE0135614915A806F05AF8082DC3D1C0
:100CD00055A3D3E900230294CDE900234FF480719A
:100CE00014235B4A5B4805F0E1FF5849594806F078
:100CF00047F84FA3D3E900232146CDE9002302940E
:100D00001423554A554805F0D1FF0123009321468D
:100D10000194534A534805F0C9FF4FF4FA63009316
:100D2000514A019404234FF48071504805F0BEFFEE
:100D30004F494E4806F024F840F2EE2300934D4A06
:100D4000019402234FF480714B4805F0AFFF4FF43C
:100D50007A754A49484806F013F8009521460194EF
:100D60000223474A474805F0A1FF00952146019418
:100D70000223454A4548464D05F098FF1423009349
:100D8000214604230194434A434805F08FFF22463D
:100D900006A93C4805F062FF22460DF11A013B48C6
:100DA00005F05CFF224608A93B4805F057FF2246A4
:100DB0000DF117012B4805F051FF22460AA92548DD
:100DC00005F04CFF22460BA9244805F047FF2246B8
:100DD00009A9264805F042FF22462946264805F083
:100DE0003DFF9DF81730BDF81A20BDF8181000938C
:100DF0003068089B01F082FD0A99306804F024FEF7
:100E00000B99306804F032FE0999306804F019FE3D
:100E100036A82B8840F8A83D05F0D2F8FFF724FE4D
:100E200036B0BDE8708300BF000000A09999B93FBB
:100E3000000000C0CCCCFC3F9D35011004800110A7
:100E4000E8350110FB3501100E3601109507001032
:100E500065360110C4360110D33601102F3701104A
:100E600045370110A8370110B8370110743501104B
:100E700049070010423801108E3501106D0700102F
:100E8000E43801102B390110363901109539011061
:100E90000C800110AE390110213A0110000004400D
:100EA00070B50546042000F06BFA124C064606F0B9
:100EB000A7FB4FF42470266000F062FA0E4A216806
:100EC000064601F0DDFC0D4B0D491E60284603F07F
:100ED000ADFA0C4B0C491868002204F04BF80B4B90
:100EE0000028188003DBFFF7A7FE002070BD4FF03D
:100EF000FF3070BD0880011000100910048001103F
:100F0000CC340110F8800110B93A0110A07501101D
:100F1000F0B58BB006460AA801254FF0FF3300F864
:100F2000055D0F461446099302F036FF00281EDBCC
:100F3000104B1148B3F9002074B109AB00210493A0
:100F4000042306910591039102970193009600688E
:100F500004F003F809980AE0042304940394029728
:100F6000019300962946006803F0F7FF20460BB076
:100F7000F0BD00BFA0750110F88001102DE9F04F01
:100F80008DB08046DFF8CC902C480B91002406F001
:100F9000FDF802274FF0B10B4123494601934FF46E
:100FA0008032642309940894CDF81CB00694059708
:100FB0000494039702940094404603F0E4FC204D0F
:100FC0008246286806F086FB01221E491E48FFF76C
:100FD0009FFFCAF58036F6080AF1805132460A9022
:100FE00001F50021286806F03AFB184B054601215F
:100FF000186804F07FF8C82306934FF4A073049395
:10100000134A0B9B0293ED0041238DE80C004946E7
:101010006423324609940895CDF81CB005970397D0
:10102000404603F0B0FC0AEB05024946404603F097
:101030006AF90A980DB0BDE8F08F00BF303A011090
:10104000088001100010091000000910F88001103C
:1010500043435132000008100121FFF78FBF000009
:101060002DE9F0418EB0054617480F4616469846C2
:1010700006F08CF8149ACDF82C800C2353435B08AF
:101080000A930A2303FB06F2C82305934223049321
:10109000029352089DF85430079200248220019355
:1010A0004FF4A072412309900690039200930D948F
:1010B0000C940897054B64222146284603F007FB51
:1010C00020460EB0BDE8F0819B3A01104343423206
:1010D00008B5000244F62063B0FBF3F0C0B107EEA0
:1010E000900AF8EEE77A17EE900A0AF027FC10F063
:1010F000CFFA0022074B0AF075FC0AF085FEFF28A4
:1011000003D8002808BF012000E0FF20C0B208BDBE
:10111000012008BD0000494030B5284C85B00021B1
:10112000206801F0E6FC002841D00388072B9FBF10
:10113000216803F1FF32142303FB0213428898BF96
:10114000D3F8F0508388A3EB02030289C088A2EB96
:10115000000000FB03F088BF6FF07F45FFF7B8FF8A
:1011600001A9044603AB02AA284602F03DFC0399FC
:1011700011B16143090A0131029B039113B1634329
:101180001B0A01330198029310B16043000A013039
:1011900004AA01908DF8010002F80D1D0DF1010067
:1011A0000DF102018DF8023004F0E0FE03E003903F
:1011B00003A804F0EFFE05B030BD00BF04800110AD
:1011C0002DE9F04F91B01D4606469DF868302D4838
:1011D0000F938A46934605F0D9FF002D4FD0022485
:1011E00000234FF0B2094FF041080D930C930A937E
:1011F00008930693049302938DE80801CDF82C9090
:10120000642309940794059403944FF490321E4983
:10121000284603F0B8FB3268B168074600F18050F9
:10122000A24000F500200BF05FFB3368CDF82C9056
:10123000A3405B080C93C82306934FF4A073049358
:101240000F9B0293114B0093CDF828B00994CDF871
:1012500020A0079405940394CDF8048064234FF4F0
:1012600090320949284603F08EFB3268064907EBA5
:101270008202284611B0BDE8F04F03F044B811B027
:10128000BDE8F08FA83A011000000810424C54311C
:101290002DE9F04796B0002480469A46402010235E
:1012A0000E4603939146029400F06CF82546011D0A
:1012B00000F1440321F8025C21F8045C04319942F6
:1012C0004FF00004F6D1337804905A1E062A45D810
:1012D000274F3A682AB9274805F058FF6FF00104F4
:1012E0003EE0254DBAF80020B9F800100093ADF8A3
:1012F000341002ABADF8362039460DAA286804F048
:1013000073FD3178286804F03BFAD8F80030C361E7
:10131000054602AA39460DA804F03BF821460DA85F
:1013200004F0B0F804220323A8611146009302A838
:101330001E9BFFF745FF3278104905A80BF0D2FB42
:101340002B4620228121009405A805F06BFCFFF7B5
:101350008BFB01211E9800F0CDFA01E04FF0FF3425
:10136000049808B100F012F8204616B0BDE8F087E6
:10137000A8800110A9350110048001109D350110CD
:101380000AF0B8BF0AF0B6BF0AF0BCBF0AF0BABF95
:1013900000207047FEE70000012884B046D880B9DD
:1013A000234B24481A680092009AD2011AD5009A59
:1013B000D24342F080720192019A02601A68009250
:1013C000F2E71D4B1D481A680092009AD2041BD503
:1013D000009AD24342F480520192019A02601A6844
:1013E0000092F2E7164A11601A6812490292029AB4
:1013F000D0011BD4029AD24322F080720392039A46
:101400000A601A680292F2E70E4A11601A680B49E4
:101410000292029AD20409D4029AD24322F4805250
:101420000392039A0A601A680292F2E704B07047C6
:10143000543105400431054050310540003105402C
:101440000434044008330440014B002018707047F6
:1014500040800110034A01231370034A00201370D7
:10146000704700BF408001101480011037B5002480
:101470000C4D01942146009401230B4A0B4805F0C2
:1014800015FC2146019400940123094A284605F0E1
:101490000DFC08492246284603B0BDE8304005F05F
:1014A000DDBB00BFA33F0110003F0110563F0110FC
:1014B000663F01101580011013B5037833B1082B76
:1014C0002AD8013B164A52F823302BB3154B002281
:1014D0001A600478B4B922460DF10701124805F0EC
:1014E000BDFB9DF807104A1ED3B2072B06D80C4946
:1014F00051F822204AB10D4A137006E00B480470DF
:1015000019B1F4E7094B013C1C70094A012313701F
:10151000084A0020137001E04FF0FF3002B010BD08
:101520002080011010800110563F01101D80011015
:10153000408001101480011010B50C46FFF7BCFF6D
:101540000028A1BF024B22681A60002010BD00BF16
:101550001080011038B5074D002455F8240038B12B
:10156000013490E80C002146034805F00FFEF4E733
:1015700038BD00BF20800110A93F011010B50B4AF3
:1015800086B0044610689288049004ABADF814202D
:1015900044B100210093029101910623822220464A
:1015A00003F095F8002006B010BD00BF203E0110EA
:1015B00030B50388112B85B00C4612DC002599B19B
:1015C0000B49039501EBC302029552680192A122D7
:1015D00051F8333000922946204603F078F8284627
:1015E00003E04FF0FF3000E0084605B030BD00BF1B
:1015F00020480110044B187828B9044B1B78002BA5
:1016000014BF022000207047148001101C800110BC
:1016100038B504460C20FFF7B3FE0546FFF727F860
:101620000F4B10491D6020460F4C02F0FFFE0022B8
:101630000E49206803F09EFC0D4B0E4918800022D5
:10164000206803F097FC0C4B0C491880002220689E
:1016500003F090FC0A4B1880FFF708FF002038BD0C
:1016600018800110283E0110F8800110B53F0110CC
:10167000A6750110B93F0110A2750110C13F0110FC
:10168000A4750110064B09B1D86107E053F8212079
:101690000AB10131FAE7024B43F8210000207047FC
:1016A0002080011010B50B4B88B0B3F900200090DA
:1016B0000021044607AB084802930491039101916D
:1016C0000123006803F049FC044B07981C7008B024
:1016D00010BD00BFA6750110F88001100E8001102A
:1016E0007FB5084B0848B3F9002005A900230091F5
:1016F000029301931946006803F02FFC059807B088
:101700005DF804FBA4750110F88001107FB5094B4A
:101710000948B3F9002005A9002300910293019321
:101720001946006803F019FC9DF8140007B05DF835
:1017300004FB00BFA2750110F880011007B50A482C
:101740000023D9B2013350F82120002AF9D1074BE8
:101750001868FEF7E7FF02AB03F8010D1846FFF724
:10176000ABFE03B05DF804FB20800110188001106F
:1017700008B5FFF761FA00F021FD02F0D3FB06F097
:1017800081F800F0CFFBBDE80840FFF76FBE000016
:1017900008B505F08FFC074B1868FFF721F8064BDA
:1017A000187005F0E5FA18B1BDE80840FFF7E0BF92
:1017B00008BD00BF188001101C8001102DE9F743FF
:1017C000FFF7BCFF0027DFF8F080354EDFF8EC9024
:1017D0003C46D8F8000002F01FFD0546FFF7D8FF91
:1017E000042C06D8DFE804F0081C2E343C003378C3
:1017F000F3B903242F46ECE72A4B1B7823B902A840
:1018000040F8043D04F0C6FB274B1A78274B53F8E9
:1018100022309B6898470028B4BF03240124E9E7DD
:10182000234B1B78002BE2D0FFF75AFF0224E1E79D
:101830001D4B1A781D4B53F82230DB68984700285F
:1018400020DAD6E71A4B1B78002B08BF0024D1E71B
:10185000184A0023337013700424FFF741FFC9E7CF
:1018600033781BB1FFF7F6FD0024C3E71DB199F8EB
:101870000030002BBED102A8002400F8044DFFF771
:101880001BFEB7E7002FB5D0002DB3D104F0BCFF8D
:1018900002A82C4600F8045DFFF70EFEAAE700BF81
:1018A00040800110508001101D8001102080011027
:1018B0001C80011014800110F4800110D8820110E6
:1018C00010B5FFF723FF044608B1FFF709FF2046D4
:1018D00010BD000008B5054B186805F0FBFE044B71
:1018E0001878BDE80840FFF7DDBE00BF0880011092
:1018F0000E8001101FB548B100230293042301910B
:1019000000936422034B182102F0E1FE05B05DF85C
:1019100004FB00BF45565431034B4FF48022C3F8FB
:1019200080200020704700BF00E100E0C269006A2B
:10193000101A7047F0B5002403462546944217D08C
:10194000D8691E6A801B00280EDD58691E69471C75
:101950005F61305C0855186A5E6901301862D868AA
:10196000864203D15D6101E0224601E00134E5E7F2
:101970001046F0BD826838B5536803F0F803982B21
:10198000044651D00BD8802B18D003D8602B4BD0F5
:10199000702B11E0882B47D0902B0FD048E0B82B4C
:1019A00024D004D8A02B3FD0A82B1FD040E0C82BB8
:1019B0003AD0F82B38D0C02B3AD135E09368216A61
:1019C000E269511AE268521A002ADBB226DDA269E6
:1019D0002169501CA0618B54E369A2690133E36162
:1019E000E3689A421AD10023A36117E0237913B167
:1019F0000023936022E0256B35B9636B616AA06AAE
:101A000098472063B8B1E562E36AA26A591CE162B3
:101A1000D25C236B013B2363A3689A60A368042212
:101A20001A6008229A6138BD04231360082300E07D
:101A30002C23936138BDA368986001232371EDE7DF
:101A4000014B1868FFF796BF448001108368382265
:101A50009A6144221A60704710B500230446F022B0
:101A60000321012004F040FC0423F0220121022084
:101A700004F03AFC0423F0220121022004F034FC9B
:101A80000023F0220421012004F02EFC0423F02284
:101A90000021022004F028FC064B0021C3F8181294
:101AA000054B21714FF4802220461A60FFF7CEFFCC
:101AB000084610BD0010104000E100E008B5836842
:101AC0001B685B0701D4FFF7C1FF002008BD13B5F9
:101AD0008DF8051002A9002401F8044D80688DF8E6
:101AE000074004F0D5FB204602B010BD2DE9F843B5
:101AF00020269946134B03600446C66030460F46C5
:101B00009046FFF73FFC002520616561A561E56116
:101B1000256266623046FFF735FCE562A062256308
:101B20003846C4F83490A760074904F06FFB41467B
:101B30002046FFF7CCFF054B83F817532046BDE83E
:101B4000F88300BFB8480110A086010000E100E062
:101B500038B505463820FFF713FC2B4654220349BD
:101B60000446FFF7C3FF024B1C6038BD00100A405B
:101B70004480011010B50E4C05F0AAFA2068FFF75A
:101B80008FF900F06FFB2068FFF742FD0021094844
:101B9000FFF778FD00F0C6F900210748FFF772FD56
:101BA00001210648FFF76EFDFFF708FE002010BD7B
:101BB000F4800110A8750110BC750110CC750110DE
:101BC00013B502AC012304F8013D204602F0E4F80D
:101BD0000B4B186803F009FE0A4B186805F07AFDF4
:101BE0000020FFF75FFD00F051FB036801229B68B6
:101BF000214698470028F6D1034B187002B010BD5B
:101C00000480011008800110488001102DE9F3477D
:101C100000F03CFB494DDFF82C91DFF82C810446A5
:101C20000A262F78012F07D002D3022F18D07AE08E
:101C3000FF2388F8003074E023683A469B686946C1
:101C400020469847002870D09DF8002098F8003072
:101C500088F8002042EA0323A9F80030022363E059
:101C6000B9F80030FF2B26D123682046DB6898475F
:101C700003285ADD23683A469B6801A92046984705
:101C800023683A4602AF9B680DF106014FF0000A47
:101C90002046984707F805AD01A9384605F036FDFE
:101CA00001230DF1060138468DF8033005F02EFDB5
:101CB00085F800A039E0FE2B0AD1236801229B6839
:101CC00069462046984780B3684601F05FFF2AE0E6
:101CD000FD2B26D123682046DB689847022824DDA7
:101CE000236801220DEB02019B6820469847236878
:101CF00001229B680DF102012046984723680122CA
:101D00009B680DF10301204698470DF103020DF188
:101D100002010DF1010004F029F9094B01221A70AA
:101D200001E0012300E000232B70013E16F0FF06C6
:101D30007FF477AF02B0BDE8F08700BF48800110A4
:101D400050800110B87501104980011010B5224C67
:101D500086B0206801F068FD00280BDA1F4B1B7865
:101D6000002B35D01E4B1F4819684A1C1A6005F01D
:101D70000DFA2DE0FFF74AFF05AB009304AA03AB71
:101D800002A9206800F007FF174805F0FFF90123BA
:101D900001931648059B0093049A039B02990068DF
:101DA000FFF75EF900F072FA03681B699847104B61
:101DB0001B780BB9FFF7B0F90E4C23681B689A88A3
:101DC000DB8892B29BB29A4202D1FFF71FFFF4E781
:101DD000002006B010BD00BF048001101580011066
:101DE0004C800110CC480110D5480110F48001103E
:101DF0005080011008800110094B4FF4FA725A60AC
:101E00004FF448729A604FF000421A60054B4FF44D
:101E10002F7159604FF4617199601A60704700BF6B
:101E200054800110608001104368B3F1004F37B552
:101E300004460D461BD0CA1AC1680369694303FBF7
:101E4000021302684FF47A7193FBF1F313448B424F
:101E500001DD016003E0002BB8BF002303602046D2
:101E600002A950F8083B21F8023D05F04FFC6560DF
:101E700003B030BD30B51F4D87B0286801F0D4FCE9
:101E80000021286800F035FEC0B1C388048942886B
:101E9000E41A022194FBF1F41C44838816489B1A2F
:101EA00093FBF1F11144A4B289B2C1F1A001643CE9
:101EB000FFF7BAFF21461148FFF7B6FF05AB04AAAA
:101EC00002A90093286803AB00F065FE0C4805F0FA
:101ED0005DF9012301930B48059B0093049A039B32
:101EE00002990068FFF7BCF8FFF716F9002007B069
:101EF00030BD00BF048001106C8001108080011093
:101F000001490110F480011007B502A94FF4FA73DA
:101F100040F8083B21F8023D05F0F8FB03B05DF8FE
:101F200004FB00002DE9FF41DFF8C080264F274A5F
:101F3000274E284D00244FF4AF738DE81800802100
:101F40000423404604F0B2FE4FF41673009301944C
:101F50000423214A8021384604F0A8FE4FF4FA7386
:101F60000093019404231D4A8021304604F09EFE14
:101F70004FF42F73009301940423194A80212846BB
:101F800004F094FE224602A9404604F067FE224671
:101F900003A9384604F062FE124B029ADA60039AF3
:101FA0001A6102A92246304604F058FE224603A9CF
:101FB000284604F053FE0C4B029ADA60039A1A6129
:101FC00004B0BDE8F08100BF854901100849011047
:101FD000CB490110104A01104D49011090490110E0
:101FE000D74901106C800110808001104249011016
:101FF00007B502A8012300F8013D01F0CDFEFFF76F
:1020000091FF0B48FFF780FF0A48FFF77DFF0A4B5F
:102010001B680BB1FEF728FD084B186805F05AFB4A
:102020000020FFF73FFB002003B05DF804FB00BF7A
:102030006C80011080800110A880011008800110C0
:102040000C4B002119724FF448714FF4FA72196168
:102050004FF000411A60DA605960074B1A600122A4
:102060001A724FF42F72DA604FF461721A6159607C
:10207000704700BF6C800110808001100020704705
:102080007FB521238DF80F300023ADF81030ADF867
:1020900012304FF4A073ADF81430C823ADF81630E9
:1020A000084B1B6801930DF1160300930DF112020A
:1020B00005AB04A90DF10F0002F08EF807B05DF832
:1020C00004FB00BFF48001107FB5134B1B68E3B91C
:1020D000ADF81030ADF812304FF4A073ADF81430F5
:1020E000C823ADF816300D4B1B68019321220DF16A
:1020F00016038DF80F2000930DF1120205AB04A911
:102100000DF10F0002F068F802E00120FFF7B8FFC0
:10211000002007B05DF804FB10800110F48001106E
:1021200008B5034B0A460146186800F083FC08BD59
:1021300004800110052838B5054630D8194C2068B0
:1021400010B103685B689847174B1D70013D042D63
:1021500019D8DFE805F003080A0D1000134B1868C2
:102160002060002113E0124B00E0124B1B6808E0D6
:10217000114D012101E0104D00212868FEF77EF984
:102180002B68236005E0094B18682060012100F0EE
:102190004FF9206803681B689847002038BD4FF04E
:1021A000FF3038BD94800110988001109C80011090
:1021B00044800110A080011000800110F0B5214F73
:1021C000214E224A224D85B00024214601940094DC
:1021D0000123384604F06AFD54230093019401233F
:1021E0001C4A1021304604F061FD4FF496430093E1
:1021F000214604230194184A284604F057FD22463C
:102200000DF10A01384604F029FD9DF80A00FFF798
:1022100091FF22460DF10B01304604F01FFD0F4BDC
:102220009DF80B101868FFF752FC224603A92846B8
:1022300004F014FD0A4B0399186800F005FB05B083
:10224000F0BD00BF0A4B01106D4B01106B4A01102D
:10225000D24B0110184B0110794B01104480011032
:10226000A080011010B5084C2046FFF771FC2046F5
:1022700000F040F9204600F0F1FAFEF701F9FFF70F
:102280009DFF002010BD00BF911E0010014B18687B
:10229000704700BF9480011042698069101A70472E
:1022A000044B0020C3F81802034B4FF40002C3F89C
:1022B000802070470010104000E100E0F0B50024DD
:1022C0000346A646944217D09D695869401B0028D2
:1022D0000DDDDE689F680135701C37F816609D6162
:1022E0005D68D860A84204D1C3F80CE001E0224642
:1022F00002E00E550134E5E71046F0BD0D4B0E48E7
:102300004FF48042C3F814229622016811F0040FA2
:1023100009490BD1013AF8D1C3F8142210220868F8
:10232000400703D4013AFAD1012070470020C3F8D6
:10233000140270470010104014610F4073B5054639
:1023400090F83D00D0B1002204210D480D4E04F05C
:102350002CF801A804F044FA2846FFF7CFFF044602
:1023600028B9019804F042FAB042F5D900E00124FE
:1023700003480122042104F018F8204602B070BD81
:1023800000500C4020A1070038B50F4B042405462F
:102390009C63F02205230321012003F0A5FF2146C1
:1023A0000523F022012003F09FFF0123132118468B
:1023B000F02203F099FF054B4FF400021A60284603
:1023C000FFF7BCFF002038BD0010104000E100E026
:1023D00038B590F83D30044623B3426B836B9A4284
:1023E00016D090F830507DB990F83C300133DBB214
:1023F000052B80F83C3013D1FFF7A0FF0A4804F00A
:10240000C5FE84F83C500BE0002380F83C3007E028
:10241000064B4FF48042C3F814220022C3F8142262
:10242000636BA363002038BDFC4B0110001010400B
:1024300080F83D10044B21B14FF48042C3F81822BC
:102440007047C3F81812704700101040F0B5244BC5
:1024500003601026044689B0466020200F46FEF730
:1024600091FF0025A060E56025616561A561E661D9
:102470002020FEF787FF1B4B07930F232062656226
:10248000A5620293E762042302A917480395049505
:102490000695059303F032FF134A082593680193CC
:1024A000013DFBD10121104803F076FF04210E48C5
:1024B00003F085FF012204210B4803F076FF0B4B4C
:1024C00083F817530A4B84F8305020466563A563A0
:1024D00084F83C5084F83D50C3F8185209B0F0BD60
:1024E000E84B011000CB280C00500C4000E100E04C
:1024F0000010104038B505464020FEF741FF294640
:102500000446FFF7A3FF014B1C6038BD9C800110FF
:1025100070B5C56804460E4645B901680369406850
:10252000490098474008E06058B1A560A368626818
:10253000591C32F81330A1603380E368013BE3603B
:10254000012070BD0269436970B50468D31AE31AAB
:10255000002B0CDDC56846686B1C0132A342C360CA
:1025600026F81510026104D10023C36001E00020A9
:1025700070BD012070BD0000F7B590F83D202A4BDA
:10258000054682B3294A4FF48041C2F81412002153
:10259000C2F8141204229E681A621C4600F11C073D
:1025A000E36813F002030BD00DF106013846FFF784
:1025B000AFFF08B9ADF80600BDF80630A360EFE73D
:1025C00006F47F42B2F5B44F06D0B2F5B64F04D14F
:1025D000B1B2281DFFF7B6FF012385F830306B6BD1
:1025E00001336B631EE004229E681A621C4600F1F0
:1025F0001C07E3689B0709D50DF106013846FFF774
:1026000087FF18B1BDF80630A360F2E706F47F43F8
:10261000B3F5B64F06D1B1B2281DFFF793FF0123E2
:1026200085F8303003B0F0BD00500C400010104071
:10263000014B1868FFF7A0BF9C8001108269C06938
:10264000101A704790F8343013B942681360136061
:1026500000207047F0B5002403462546944217D069
:102660009869DE69801B00280EDD1869DE68471C4A
:102670001F61305C0855D8691E690130D8619868BF
:10268000864203D11D6101E0224601E00134E5E705
:102690001046F0BD08B5F02201230021022003F00E
:1026A00023FE01231946F022022003F01DFE002321
:1026B000F0220321012003F017FE0023F022042161
:1026C000012003F011FE034B4FF080721A600020CE
:1026D00008BD00BF00E100E008B5F022042300219E
:1026E000022003F001FE0423F0220121022003F066
:1026F000FBFD034B4FF08072C3F88020002008BD23
:1027000000E100E0F7B504460020626884F8340078
:10271000936803F00E03042B16D11368E169A269D4
:10272000511AA268521A8242DBB22FDD6269E16857
:10273000551C65618B54A36962690133A361A36869
:102740009A4223D1606121E00C2B02D113680193DE
:102750001CE0022B1AD110250127E66A36B9236B3B
:10276000216A606A9847E06260B1A662A36A626A01
:10277000591CA162D25CE36A84F83470013BE362C5
:1027800063681A60013D15F0FF05E6D103B0F0BDA6
:10279000014B1868FFF7B6BFA08001102DE9FF417B
:1027A0002026264B036004468660304690460F463E
:1027B000FEF7E8FD0025E060266225616561A56100
:1027C000E5613046FEF7DEFD4FF4964301930323A7
:1027D00060628DF8093001A9194BA5623846E5629F
:1027E000C4F83080676084F83450039301268DF874
:1027F00008508DF80A5003F0A1FE694660688DF814
:1028000002508DF803508DF800608DF8016003F0E0
:1028100067FF3146606803F081FF324629466068F1
:1028200003F040FF60683246314603F03BFF054B42
:10283000204683F8185304B0BDE8F0810C4C011019
:1028400000CB280C00E100E008B5034A406803F023
:10285000D7FD002008BD00BF00CB280C38B50546C9
:102860003820FEF78DFD2A4603490446FFF796FF00
:10287000024B1C6038BD00BF00100840A080011052
:102880002DE9F04188461146044603F01DF804F591
:10289000D27604F51A77354630461C3606F076FBBC
:1028A000BE42F9D11423C4F88032A4F87A32052349
:1028B00000266422A4F88432062384F87662A4F801
:1028C0007822C4F88C62C4F8A081A4F8863284F817
:1028D00088624FF47A70FEF755FDA4F86C62C4F874
:1028E0006802A4F87C62A4F87E6228461C3506F0D3
:1028F000D7FBAF42F9D12046BDE8F0816429C0F88A
:10290000803288BF64219DF80030A0F87812A0F8CA
:102910007A2280F888320020704713B59DF8004075
:1029200061F302048DF80040BDF8004062F3CB046F
:10293000BDF80220ADF8004063F30902ADF80220B3
:10294000BDF810201344BDF80420013963F30902D7
:102950001C2303FB010000F5D2706946ADF804208A
:1029600006F0F0FB02B010BD112A2DE9F0415BD951
:1029700090F87632002B57D1B0F87E42B0F874222E
:10298000944254D2D0F87C322BB94AF6552321F820
:10299000023B092400E008244AF656230B80B0F8D5
:1029A0007E32D0F870724FF00C0E0EFB03F337F846
:1029B00003C0A1F804C0B0F87E520EFB0575AB88C9
:1029C0006A889A1A92B24A81B0F87E520EFB057557
:1029D0002B89ED885B1B9BB28B81B0F87E520EFB7E
:1029E00005756E8806EB5206B6B2CE80B0F87E5200
:1029F0000EFB05751A44ED8805EB5305ADB20D814C
:102A0000B0F87E820EFB087762447F89CF813A441A
:102A1000B31815FA83F34B80B0F87E320133A0F877
:102A20007E326000BDE8F0810020BDE8F0811846EC
:102A3000BDE8F0810F2A2DE9F04105460C4655D935
:102A4000B0F87C32B0F86C62B34206D390F888726A
:102A50001FB1BDE8F041FFF787BF95F87602002867
:102A600044D1B34243D22BB94AF6552224F8022B63
:102A7000082000E00720D5F868624AF6552203EBEB
:102A80008303228036F81380A4F8048002335900AF
:102A9000A1F1020C36F8133036F80C70DF1B01F18F
:102AA000020EBFB2314467818B8836F80E10591A76
:102AB00089B2A1817A1808EB020336F80C2002EBE8
:102AC0005707BFB2E78017FA83F236F80E3003EBF0
:102AD00051039BB2238113FA82F36380B5F87C32F1
:102AE0000133A5F87C324000BDE8F0810020BDE84C
:102AF000F081F0B50246002939D1D0F88C020028C7
:102B000048D1B2F86C72034605464FF00A0EBD423A
:102B100011DAD2F868120EFB0511013588884E884B
:102B20000C89861BC888201A704383423CBFC2F8B8
:102B30008C120346EBE7B2F8747200254FF00C0ECE
:102B4000BD4211DAD2F870120EFB051101358888EA
:102B50004E880C89861BC888201A704383423CBF6C
:102B6000C2F88C120346EBE7D2F88C02F0BDB0F845
:102B70006C620A270020B04209DA07FB00F4D2F8A1
:102B800068522B192C5B8C4203D00130F3E70020F4
:102B9000F0BD1846F0BD10B5D0F868420C60B0F832
:102BA0006C121160D0F870221A60029BB0F8742287
:102BB0001A6010BD002070B50346044604EB84067D
:102BC0009442B6B218D001EB460531F816602EB922
:102BD0000130002B08BF2B4680B20AE04BB11E80AB
:102BE0006E885E80AE889E80EE88DE802D891D8195
:102BF0000A330134A4B2E1E770BD2DE9F04F02EBD6
:102C0000820285B093B20020019302468146019B67
:102C1000934242D031F8123001EB4204002B36D0FF
:102C2000A3886688B4F806E0B4F808C00293531D80
:102C3000019D9BB29D422AD031F813704FEA430B9D
:102C400001EB0B050FB36F88B5F804A0B5F806804B
:102C50002D890395BE420CD8029D55451AD3C64511
:102C600005D8039DAC4502D321F80B900BE0BE4282
:102C70000BD3029D554508D8C64506D3039DAC45E8
:102C800003D8A4F80090013080B20533D0E70532B4
:102C900092B2BCE7BE42F8D3EEE705B0BDE8F08FD4
:102CA0002DE9F04F89B002EB8202029093B200202E
:102CB00003930090039B009A934200F08F8031F8B9
:102CC00012405300002C7ED09C1C0D1931F804E0FA
:102CD00004951C1D0D1931F804C005959C1D0D1996
:102CE000083306950C5B31F80380CD180795134621
:102CF00005339BB20193019D039BAB4263D02B46EE
:102D00004FEA450931F8133001EB0905002B58D083
:102D10006E88AF88EB882D89B64511D3029AB2F838
:102D200084B2C7EB0E0ADA450ADC9C4201D898450A
:102D300003D2AC4204D8A84502D3049B1E803AE0DB
:102D4000BC4511D8029AB2F884B2CCEB060ADA4537
:102D50000ADC9C423CD8984503D2AC4204D8A84532
:102D600039D3059B1F8026E09C4211D3029AB2F80A
:102D700084B2C5EB040ADA450ADCB64501D8B4458D
:102D800003D2BE4504D8BC4502D3069A138012E094
:102D9000A84516D8029AB2F884A2C8EB030353459B
:102DA0000FDCB64501D8B44503D2BE4509D8BC45B1
:102DB00007D3079B1D804FF00003013021F8093035
:102DC00080B2019B94E7009A053293B2009371E7B9
:102DD000AC42CBD8C3E79C42DCD3C7E709B0BDE81F
:102DE000F08F2DE9F04FB2F804A088884B88B2F834
:102DF0000280B1F80690098985B09DB200901FFA53
:102E00008AF00290D088019103901FFA88F10FFA9E
:102E100085FB0FFA81FCBDF80C401089BDF80060FD
:102E2000BDF80470E3451FFA89FE82B20FFA8EFCEA
:102E30000FFA84FB1BDBDC4503DC0FFA87FCDC4567
:102E40000BDA0FFA8EFC0FFA82FBDC4508DC3FB28E
:102E50005F4502DA24B2A44552DBCAEB03004DE021
:102E60002BB20FFA81FA534523B252DC5BE0DC450A
:102E70004BDC3FB223B29F4208DA0FFA8EFC12B24B
:102E8000944507DC974201DA9C4521DB009BC3EBAC
:102E9000080033E09C451BDB2BB20AB2934203DCF3
:102EA00033B20AB293420ADABDF908202BB2934238
:102EB00008DC36B2964202DA09B28B422CDBC0EB58
:102EC00009001BE00FFA8EFE24B2A64534DC30E088
:102ED0002BB20AB2934203DC33B20AB293420ADA4B
:102EE000BDF908302DB29D4226DC36B29E4202DA90
:102EF00009B28D4220DB039B019A981A80B21DE033
:102F00002BB20AB29342EBDC10E012B29445C7DC5C
:102F1000BCE79C45E4DBC7E70FFA8EFE24B2A6456A
:102F20000ADC8E42E6E79C45A3DDB9E7A742D3DB86
:102F3000ACE70AB29342CFDD47F6FF7000B205B0AE
:102F4000BDE8F08F70B50E4609880446154639B3C2
:102F500013882BB3994223D090F88832022B04D1E6
:102F600094F88832022B07D10EE001F0070102F03D
:102F700080FD012814D1F3E72978204601F00701EC
:102F800002F077FD01280BD12A4631462046FFF793
:102F900028FFB4F886329842CCBF0020012070BDD3
:102FA000002070BD2BB188884B88C1189088538849
:102FB00004E00889CB88C1181089D3880344022013
:102FC00093FBF0F3C3EB610080B2030444BF4042C3
:102FD00080B200B270470000F7B5538890880F4662
:102FE00018448B8849880B445B10C3EB600007EEE4
:102FF000900AF8EEE77A164617EE900A08F09EFC63
:10300000FB88044638890D461844F18833890B44FF
:103010005B10C3EB600007EE900AF8EEE77A17EE5C
:10302000900A08F08BFC22462B460EF0B1FA0022E3
:103030000B4B08F0D7FC08A3D3E9002308F0FCFDF4
:1030400008F002FF07EE900AFDEEE77ACDED017A77
:10305000BDF9040003B0F0BD000000C0CA21094062
:10306000008066402DE9F04786B080469DF838A084
:103070000D46164699460024B44201AF0CD00A2CE6
:103080000AD055F82420534649464046FFF78AFFA8
:1030900027F814000134EFE7012039462B46024699
:1030A000B24214D20A2A12D0B1F800E031F8024F2D
:1030B000A64508D9586821F8024C1C68A1F800E020
:1030C00083E811000020013292B20433E8E70028BF
:1030D000E2D006B0BDE8F0872DE9F04F0025B2F947
:1030E00000A08DB0A8462E464FF0640B56453FDA3F
:1030F00051F8260043888488E41A0389C0881B1A83
:1031000063430BFB03F04FF4FA74B0FBF4F0009050
:103110004FF4C8705843B0FBFBF0184401900020F6
:103120000746BE4217D051F827E0BEF80240BEF86D
:103130000490C4EB0909BEF80840BEF806E0CEEBE7
:10314000040404FB09FE009C744504D8019C7445EA
:1031500024BF013080B20137BA45E2DC854226BF88
:10316000634628464FF0010801369C460546BDE7F8
:10317000B8F1000F01D1A2F800800023B2F900E0FD
:103180001D4664274FF4FA784FF4C879754501DB82
:10319000002022E0092BFBD851F82540A088668842
:1031A000B4F806A0861B2089CAEB0000704307FB19
:1031B00000F6B6FBF8F6B4450DD309FB00F6B6FBF6
:1031C000F7F63044844506D80CAE581C06EB830352
:1031D00043F8284C83B20135D8E7984206DA02ACAE
:1031E00054F8204041F820400130F6E713800DB03C
:1031F000BDE8F08FF0B50023B2F900608BB01D463A
:103200001846B0429CB217DA0A2B14D051F820703D
:103210004DF823700130B04201DB0133F1E751F882
:103220002040B4F800E03C888EEA04046407F4D13E
:1032300001300125EFE71C464DB10023A34205DA1A
:103240005DF8230041F823000133F7E714800BB049
:10325000F0BDF0B5D0F86842B0F86C620A270020E3
:10326000B0420CDA07FB00F50130635B23F0070E78
:10327000964502BF03F007030B436353F0E7F0BD2D
:103280002DE9F04FB0F86C32D0F868820A2699B078
:10329000044606FB03860027B04538D208F10A0928
:1032A00008F11405A5F10A02B24201D3C846F3E7BA
:1032B00041462046FFF746FE38B339F80A3C35F858
:1032C0000A2C072B0ED8072A14D80137BFB2FA00F0
:1032D00092B2134329F80A3C35F80A3C1A4325F800
:1032E0000A2C12E0072A05D823F00703134325F818
:1032F0000A3C0AE035F80A2C072A06D9072B9EBF9C
:1033000022F00702134329F80A3C0A35CAE7D4F829
:1033100068A2B24522D2D3463BF80A5B072D1BD9DF
:1033200025F00705ADB2D946B14515D2B9F80080F0
:10333000B8F1070F0DD928F007081FFA88F845459E
:1033400007D04A4651462046FFF7FCFD002840F0D2
:103350006E8109F10A09E7E7DA46DAE7D4F868325C
:10336000D4F8705203F577730B930023A4F87432EA
:1033700001220A9313B2BB42D4F8683200F33981B8
:103380000B998D4280F0358192B24FEAC20E0692BF
:103390000021BDF82820ADF836201FFA8EFE0A461F
:1033A000B34212D210B209280FDCB3F800C02CF0DF
:1033B000070CF44507D118A901EB8000013240F851
:1033C000283C92B201210A33EAE709B1ADF8362070
:1033D0000DF136020EA92046FFF77EFEBDF836300D
:1033E0000793BDF91CE0BEF1010F40F3FE800023FE
:1033F0000493039302939A4619461846CDF814E0B5
:103400000DF1380B0FFA80FE5BF82390B9F802201B
:10341000089218AA02EB8E0E089A5EF828ECB9F80A
:1034200004C0BEF802E01FFA83F8964588BF404604
:10343000B9F8062009920FFA8AFE18AA02EB8E0E3E
:10344000099A5EF828ECBEF806E0964588BFC246A9
:1034500018AA0FFA81FE02EB8E0E01335EF828ECFB
:10346000BEF804E0E64538BF4146B9F808E0BDF9CA
:10347000089002EB8909029A59F8289CB9F808903B
:10348000F14538BF42460292089AC2EB0C0C039AEF
:1034900062440392099AC2EB0E0E049A724404929B
:1034A000059A0FFA83FE7245AADC18AA09B20FFA30
:1034B0008AFE02EB810102EB8E0EBDF908205EF858
:1034C00028EC51F8281CBEF806C0898818AB0DF10D
:1034D000600800B203EB800008EB820250F8283C41
:1034E00052F8282C58881289A980A5F806C04FF0F8
:1034F0006408091ACCEB020C68802A8108FB01F1F0
:10350000039A059892FBF0F008FB0CFC91FBF0F19C
:10351000049A059892FBF0F89CFBF8FC6145D5BF36
:103520000023012100930091D8BF7346BDF81C20F1
:1035300059462046FFF796FD0DF1360259462046C2
:10354000FFF758FEBDF93630012BD8464DDD052B6F
:10355000C4BF0523ADF83630BDF8363000218E46A5
:103560001AB208B290420ADA58F82100008800F036
:10357000070040EACE0E1FFA8EFE0131F1E7013B53
:103580009BB2002118B2002813DB0DF1600C0CEB8C
:103590008000013B50F828CCBCF8000000F0070088
:1035A00040EAC101BDF82800ACF8000089B29BB226
:1035B000E8E78E4508D218AB03EB8202A5F800E0DD
:1035C00052F82C2C0E9906E018AB03EB82032980ED
:1035D0000E9A53F82C1C2046FFF7FEFCB4F8743208
:1035E000688101330C35A4F87432069A013292B224
:1035F000C0E603F10A050027A5F10A039E421FD980
:1036000094F88832032B04D135F80A3C072B0CD9E7
:1036100013E035F80A1C07290FD8022B0DD0C9B2C8
:10362000204602F026FA012807D00A35E4E7424690
:1036300029462046FFF70DFE8BE625F80A7CF4E7C5
:1036400019B0BDE8F08F38B500F5D27400F51A75E1
:10365000204605F0A9FC20461C3405F0EAFCAC42EB
:10366000F6D138BD2DE9F04F89B000230746ADF8FB
:103670001830ADF81E30ADF81A30ADF81C301C46CD
:1036800003934FF0FF3906A9D7F8A001059303F083
:10369000C3FF059B0028F6D0BDF818504FF6FD7209
:1036A000954200F2AF80002BEDDB5DBB7CB1BDF835
:1036B00010100BF10102521A4B1E92B200929BB2F3
:1036C0001FFA89F2E1B23846FFF727F9034603995A
:1036D000039A052909F1010902F1010205D000242C
:1036E00003924FF6FF76A046CDE705934D4B00249D
:1036F0001868012101F0FEFC4FF6FF76A046039406
:10370000059BC0E705F0070A14200AF1FF3100FB12
:103710000171BDF81E20BDF91CE0D1F8E000002ABF
:1037200008BF01224FEACE3E9EFBF2FE864522DD17
:10373000D1F8E40086451EDABDF91AE0D1F8E800B8
:103740004FEACE3E9EFBF2FE864514DDD1F8EC102A
:103750008E4510DAD7F86C118A420CDBED10AAB254
:103760000592BDF81420ADF81820AA1B052A42D8EE
:10377000D04540D113E0002C85D0BDF810100BF1DE
:103780000102521A4B1E92B200929BB21FFA89F2AA
:10379000E1B23846FFF7C1F80346002473E7B4B13D
:1037A000A2452CD00126BDF810100BF10102521ACF
:1037B0004B1E92B200929BB21FFA89F2E1B23846D8
:1037C000FFF7ABF803464EB12E46D046E5E7444638
:1037D0000496B8F1000F12D12E4654E7059B022241
:1037E000013B00929BB21FFA89F251463846FFF71F
:1037F00094F80346E8E7002CF0D00026D3E7AB4668
:103800002E4640E73846FFF71EFFBDF818304FF64A
:10381000FE7083424FF0FF3018BF002009B0BDE8B2
:10382000F08F00BFF48001102DE9F74F0446FFF739
:1038300019FF002811DA04F5D27504F51A76284626
:103840001C3505F02DFCB542F9D10023A4F86C32EB
:10385000A4F874324FF0FF30B5E00025012684F85B
:103860007662C4F88C52A4F86C52A4F8745294F89E
:103870008832022B07D0F1B2204602F0FAF8431E3C
:103880005842584100E001201C23B4F86C82D4F85F
:10389000681203FB064308EB880AD3F898315246B6
:1038A0004FF0000CE3B3B4F86CE2B4F87872BE45A4
:1038B00036D2B4F87A72BC4532D2D3F820E018B1CF
:1038C000BEF1090F28DD03E0D4F88072774523DCD0
:1038D000B3F804E0B3F81290CEF3C80E1FFA8EF7D7
:1038E000C9EB0707012F17DD9F8A019701EB4207FC
:1038F000B3F810B021F81260A7F802B0BDF804B018
:10390000A7F804B0A7F80690A7F808E0B4F86C721E
:103910000137A4F86C7205321B680CF1010CC1E789
:1039200070B901EB4A07B4F86C22C8EB020292B2FC
:1039300039462046FFF7B4F910B10544ADB2F2E7BD
:103940000136082E93D1B4F86C22D4F868122046C0
:10395000FFF753F994F88832284485B283B3B4F85A
:103960006C22D4F868320A2101FB0233C4F87032A9
:103970002046FFF785FC65B1B4F86C22D4F86812D4
:103980002046FFF717F9B4F86C32181AA4F86C0245
:1039900003E094F88832002BEED10023A4F87C32A7
:1039A000A4F87E3284F8763204F5D27504F51A74E0
:1039B00028461C3505F074FBAC42F9D1002002E02A
:1039C000002DEAD0D8E703B0BDE8F08FFF2928BF6B
:1039D000FF21FF2A28BFFF22FF2842EA012228BF39
:1039E000FF2042EA0040704710B5C4B21C60C0F32B
:1039F0000723C0F307401360086010BD00B589B00D
:103A000007AB06AA05A9FFF7EFFF059B069A9342AD
:103A100038BF1346079A934238BF134607EE903AD1
:103A2000B8EE677ADFED167AC7EE876A07EE902A5E
:103A3000B8EE677A27EE267AFCEEC77ACDED017AEA
:103A4000DDED067A9DF80420B8EE677A27EE267A37
:103A5000FCEEC77ACDED027ADDED057A9DF808100F
:103A6000F8EE677A67EEA67AFCEEE77ACDED037A98
:103A70009DF80C0009B05DF804EBFFF7A7BF00BF8D
:103A800000007F43014B1878704700BFE1750110BB
:103A9000014B1878704700BFDE750110014B187894
:103AA000704700BFDF750110014B1878704700BFE9
:103AB000E0750110014B1878704700BFA480011019
:103AC00038B5094D0121286804F064F80221040288
:103AD000286804F05FF8204304020521286804F0F8
:103AE00059F8204338BD00BFB880011038B5094DE2
:103AF0001621286804F04EF810210402286804F00A
:103B000049F8204304020021286804F043F82043C8
:103B100038BD00BFB880011008B5034B01781868A4
:103B200004F038F808BD00BFB880011038B505684A
:103B3000094CEAB22068052104F016F8C5F3072203
:103B40002068022104F010F82068C5F30742012123
:103B500004F00AF8002038BDB880011038B50568B7
:103B6000094CEAB22068002103F0FEFFC5F30722EA
:103B70002068102103F0F8FF2068C5F307421621E2
:103B800003F0F2FF002038BDB880011038B50B4DAE
:103B9000027804462421286803F0E6FF227828688A
:103BA000142A86BF143AD2B20022252103F0DCFF8A
:103BB000034B22781A70002038BD00BFB880011076
:103BC000E07501102DE9F743134D06468846102293
:103BD0000921286803F0C8FF0024A146444510DAF3
:103BE0003719315D7A78286803F0BEFF315D2868A7
:103BF00003F0D0FF7B78834218BFCDF804900234E5
:103C0000ECE700220921286803F0AEFF0348FFF724
:103C1000BDFF03B0BDE8F083B8800110E07501106E
:103C20002DE9F041274C07461321206803F0B2FF2D
:103C300003210546206803F0ADFF234A3B78117845
:103C400099420646904633D093B905F0F702132106
:103C5000206803F089FF06F07F020321206803F04B
:103C600083FF40220E21206803F07EFF032214E030
:103C7000012B14D105F0F7021321206803F074FF23
:103C800066F07F02D2B20321206803F06DFF482264
:103C90000E21206803F068FF3322212105E0022B6A
:103CA0000CD145F00802D2B21321206803F05CFF6A
:103CB0003B7888F800300020BDE8F0814FF0FF30FD
:103CC000BDE8F081B8800110A480011038B50A4C1D
:103CD00005469721206803F05DFF2B781BB140F06B
:103CE0000A02D2B201E000F0F5022068972103F049
:103CF0003BFF002038BD00BFB880011008B5044B61
:103D00000A780178186803F02FFF002008BD00BF73
:103D1000B880011070B5104E05783378AB4219D0D9
:103D20000E4C5DB92A463821206803F01DFFE122C0
:103D30009621206803F018FF35700BE0102238211F
:103D4000206803F011FFF1229621206803F00CFF98
:103D500001233370002070BDDE750110B8800110A2
:103D600038B50B4C05782378AB420FD0094B35B9E9
:103D7000A0221321186803F0F7FE257006E01868EA
:103D8000A522132103F0F0FE01232370002038BD8B
:103D9000DF750110B880011038B50A4D04782B7812
:103DA000A3420AD014B91E21074803E0012C06D112
:103DB00006481E21FFF706FF2C70002038BD4FF08B
:103DC000FF3038BDE1750110204C01103E4C011050
:103DD00038B50C461549054608F0AEFE20B9204618
:103DE000BDE83840FFF7D2BE1149284608F0A4FECE
:103DF00050B923781BB9FFF779FE0E4B18602046A7
:103E0000BDE83840FFF7ACBF0B49284608F094FEE8
:103E100050B923781BB9FFF753FE084B18602046B2
:103E2000BDE83840FFF776BF38BD00BF5C4C0110DD
:103E30006E4C0110B4800110874C0110B08001104D
:103E40002DE9F04393B09846BDF86C50BDF8704032
:103E5000BDF8689004FB05F307468B424FF0FF3036
:103E6000164611904FD8131109D108EB0503B3F58D
:103E7000A06F4DDC09EB0403B3F5487F15E0012B7F
:103E800009D108EB0503B3F5207F41DC09EB0403FE
:103E9000B3F5C87F09E0022B38D108EB0503B3F571
:103EA000A07F35DC09EB0403C82B31DC12A806F037
:103EB0000F0300F8053DFFF76FFF002828DB164BC6
:103EC0000220B3F90020099011AB00210C93079058
:103ED000059003900423114801930E910D910B91CD
:103EE0000A940895CDF81890CDF8108002970096A6
:103EF0000123006801F031F8119848B9084B1F60A0
:103F00009D80DC8004E06FF0010001E06FF00200B2
:103F100013B0BDE8F08300BFDC750110F88001101C
:103F2000A880011030B5502387B000248DE8180018
:103F3000484A494801234FF48071012502F0B6FE3A
:103F40004649454802F01CFF2B46454A019440F281
:103F500002210095434802F0A9FE4049414802F081
:103F60000FFF0194009404233F4A4048294602F081
:103F70009DFE2B463E4A0194009440F202213D48AA
:103F800002F094FE35493B4802F0FAFE2B463A4ACD
:103F9000019440F202210095384802F087FE2F4933
:103FA000364802F0EDFE0423019400942E4A344872
:103FB000294602F07BFE224603A9274802F04EFE66
:103FC00022460DF10D01274802F048FE22460DF170
:103FD0000E01284802F042FE22460DF10F0127484B
:103FE00002F03CFE03A8FFF7D1FD0DF10D00FFF735
:103FF000B7FE9DF80D4084B9224D2A6832B12346A0
:1040000004211A4802F00EFE2C6006E004A91748AD
:1040100002F024FE04A8FFF7A1FD0DF10E00FFF74A
:1040200079FE9DF80E309BB99DF80F4084B9164D6E
:104030002A6832B123460421114802F0F3FD2C60B6
:1040400006E005A90E4802F009FE05A8FFF76EFD7F
:1040500007B030BD9A4C01105C4C0110413B001080
:104060000B4D01106E4C0110785C0110524D011087
:104070005C4D0110874C0110CD4D01104F4E0110C9
:104080006E4E0110B4800110B080011013B50420F1
:10409000FDF776F96021044603F020FD134BA021C3
:1040A00020461C6003F076FD28211148FFF78AFDA9
:1040B00002A8002400F8014DFFF76EFE0D4B0E49DB
:1040C000186800F0B3F90D4B0D491868224600F04E
:1040D00051FF0C4BA042188003DBFFF723FF204663
:1040E00001E04FF0FF3002B010BD00BFB8800110FA
:1040F00048580110F480011080560110F88001101A
:1041000048540110DC750110F0B50026B7B28F429B
:1041100010D20024058804F1010EA4B2AC4207D2EB
:10412000144405FB07441D5DED431D557446F1E73E
:104130000136EBE7F0BD00002DE9F0478AB01E46DE
:10414000129D234F90461A882B8806938A46002199
:10415000099103FB02F102230593049203931D4A84
:104160009DF8503008910293B12141238DE80C0055
:1041700081460791642339464FF49032139800F03A
:1041800002FC2988029131880191B8F80010009151
:104190000446C0F5903100F18050BAF8003099F82B
:1041A000002000F50020FFF74BFE3B4680462246EC
:1041B00029883046FFF7A8FF33882A88139802FB26
:1041C0000342394600F09FF840460AB0BDE8F08748
:1041D00000000810424138311FB501240294079CA9
:1041E0000194069C0094FFF7A7FF04B010BD0000E7
:1041F000024B00221A60DA809A807047A880011072
:1042000070470020704710B50023934203DACC5C5E
:10421000C4540133F9E710BD90F83B007047836840
:1042200013B14360002383607047F0B5002351F859
:10423000232004689E008F19002A32D0092B30DC1D
:10424000251D12F8012C0560256815B96FF00200D4
:10425000F0BD12F0800F12D102F00F02012A03D13B
:104260008A5912782A701AE0022A03D18A591288D0
:104270002A8014E0042AE9D18A59126802E0A12AAE
:104280008A5901D12A600AE012682A6004F1080202
:10429000026062680133002AD8D07C681460013360
:1042A000C5E7231D036020680028CFD1F0BDF8B515
:1042B00090F83B3005460E4617460BB98A061FD5C7
:1042C000EC6824B9330606D54FF0FF300EE04FF00E
:1042D000FF3000240AE00020F8BD2B683A46DB6876
:1042E0003146284698470028F5D0013495F83930F2
:1042F000A342F2DC002805DA002385F83B30F8BD44
:104300006FF00500F8BD10B504468068636810B909
:10431000A360616001E08B420FD1236AD21AE26090
:1043200094F83A2062B918212046FFF7C0FF0246F0
:104330002046FFF774FF104610BD6FF0040010BD5B
:10434000002010BDF8B5858E0E4940352F0104467A
:1043500038460CF025F9064688B13A46002108F0A7
:104360005DFBA28E216B1201304608F0BDFA206B76
:1043700008B1FDF70BF82663A5860020F8BD6FF0A5
:104380000400F8BD98700110F8B506460F460025E8
:10439000ACB2B28E23B2934208DA1B01326BD05812
:1043A00038B1394608F0C8FB18B904E04FF6FF747D
:1043B00001E00135ECE720B2F8BDF8B504460D4642
:1043C0001646FDB129462046FFF7DEFF002812DA27
:1043D000B4F834E00027B8B203B2734505DA1A0125
:1043E000216B8A580137002AF5D1734503D1204645
:1043F000FFF7A8FFE5E7226B03B21B01D118D550E8
:104400004E6001E04FF6FF7000B2F8BD38B50546CA
:104410001C46FFF7D2FF0028A1BF2A6B02EB001059
:10442000C4600020B8BF4FF0FF3038BD38B5054636
:1044300001F1080454F8081C39B1234654F8042C3F
:104440002846FFF7E3FF1834F4E7084638BD4185F6
:10445000704738B504461546FFF796FF236B2A8848
:1044600003EB00131A8138BD437E70B5054613B1C6
:104470006FF0040070BD11B94469803401E001F1AE
:104480008004094920460CF08BF806460028EFD03E
:104490006A69696808F028FA686808B1FCF776FF6D
:1044A0006E606C61002070BD987001102DE9F04FB6
:1044B000884685B01F46054640B190F83A30006AFC
:1044C00013B100F1040902E0814600E081460123B6
:1044D000C9EB020A01933B6893F800B01A1D3A60D9
:1044E000BBF1000F00F0DE800BF0BF02012A09F1E2
:1044F000010408EB090608F809B008D13A68111D53
:104500001268396009F1020608F80420B0E0022AB6
:1045100012D13A68E60748BF24F0010402F1040111
:1045200048BF0234396008EB0401128801F801BC6D
:10453000A61C28F804209BE0042A02D0BBF1640FDB
:1045400011D13A68A00718BF24F0030402F1040156
:1045500018BF0434396008EB0401126801F801BC8B
:1045600048F8042016E0142A16D13A68073222F0DF
:10457000070202F108013960D2E9000107F064FC8A
:10458000A1071CBF24F00304043408EB040202F862
:1045900001BC1060261D6BE0A12A23D13A68111DD1
:1045A000396013680293184608F092FC421CA61862
:1045B000AAF108018E420FD915B96FF0040075E019
:1045C000314628460392FFF74FFF00286EDBD5F8EF
:1045D0000480D5F814A0039A029908EB040008F0AF
:1045E00083F945E012065FD53968081D3860086810
:1045F0000BF0300130290BF00F0201BF00230BF04C
:104600008F0B86F800B00193A3071CBF24F00304AE
:10461000043408EB0401261D01F801BC511E31428F
:1046200018BF5142019B48F804001CBF0E40B61849
:10463000F3B100FB02F3F418AAF1080294420DD979
:104640000293002DB9D021462846FFF70DFF002820
:104650002CDBD5F80480D5F814A0029B39680A1D1C
:104660003A6008EB06001A46096808F03DF926464C
:104670002DB1AA7E1AB91BF0400F18BF4E46AAF101
:1046800008039E4201D8B14625E7002D95D031465A
:104690002846FFF7E9FE002808DBD5F80480D5F8A6
:1046A00014A0F0E7484601E06FF0020005B0BDE855
:1046B000F08F0B4610B5426941680446FFF7F6FEDD
:1046C0000028A1BF236AC01AE060002010BD0EB40C
:1046D000F3B59DF81C5090F83A60C768182D08BFD4
:1046E000002302A908BF80F83A3008AB41F8043D26
:1046F0000446FFF7DEFF182D03D094F83A3033B9A3
:1047000028B9002218212046FFF7D1FDE76084F880
:104710003A6002B0BDE8F04003B070472DE9F341C4
:104720000D880368003518BF01250E46044629464A
:104730001B6890469847338884F83B50E38698F886
:104740000030003318BF012300210746A3760191F2
:10475000E37E009101222046FFF7B9FF384602B000
:10476000BDE8F08170B5B1F90020838E066B88B08A
:1047700000249A4205468DF81F4012DA1301F11801
:10478000F35873B1C96861B105940494CA6803927F
:10479000A1220191029200922146FFF798FF204644
:1047A00010E000210DF11F001301A12203900190E0
:1047B0000591049102920092F3582846FFF787FF73
:1047C0004FF0FF3008B070BD2DE9F0431C460423C4
:1047D000C36001F0200389B005468846914603F086
:1047E000FF06BBB10123A02980F83A3004D194E838
:1047F0000600FFF72EFEA2E0A12904D194E80600EE
:10480000FFF78CFF9BE0A22940F097802168FFF71B
:10481000A9FF94E0182905D1036821469B689847B1
:104820003046ADE0838E9A4280F2A680002AC0F224
:10483000A380036B03EB02135F68002F00F09C80E2
:104840003046C3B2013054F82320002AF9D10122A6
:1048500085F83A2013B92846B84770E0012B03D1F8
:1048600029462068B8476AE0022B04D12A4694E81A
:104870000300B84763E0032B04D12B4694E80700FC
:10488000B8475CE0042B04D1009594E80F00B847CA
:1048900055E0052B06D123690093019594E80F009C
:1048A000B8474CE0062B08D1636901932369009354
:1048B000029594E80F00B84741E0072B0AD1A3699D
:1048C00002936369019323690093039594E80F00B1
:1048D000B84734E0082B0CD1E3690393A369029332
:1048E0006369019323690093049594E80F00B84726
:1048F00025E0092B0ED1236A0493E3690393A3698E
:1049000002936369019323690093059594E80F006E
:10491000B84714E00A2B10D1636A0593236A049305
:10492000E3690393A3690293636901932369009385
:10493000069594E80F00B84701E04FF0FF305FFAAA
:1049400088F8002318F0800F85F83A3017D06A688D
:104950002B6AD0502B6B03EB091308F03F01B3F91E
:10496000082041F040012846FFF7A1FC02462846F6
:10497000FFF755FC104603E04FF0FF3000E0002049
:1049800009B0BDE8F0830CB413B504AC02AB54F825
:10499000042B43F8044DFFF789FD02B0BDE8104039
:1049A00002B070472DE9F84307468846154602F1E4
:1049B0000A0916460024731B4445DBB22CD24E452F
:1049C0002ED03A5D06F8012B110604F1010002F029
:1049D0000F0307D45A1E02421EBF5A421040C0188D
:1049E0001C18E8E702F0BF02A12A05D1384408F0FC
:1049F0006FFA02340444DEE782071CBF20F0030094
:104A000004305A1E3C58043002421EBF5A42104025
:104A1000C01804FB0304CEE70020E854BDE8F88387
:104A20004FF0FF30BDE8F8832DE9F0414FF000086A
:104A300004460E4615464746B04542D20A2F46D098
:104A400014F8082012F0800F08F1010002F00F01A5
:104A50000FFA87FE0BD14B1E03421EBF4A42104085
:104A60004018231845F82E3001EB000826E002F02C
:104A7000BF02A12A08D1204445F82E0008F028FAE8
:104A800008F10208804419E083071CBF20F00300EE
:104A9000043004EB000C225845F82EC004307B1C77
:104AA0004F1E07421CBF4F423840DBB218BF4018B0
:104AB000271845F8237002FB01081F467B1CDFB254
:104AC000BAE73BB2002045F82300BDE8F0814FF083
:104AD000FF30BDE8F08110B58CB0144601AAFFF795
:104AE000A3FF002803DB01A92046FFF79EFB0CB0C3
:104AF00010BD10B500234418A04204D010F8012BBB
:104B000013449BB2F8E7581880B210BD38B543681B
:104B100004461971104818606168E06AE3688B60A8
:104B20000368CA801D68638D4022A847002812DBF5
:104B3000E268236A1A44402A0CD9637E53B9E06ABA
:104B400061680368403A1D68638D4031A84700EAF8
:104B5000E07038BD002038BD5555AAAA13B50346EC
:104B600009B1592200E09522D86A8DF80720026821
:104B70005B8D14680DF107010122A0470028B4BF26
:104B80006FF06500002002B010BD00002DE9F74372
:104B90000446C06A904602680F46556803B1A38C6C
:104BA00001220DF10501A847051E63DB02D14FF07C
:104BB000FF355FE0DFF8C49000269DF80530E06A1D
:104BC0001B0643EA16264E45238D026808D0556819
:104BD0000DF105010122A847051E4BDBEDD1E6E7EB
:104BE00056686168226AB047002841DB236A9D420B
:104BF000DDDB63681B783B706768256A7B887E68AD
:104C0000A8F800302946E6603846FFF772FFC5F184
:104C100040058046E06AAE4228BF2E46036806F192
:104C200002095D68238D4A463946A847051E21DBE7
:104C30004D45BCDB6168022231440DF10600FFF7EF
:104C4000E2FA31466068FFF754FFBDF80630404491
:104C5000834206D1266101212046FFF77FFF002510
:104C600008E000212046FFF779FF6FF0010501E021
:104C70006FF06405284603B0BDE8F0835555AAAA35
:104C80002DE9F843DFF88C900446884617461E4607
:104C9000E06A616803685D680EB1A38C00E033468A
:104CA0004022A847051E19DB032DF1DD63681A6851
:104CB0004A45EDD11B7988F800306368DA88996835
:104CC000236A3A80E16019446369994209D9204610
:104CD000FFF7CAFB002804DABDE8F8832846BDE8E0
:104CE000F883E668236A1E44B54201D2637E2BB185
:104CF0000020BDE8F8830544AE42F9D9E06A616856
:104D00000368721B5F68238D2944B8470028F2DAD4
:104D1000BDE8F8835555AAAA2DE9F347036AC1688F
:104D20001944436903319942044605D9FFF79CFBB6
:104D3000061E01DA304659E00027B8462169E568C9
:104D4000A94249D2E38ED4F82CE060686D1A9D42E6
:104D500028BF1D46DEF800300144D3F80490E38CF0
:104D6000EA1C7046C847002838DBAB1CB34238DA6F
:104D7000236961682B44022211F803A0013319440E
:104D80000DF10600FFF73FFAD4F810906068691C37
:104D90004844FFF7AEFEBDF8063083420FD1D04540
:104DA00002BF4D4408F1010825614FF00101204682
:104DB00008BF5FFA88F80027FFF7D0FEBEE70021A2
:104DC0002046FFF7CBFE7B1C94F83820DBB29A42DA
:104DD0000AD90237FFB2B1E7002007E06FF06400A4
:104DE00004E04FF0FF3001E06FF0030002B0BDE8D7
:104DF000F0872DE9F84304460F4690461D469DF87E
:104E00002090FFF70CFA067E26B14B46FFF738FFDD
:104E100016E001364B46424639462046FFF7B6FEBD
:104E2000831C07D194F838309E42F2D36FF0030010
:104E3000BDE8F88308B1BDE8F8832046FFF76CFFB2
:104E4000D8B93B78206A13F0400F0ED0636818443D
:104E5000042200F8042C6168236A0B4403F8012C37
:104E6000E368206A13440438E3606368E1682A4613
:104E70001844BDE8F843FFF7D7BDBDE8F8832DE936
:104E8000F0414FB290B0002F04460D469046049377
:104E900003DB90F83B30002B5AD000262046E6601A
:104EA000FFF7BDF904A92046FFF703FC002851DBFA
:104EB000002FAABF80238DF80D508DF80D3042468B
:104EC0009DF80D102046B8BF3546FFF7F0F90028D1
:104ED00040D1E9073AD4E06A03689B68984705AE79
:104EE000012300930DF10E0233460DF10D01204612
:104EF000FFF77FFF70BB9DF80D104A0610D42368A2
:104F0000BDF90E205F6820463346B847E06A036863
:104F1000DB689847A38C9842E2D96FF0640019E0EF
:104F2000AB070DD5049B1A1D04921A68002AF9D00C
:104F3000002356F8231042F8231039B10133F8E763
:104F4000314604A8FFF771F9002803DB002001E0D7
:104F50006FF0050010B0BDE8F0810CB407B504ABEC
:104F600033F9042B0193FFF78AFF03B05DF804EBDC
:104F700002B0704730B5044689B00D4612B1FFF754
:104F80001CFA01E04FF6FF7007AB0022049300B259
:104F9000022302900193059203920095A123A02180
:104FA0002046FFF7DAFF0028ACBFBDF81C004FF623
:104FB000FF7000B209B030BD30B500228BB004469E
:104FC0000D4609B1C38E00E00B4606920DF1230198
:104FD0000392E27E0591029209A9012204910192B5
:104FE000009300220223A1212046FFF7B6FF0028EC
:104FF00008DB9DF82330099884F83B50003318BF34
:105000000123A3760BB030BD10B504460B68E162F6
:1050100008461B6900219847C0F340002076E06AEB
:10502000036800211B69984700F001006076E06A80
:1050300003685B699847237EE0860BB10C2300E090
:1050400008232362637E63B1E06A036801211B6960
:1050500098476060E06A036802211B6998476061B5
:1050600005E08020606106490BF09AFA6060207FBD
:1050700028B120460121BDE81040FFF79DBF10BDBB
:105080009870011070B51E46184B03600446032348
:1050900080F8383080F8393000254FF47A738384F3
:1050A000C56205764576456085604FF4FA70638584
:1050B0004023E0842085E17622770D4984F83A5038
:1050C00084F83B50A576A3864FF480600BF068FA15
:1050D000A28E20631201294607F0A0FC1EB13146C2
:1050E0002046FFF791FF204670BD00BF78580110A1
:1050F00098700110F0B505468FB00E4600240023CD
:1051000000930DF10A0203AB0DF109012846FFF7E8
:1051100070FE58B92B68BDF90A205F689DF8091028
:1051200003AB2846B8470EB10134E8E720460FB07C
:10513000F0BD37B5C06A03680C465D680DF1070124
:1051400013460122A84700280ADB0CD09DF807303F
:10515000592B4FF0000006BF01232370207004E09C
:105160006FF0640001E04FF0FF3003B030BDF7B5E1
:1051700002AE002306F8043D04462169E568A94211
:105180004AD2E38ED4F82CE060686D1A9D4228BFA5
:105190001D46DEF8003001441F68638D2A467046C4
:1051A000B847002802DA6FF0650036E0E06A03686D
:1051B00001221F68638D3146B8470028F3DB23695D
:1051C000606829461844FFF794FC012107463046E1
:1051D000FFF78FFC3844ADF80600E06A036802224E
:1051E0001F68638D0DF10601B8470028DBDBE28CF8
:1051F0000DF105012046FFF79CFF00280DDB9DF80F
:105200000530002BB9D023691D449DF80430256179
:1052100001338DF80430B0E7002003B0F0BD00008A
:10522000F7B504460E46C06A2A4B02A9154641F856
:10523000043D036804221F68638DB847002846DBDD
:1052400063681E706168E06AE3684B6003684D80C4
:10525000226A1D68638DA847002838DB6668216ACA
:105260003046FFF746FCE568ADF80200E06A402DE5
:10527000036828BF40251F68638D2A463146B8471A
:10528000002802DA6FF0650021E029466068FFF728
:1052900030FCBDF8023002A9184421F8060DE06A7E
:1052A000036802221E68638DB0470028EADBA28CE7
:1052B0000DF101012046FFF73CFF002807DB9DF8B8
:1052C000013013B12561002001E06FF0010003B04F
:1052D000F0BD00BF5555AAAA037E70B504460D4621
:1052E00016461BB1BDE87040FFF710BC3246294698
:1052F0002046FFF795FF821CF8D020B92046BDE874
:105300007040FFF734BF70BD09B100230362C2696A
:1053100082B1036A11688B4220DA926802EB830142
:1053200032F823204988028101330422418182819D
:10533000C28103620023436103614389B0F9041011
:1053400043F001039AB2038943F001039BB201FBCE
:1053500002330268134483610120704700207047C4
:1053600038B500230360C3808380C38183810446F2
:105370004381038103C984E803001068516804F184
:10538000080503C5E36101212046FFF7BDFF204664
:1053900038BD002310B50360C38083800446C381F9
:1053A00083814381038103C9E26184E80300012111
:1053B0002046FFF7A9FF204610BD2DE9F0414FF030
:1053C0000008838904699C420AD34369B0F9044008
:1053D000C0F8108002334361836903EB44038361A7
:1053E000C38944699C4234D286690369F518F45C28
:1053F00015F801CCB0F904505D1B16F805E03544F2
:1054000015F8013C2AB10CEB0E056D1014705570A7
:1054100093700569C1B104EB0C071F44252F02DC12
:1054200002350561CDE704EB0E061E44252EF7DD9F
:10543000CCEB0404CEEB0303E403DB0394FBF7F4AF
:1054400093FBF6F30C604B60023505610120BDE86B
:10545000F0810020BDE8F081C36970B504460D46B7
:10546000164653B1FFF7A9FF58B901462046FFF78A
:105470004BFF30B1324629462046BDE87040FFF769
:105480009CBF70BD2DE9F3470DF108090024884643
:10549000012182468DF806408DF8054009F8044D3B
:1054A000FFF732FF2646254627464A46002150464A
:1054B000FFF7D2FF50B19DF804301F449DF805302E
:1054C0001D449DF8063001341E44EEE7B7FBF4F7A7
:1054D000B5FBF4F5B6FBF4F0B8F1000F01D0C8F855
:1054E00000402D0245EA0745284302B0BDE8F08799
:1054F0002DE9F04F8BB00AAF0691002401210698E8
:1055000009941546994647F8084DFFF7FDFE00211E
:105510000022CDE90212CDE9001223460594A046EF
:1055200026460022394606980793FFF795FF079B0A
:10553000824628B308992A68E86891426A68C8BF19
:1055400008F101089142BEBF059A01320592099AFD
:10555000DDE900AB82422869C8BF01338242B8BF8F
:1055600001341AEB010A4BEBE17BDDE90201801803
:1055700041EBE271CDE900ABCDE902010136D0E7A4
:1055800007EE906AB8EE677A07EE908AF8EE677ACF
:105590003246C7EE876ADDED057AC9ED006AF8EE9E
:1055A000677AC7EE876A07EE903AF8EE677AC9ED38
:1055B000016AC7EE876A0346DDE9000107EE904AFB
:1055C000F8EE677AC9ED026AC7EE876AC9ED036A29
:1055D00006F08AFC3246A8605346DDE9020106F077
:1055E00083FC68610BB0BDE8F08F2DE9FF4100231B
:1055F0000746884614461361D360536013601F2624
:105600004FF080456B46224641463846FFF770FF13
:10561000D7ED5E7A9DED007A2368B4EEE77AF1EE7D
:1056200010FA9DED017ACCBF5B195B1BF4EEC77AD3
:10563000236063689DED027AF1EE10FA4CBF5B1BAC
:105640005B19F4EEC77A6360E3689DED037AF1EECF
:1056500010FA4CBF5B195B1BE360F4EEC77A236959
:10566000F1EE10FA4CBF5B1B5B19013E23614FEA60
:105670006505C7D104B0BDE8F0810139C9B206297A
:1056800070B55AD84B01C2180344D2699D68012AEB
:1056900001F1600200EB8202D2ED017A08BF90EDC9
:1056A000607A4FEA41124FF0140404FB0104815860
:1056B00008BF67EE877A491B07EE105A06EE901A6C
:1056C000B8EEC77AF8EEE66AB0EE476AA7EEA66AC9
:1056D0008618D9685869FDEEC66A091AC4ED386A99
:1056E0007268521B06EE902AF8EEE66A1A69A7EE77
:1056F000A67A121A06EE901ABDEEC77AF8EEE66A9E
:1057000084ED397A07EE100AB8EEC77A9869B0EEE0
:10571000476AA7EEA66AFDEEC66AC4ED3A6A06EECF
:10572000902AF8EEE66AA7EEA67ABDEEC77A84ED77
:105730003B7AFEF763F9C4F8F00070BD70B55C1EEB
:105740001E46E3B2062B8AB0054615D801A8FFF71E
:1057500007FE06F10062013A05EB421201A9284654
:10576000FFF743FF05EB441200242846D46131467D
:10577000FFF783FF204601E04FF0FF300AB070BD15
:105780004B1E062B9DBF01F1006101F1FF3100EBC3
:10579000411000207047F8B54C1EE3B2062B0646B8
:1057A0000F460ED8154600EB44140FCD0FC495E8F4
:1057B0000F0084E80F0030463946FFF75EFF0020F7
:1057C000F8BD4FF0FF30F8BD002330B51C46D0F8CF
:1057D000702109B9D15403E0D55C8D4208BFD4547F
:1057E0000133B3F5805FF2D130BD2DE9F74F0021D1
:1057F0000446FFF7E9FF0125E9B220460135FFF72E
:105800003CFF082DF8D100200023C3EB00094FEA2C
:10581000C932C9F3C50900924FEA891201920025E5
:1058200003EB000BD4F86C210BEB05018A4204DD7D
:105830000435B5F5807FF5D139E0C3EB0508009A52
:1058400092FBF1FC4FEAC83292FBF1F1019AC8F3E6
:10585000C50802EB080AA64622460126DEF80070BB
:1058600017B9DEF80470D7B1D2F8E070674516DAE0
:10587000D2F8E470674512DDD2F8E8708F420EDA94
:10588000D2F8EC708F420ADDD4F8701111F80A706A
:105890000FB1B74201DD01F80A604146CC4601363E
:1058A000082E0EF1200E02F11402D7D1C0E7043306
:1058B000B3F5807FA9D10430B0F5807FA4D100205A
:1058C00003B0BDE8F08F000010B500F120030446DE
:1058D000002200F5807043F8042C43F80C2C43F8A8
:1058E000102C43F8142C43F8182C43F81C2C43F8C4
:1058F000202C20338342EED1C4F87011E022002125
:10590000204607F08BF88C22002104F1E00007F01C
:1059100085F800212046FFF757FF4C23C4F86C316F
:105920004FF07A53C4F87C314FF4FA63C4F8743101
:10593000084BC4F8783108494FF07F53C4F88031E0
:1059400004F5D07204F5C27343F8041B9342FBD1F3
:10595000204610BD6666663F0000204043B90A88B5
:10596000032A2ED9043A0A808A8804328A8024E0E5
:10597000012B08D14A88032A1FD9CB88043A043363
:105980004A80CB801BE0022B0AD188880B88B2F9B1
:10599000042003440333934213DA043088800EE07A
:1059A000032B0CD1C8884B88B2F90620034403337B
:1059B000934206DA0430C88001E0184670470020A0
:1059C0007047012070472DE9F04710468CB0002445
:1059D0000A46014603A89A4602940194FFF7C0FCC8
:1059E00000260027B046B946002201A903A8FFF708
:1059F00033FD054650B1019B18EB030849EBE379F1
:105A0000029BF61847EBE3770134EDE722460346A5
:105A10004946404606F068FA2246CAF800002B467E
:105A20003046394606F060FACAF804000CB0BDE80A
:105A3000F0874B1E062B9CBF00EB8100C0F8802135
:105A40007047C0F874117047DFED077A07EE101A3F
:105A500067EE277AFCEEE77A17EE903A03B9012356
:105A6000C0F86C31704700BF00403F44C0F880115F
:105A700070470139CBB2062B9ABF00EB4110C069C9
:105A8000002070472DE9F041436805689D420446B7
:105A90000F4632D105F11008B8F1FE5F94BF4FEA0E
:105AA00088004FF0FF301A49A6680AF079FD60B10E
:105AB0000F3503460022013DA91C03F1040304D065
:105AC00023F8022C23F8042CF5E7A06008B100238A
:105AD00004E0A6604FF0FF30BDE8F08122689A42F2
